:020000040800F2
:100000000000022015100008610F0008630F0008AF
:10001000650F0008670F0008690F00080000000066
:100020000000000000000000000000006B0F00084E
:100030006D0F0008000000006F0F0008710F00082E
:1000400065100008651000086510000865100008BC
:1000500065100008651000086510000865100008AC
:10006000651000086510000865100008651000089C
:10007000790F000865100008651000086510000879
:10008000651000086510000865100008651000087C
:10009000651000086510000865100008651000086C
:1000A00065100008890F0008651000086510000839
:1000B000990F000865100008651000086510000819
:1000C000651000086510000865100008651000083C
:1000D000651000086510000865100008F90F000899
:1000E000651000086510000865100008651000081C
:1000F000651000086510000865100008651000080C
:1001000065100008651000086510000865100008FB
:1001100065100008651000086510000865100008EB
:1001200065100008651000086510000865100008DB
:1001300065100008651000086510000865100008CB
:1001400065100008651000086510000865100008BB
:1001500065100008651000086510000865100008AB
:10016000651000086510000865100008651000089B
:100170006510000865100008651000080000000008
:0801800065100008651000087D
:1001880010B5054C237833B9044B13B10448AFF3C9
:1001980000800123237010BD4404002000000000EB
:1001A8007435000808B5034B1BB103490348AFF386
:1001B800008008BD000000004804002074350008D5
:1001C8004FF0FF0C1CEAD0521EBF1CEAD15392EA32
:1001D8000C0F93EA0C0F6FD01A4480EA010C40020E
:1001E80018BF5FEA41211ED04FF0006343EA501068
:1001F80043EA5111A0FB01310CF00040B1F5000FAA
:100208003EBF490041EAD3715B0040EA010062F158
:100218007F02FD2A1DD8B3F1004F40EBC25008BF42
:1002280020F00100704790F0000F0CF0004C08BF60
:1002380049024CEA502040EA51207F3AC2BFD2F12D
:10024800FF0340EAC250704740F400004FF000033B
:10025800013A5DDC12F1190FDCBF00F00040704775
:10026800C2F10002410021FA02F1C2F1200200FAB3
:1002780002FC5FEA310040F1000053EA4C0308BF7A
:1002880020EADC70704792F0000F00F0004C02BFCB
:10029800400010F4000F013AF9D040EA0C0093F046
:1002A800000F01F0004C02BF490011F4000F013BA0
:1002B800F9D041EA0C018FE70CEAD15392EA0C0F0E
:1002C80018BF93EA0C0F0AD030F0004C18BF31F079
:1002D800004CD8D180EA010000F00040704790F04F
:1002E800000F17BF90F0004F084691F0000F91F0F3
:1002F800004F14D092EA0C0F01D142020FD193EAB9
:100308000C0F03D14B0218BF084608D180EA010040
:1003180000F0004040F0FE4040F40000704740F01C
:10032800FE4040F44000704780F0004002E000BF0B
:1003380081F0004142001FBF5FEA410392EA030FC8
:100348007FEA226C7FEA236C6AD04FEA1262D2EB12
:100358001363C1BFD218414048404140B8BF5B4217
:10036800192B88BF704710F0004F40F4000020F0B0
:100378007F4018BF404211F0004F41F4000121F0C6
:100388007F4118BF494292EA030F3FD0A2F1010210
:1003980041FA03FC10EB0C00C3F1200301FA03F14E
:1003A80000F0004302D5494260EB4000B0F5000F71
:1003B80013D3B0F1807F06D340084FEA310102F130
:1003C8000102FE2A51D2B1F1004F40EBC25008BFE2
:1003D80020F0010040EA03007047490040EB0000AC
:1003E800013A28BFB0F5000FEDD2B0FA80FCACF1AD
:1003F800080CB2EB0C0200FA0CF0AABF00EBC250DA
:1004080052421843BCBFD0401843704792F0000FC7
:1004180081F4000106BF80F400000132013BB5E71A
:100428004FEA41037FEA226C18BF7FEA236C21D090
:1004380092EA030F04D092F0000F08BF08467047F5
:1004480090EA010F1CBF0020704712F07F4F04D1C3
:10045800400028BF40F00040704712F100723CBFD6
:1004680000F50000704700F0004343F0FE4040F400
:10047800000070477FEA226216BF08467FEA2363BE
:100488000146420206BF5FEA412390EA010F40F4A9
:10049800800070474FF0000304E000BF10F00043F5
:1004A80048BF40425FEA000C08BF704743F09643DC
:1004B80001464FF000001CE050EA010208BF7047F7
:1004C8004FF000030AE000BF50EA010208BF70477E
:1004D80011F0004302D5404261EB41015FEA010C93
:1004E80002BF84460146002043F0B64308BFA3F18B
:1004F8008053A3F50003BCFA8CF2083AA3EBC2536D
:1005080010DB01FA02FC634400FA02FCC2F120028B
:10051800BCF1004F20FA02F243EB020008BF20F0C2
:100528000100704702F1200201FA02FCC2F1200228
:1005380050EA4C0021FA02F243EB020008BF20EA1D
:10054800DC70704753B94AB9002908BF00281CBF9E
:100558004FF0FF314FF0FF3000F074B9ADF1080CE7
:100568006DE904CE00F006F8DDF804E0DDE90223C9
:1005780004B070472DE9F047089E0D4604468846AA
:10058800002B4DD18A42944668D9B2FA82F252B110
:1005980001FA02F3C2F1200120FA01F10CFA02FC7F
:1005A80041EA030894404FEA1C45210CB8FBF5FECC
:1005B8001FFA8CF705FB1E8341EA03430EFB07F184
:1005C80099420BD91CEB03030EF1FF3080F01E811A
:1005D800994240F21B81AEF1020E63445B1AA4B249
:1005E800B3FBF5F005FB103344EA034400FB07F7BF
:1005F800A7420AD91CEB040400F1FF3380F00881FC
:10060800A74240F2058164440238E41B40EA0E40E8
:1006180000211EB1D4400023C6E90043BDE8F0879D
:100628008B4208D9002E00F0EE800021C6E90005B3
:100638000846BDE8F087B3FA83F100294AD1AB42F6
:1006480002D3824200F2F980841A65EB0303012089
:100658009846002EE2D0C6E90048DFE702B9FFDE7F
:10066800B2FA82F2002A40F09180A1EB0C054FEA21
:100678001C471FFA8CFE0121B5FBF7F307FB13504B
:10068800250C45EA00450EFB03F0A84208D91CEBEF
:10069800050503F1FF3802D2A84200F2CB80434699
:1006A8002D1AA4B2B5FBF7F007FB105544EA054430
:1006B8000EFB00FEA64508D91CEB040400F1FF352B
:1006C80002D2A64500F2BB802846A4EB0E0440EAFD
:1006D80003409EE7C1F120078B4022FA07FC4CEA51
:1006E800030C20FA07F405FA01F31C43FD404FEA16
:1006F8001C4900FA01F3B5FBF9F8200C1FFA8CFE2F
:1007080009FB185540EA054508FB0EF0A84202FA15
:1007180001F20BD91CEB050508F1FF3A80F088803F
:10072800A84240F28580A8F1020865442D1AA4B2B7
:10073800B5FBF9F009FB105544EA054500FB0EFE30
:10074800AE4508D91CEB050500F1FF346CD2AE4567
:100758006AD90238654440EA0840A0FB0294A5EB38
:100768000E05A542C846A64656D353D05EB1B3EB94
:10077800080265EB0E0505FA07F722FA01F3CD40EA
:100788001F43C6E900750021BDE8F087C2F12003C8
:1007980020FA03F10CFA02FC25FA03F395400D4305
:1007A8004FEA1C471FFA8CFEB3FBF7F107FB113029
:1007B8002B0C43EA004301FB0EF0984204FA02F4C2
:1007C80008D91CEB030301F1FF382FD298422DD929
:1007D800023963441B1AADB2B3FBF7F007FB1033C1
:1007E80045EA034500FB0EF3AB4208D91CEB0505AF
:1007F80000F1FF3816D2AB4214D902386544ED1A1D
:1008080040EA014138E73146304607E78646E5E6E3
:100818001846FAE64B45A9D2B9EB020864EB0C0E70
:100828000138A3E74046EAE7204694E74146D1E786
:10083800D0467BE7023B654432E7084609E7644453
:10084800023842E7704700BF38B5044690F84200C6
:10085800C0B2202815D1B1B10AB9012038BDA162B2
:10086800A28500256564206813460A46011DE06BD1
:1008780000F070FE2268536943F040035361284634
:10088800ECE70220EAE70120E8E7000000B583B0C2
:1008980000230193084803681A6801925A68019274
:1008A800019ADA6842F01002DA6032220349FFF74F
:1008B800CBFF03B05DF804FBD80500207C040020C2
:1008C80010B5374A13680133136091F800C04B78AC
:1008D8004CEA032CCCF30A0CA0F800C0ACF5806CF1
:1008E8000FFA8CFCA0F800C04A788B78D20842EA4C
:1008F8004312C2F30A024280A2F5806212B2428019
:100908008B78CC789B0943EA84030C7943EA8423E7
:10091800C3F30A038380A3F580631BB2838091F835
:1009280004E04C794FEA5E0E4EEAC41ECEF30A0E7E
:10093800A0F806E0AEF5806E0FFA8EFEA0F806E08D
:100948004C79A40904724979C1F301114172BCF1CF
:10095800000FB8BFCCF1000C1FFA8CFCBCF5257F4A
:1009680017D8002AB8BF524292B2B2F5257F10D8E4
:10097800002BB8BF5B429BB2B3F5257F09D8BEF107
:10098800000FB8BFCEF1000E1FFA8EFEBEF5257F10
:1009980005D90023036043608360C360036110BD11
:1009A80064040020406880B27047000010B582B02F
:1009B8000023019303681A6801925B680193019B05
:1009C800104B984201D002B010BD0446C36B1A68A0
:1009D800136823F001031360C36B1868FFF7E2FF85
:1009E80020280AD0E36B1B6832225A60E36B1A682E
:1009F800136843F001031360E5E703490348FFF771
:100A08005FFFEFE7D80500207C0400206804002081
:100A180008B503681A6812F0100F03D0DB6813F0EA
:100A2800100F00D108BDFFF7C1FFFBE730B58BB051
:100A380000240594069407940894099401941E4B85
:100A48001A6B42F002021A631A6B02F00202019258
:100A5800019A02941A6B42F001021A631A6B02F0AF
:100A680001020292029A03941A6B42F004021A637A
:100A78001A6B02F004020392039A04941A6B42F070
:100A880080021A631B6B03F080030493049B0B4DD5
:100A980022464FF4E051284600F0BEFF4FF4E053E1
:100AA8000593012306930794089405A9284600F0A6
:100AB800C1FE0BB030BD00BF00380240001C024030
:100AC80000B583B000210191094B1A6B42F4001262
:100AD8001A631B6B03F400130193019B0A460C2055
:100AE80000F0FAFB0C2000F02FFC03B05DF804FBCB
:100AF8000038024010B50A4C01224FF480512046BC
:100B080000F08AFF01224FF40061204600F084FFC4
:100B180001224FF48061204600F07EFF10BD00BF27
:100B2800001C024008B5044B834200D008BD00F009
:100B380097FA00F005FBF9E74805002072B6FEE7D2
:100B480008B50A480A4B03600A4B436000238360D8
:100B5800C3604FF480620261042242618361C36111
:100B680002F01EFA00B908BDFFF7E8FFD80500201B
:100B780000480040A086010008B50E480E4B0360EF
:100B88004FF48273436000238360C36002220261D2
:100B9800012242614FF4007282613822C26103620D
:100BA800436283620A23C36201F050FB00B908BDA7
:100BB800FFF7C4FFF00400200030014000B587B003
:100BC800002302930393049305930093019314481D
:100BD800144A026040F28F624260836040F2E7325A
:100BE800C26003614361836101F0F4FF90B94FF47F
:100BF8008053029302A90A4802F024F860B900233E
:100C0800009301936946064802F09CF830B907B092
:100C18005DF804FBFFF792FFFFF790FFFFF78EFFE9
:100C2800480500200000014000B587B0002302936A
:100C38000393049305930093019314484FF0804263
:100C4800026042F2CF02426083600922C2600361FF
:100C5800836101F0BFFF90B94FF48053029302A95A
:100C68000A4801F0EFFF60B9002300930193694639
:100C7800064802F067F830B907B05DF804FBFFF7E3
:100C88005DFFFFF75BFFFFF759FF00BF90050020EE
:100C980000B595B03022002108A802F0A5FB00237A
:100CA800039304930593069307930193204A116CC9
:100CB80041F080511164126C02F080520192019A45
:100CC80002931C4B1A6842F480421A601B6803F4B2
:100CD80080430293029B012308934FF480330993C6
:100CE80002230E934FF480020F9206221092A8223C
:100CF800119212930423139308A800F093FE98B955
:100D08000F23039302230493002305934FF4A05366
:100D180006934FF480530793052103A801F0D0F8F8
:100D280020B915B05DF804FBFFF708FFFFF706FFD1
:100D3800003802400070004008B50D4A936823F05F
:100D48000303936000F08AFAFFF7A2FFFFF76EFE35
:100D5800FFF7B6FEFFF7F4FEFFF70EFFFFF72EFFD3
:100D6800FFF762FFFFF792FD024801F0CFFDFEE7B3
:100D7800003802409005002082B0002100910B4B02
:100D88005A6C42F480425A645A6C02F480420092CF
:100D9800009A01911A6C42F080521A641B6C03F09D
:100DA80080530193019B02B0704700BF0038024096
:100DB80000B589B000230393049305930693079322
:100DC8000268154B9A4202D009B05DF804FB002175
:100DD800019103F584335A6C42F480525A645A6C78
:100DE80002F480520192019A02911A6B42F00202B7
:100DF8001A631B6B03F002030293029B38230393CD
:100E080002230493032306930523079303A90348A6
:100E180000F010FDD8E700BF003001400004024098
:100E280000B583B00368194A934205D0B3F1804FE7
:100E380016D003B05DF804FB00210091144B5A6CE6
:100E480042F001025A645B6C03F001030093009BBB
:100E58000A46192000F040FA192000F075FAE8E770
:100E68000021019103F50E331A6C42F001021A6455
:100E78001B6C03F001030193019B0A461C2000F040
:100E88002BFA1C2000F060FAD3E700BF00000140F5
:100E98000038024030B589B00023039304930593CA
:100EA800069307930268284B9A4201D009B030BDD7
:100EB80004460025019503F5F8331A6C42F48022A4
:100EC8001A641A6C02F480220192019A02951A6B34
:100ED80042F004021A631B6B03F004030293029BA3
:100EE8004FF44063039302230493032306930723D9
:100EF800079303A9154800F09DFC1548154B03609E
:100F08004FF0006343608560C5604FF48063036100
:100F1800456185614FF48073C3614FF440330362C8
:100F2800456200F0B1FA58B9094BE3639C630022AB
:100F38001146272000F0D0F9272000F005FAB5E780
:100F4800FFF7FCFDF0E700BF004800400008024042
:100F58009004002028600240FEE7FEE7FEE7FEE777
:100F6800FEE770477047704708B500F091F908BD73
:100F780008B5024800F070FB08BD00BF90040020CF
:100F880008B5024801F00AFD08BD00BF4805002069
:100F980008B5124A138801331BB21380642B03DC93
:100FA8000F4801F0FBFC08BDFFF7A4FD0B4B002226
:100FB8001A800C4BB3F900200B4B1B689A4207D0E0
:100FC8000A4B01221A70084B1A68064B1A80E7E789
:100FD8000023064A1370044A1360F4E7220600202F
:100FE80090050020200600206404002060040020F2
:100FF80010B5044C2046FFF70BFD204602F08CF894
:1010080010BD00BFD805002070470000DFF834D0BD
:10101800FFF7FAFF0C480D490D4A002302E0D458A7
:10102800C4500433C4188C42F9D30A4A0A4C00232A
:1010380001E013600432A242FBD302F0B1F9FFF7DA
:101048007BFE7047000002200000002044040020BE
:10105800C43500084404002050060020FEE70000C4
:1010680070B5002210212F4800F0D6FC2E4992239B
:101078000B704FF47A7301222C4801F046F92B4883
:1010880001F013FC0328FAD04FF47A73012228499F
:10109800264801F046FB254801F007FC0428FAD051
:1010A800002411E04FF47A73012221491F4801F00E
:1010B80038FB1E4801F0F9FB0428FAD01C4B1A78BB
:1010C8001C4B1A550134E4B2052CEBD9012210212E
:1010D800144800F0A1FC174C63781B021BB220785F
:1010E800154A16681843FFF7D9F93146FFF768F82B
:1010F800124D2860E3781B021BB2A0781843FFF753
:10110800CDF93146FFF75CF8686063791B021BB2C2
:1011180020791843FFF7C2F93146FFF751F8A86064
:1011280070BD00BF0000024045060020F00400200A
:101138004406002030060020040000202406002079
:1011480070B5002201212B4800F066FC2A49802353
:101158000B704FF47A730122284801F0D6F827481B
:1011680001F0A3FB0328FAD0002411E04FF47A73AE
:1011780001222349214801F0D4FA204801F095FBC7
:101188000428FAD01E4B1A781E4B1A550134E4B2C3
:10119800072CEBD901221146164800F03DFC194BEB
:1011A8001B780F2B00D070BD164CE3781B021BB2C6
:1011B800A078154A16681843FFF770F93146FEF70C
:1011C800FFFF124D286063791B021BB22079184378
:1011D800FFF764F93146FEF7F3FF6860E3791B0215
:1011E8001BB2A0791843FFF759F93146FEF7E8FF1B
:1011F800A860D8E70004024045060020F00400205B
:101208004406002030060020080000203806002090
:1012180010B504460E4B18784FF47A73B3FBF0F30D
:101228000C4A1068B0FBF3F000F09CF868B90F2C7A
:1012380001D901200AE0002221464FF0FF3000F0DA
:101248004BF8054B1C60002000E0012010BD00BFDA
:101258000C000020000000201000002008B50B4BF7
:101268001A6842F400721A601A6842F480621A60BE
:101278001A6842F480721A60032000F01BF80F20ED
:10128800FFF7C6FFFFF778FD002008BD003C0240CD
:10129800034A1168034B1B780B441360704700BF67
:1012A800480600200C000020014B1868704700BF5A
:1012B80048060020074AD36823F4E0631B041B0C8C
:1012C800000200F4E060034343F0BF6343F40033DB
:1012D800D360704700ED00E000B5194BDB68C3F33D
:1012E8000223C3F1070CBCF1040F28BF4FF0040C14
:1012F80003F1040EBEF1060F18D9033B4FF0FF3E71
:101308000EFA0CFC21EA0C0199400EFA03F322EACA
:101318000303194300280BDB0901C9B200F160403F
:1013280000F5614080F800135DF804FB0023E5E751
:1013380000F00F000901C9B2024B1954F4E700BFCD
:1013480000ED00E014ED00E0002807DB00F01F02CC
:10135800400901239340024A42F82030704700BFF9
:1013680000E100E00138B0F1807F0BD24FF0E023BC
:101378005861054AF02182F823100020986107225D
:101388001A6170470120704700ED00E030B405682D
:101398002C6824F480242C60046863608368402BE4
:1013A80005D0036899600368DA6030BC7047036849
:1013B8009A600368D960F8E710B40368D9B21039A5
:1013C8000B4AA2FB014212090A4CA25CC2655F29C2
:1013D80008D923F47F7323F0030304338365806DF6
:1013E80010BC704723F47F7323F003038365F6E78B
:1013F800ABAAAAAAA4350008836A826992B9012B0C
:101408000AD0022B02D00BB100207047C36A13F038
:10141800807F28D100207047C36AB3F1C07F24D0F1
:1014280000207047B2F5005F09D0022B25D9032BA5
:1014380025D1C36A13F0807F23D100207047032B86
:1014480003D8DFE803F01404140A00207047C36AC5
:1014580013F0807F0DD100207047C36AB3F1C07FBD
:1014680009D00020704701207047012070470120F3
:101478007047012070470120704701207047002005
:10148800704701207047000070B50446FFF70CFF55
:10149800002C5BD00546022384F83530002384F8FD
:1014A80034302268136823F00103136023681A6834
:1014B80012F0010F0AD0FFF7F7FE431B052BF5D9F1
:1014C80020236365032084F8350070BD1A6820481E
:1014D80010406168A2680A43E1680A4321690A4327
:1014E80061690A43A1690A43E1690A43216A0A4317
:1014F8000243616A04291ED01A602668756925F0BE
:101508000705636A1D43042B07D1A36A1D43E36AD9
:101518001BB12046FFF770FF90B975612046FFF7B1
:101528004BFFE26D3F2393408360002060650123F9
:1015380084F83530C9E7E16A206B01430A43DBE7E9
:1015480040236365012084F83500BEE70120BCE72D
:101558003F8010F038B5044690F8340001281BD0BD
:10156800012084F8340094F83500C0B2012804D072
:10157800002384F83430022038BD022084F8350076
:10158800002565652046FFF701FF2268136843F0D0
:10159800010313602846EFE70220EDE770B5044623
:1015A800866DFFF781FE94F83530DBB2022B06D04A
:1015B80080236365002384F83430012070BD05461C
:1015C8002268136823F0160313602268536923F016
:1015D80080035361236CE3B12268136823F0080386
:1015E80013602268136823F00103136023681B68E3
:1015F80013F0010F11D0FFF757FE431B052BF5D948
:1016080020236365032084F83500002384F83430F0
:10161800D4E7A36C002BDFD1E3E7E26D3F239340CF
:10162800B360012384F83530002084F83400C5E71E
:1016380090F83530DBB2022B03D0802343650120BC
:101648007047052380F835300268136823F00103DA
:101658001360002070470000F0B583B004460023F3
:101668000193724B1D68724BA3FB0535AD0A876D5C
:101678003E68C26D08239340334210D003681A684D
:1016880012F0040F0BD01A6822F004021A60C26D1F
:1016980008239340BB60436D43F001034365E26D4B
:1016A80001239340334209D02268526912F0800F17
:1016B80004D0BB60636D43F002036365E26D0423ED
:1016C8009340334209D02268126812F0020F04D006
:1016D800BB60636D43F004036365E26D10239340C0
:1016E800334224D02268126812F0080F1FD0BB6062
:1016F80023681A6812F4802F0DD01B6813F4002F8A
:1017080004D1236C9BB12046984710E0A36C73B1B9
:10171800204698470BE01A6812F4807F03D11A68B4
:1017280022F008021A60236C0BB120469847E26D3C
:1017380020239340334255D02268126812F0100FCC
:1017480050D0BB6094F83530DBB2052B0ED023683F
:101758001A6812F4802F33D01B6813F4002F2AD193
:10176800636C002B3ED0204698473BE02268136804
:1017780023F0160313602268536923F08003536132
:10178800236CA3B12268136823F008031360E26D89
:101798003F239340BB60012384F83530002384F84D
:1017A8003430236D002B3FD0204698473CE0A36C93
:1017B800002BE7D1EBE7E36BA3B12046984711E094
:1017C8001A6812F4807F09D11A6822F010021A6090
:1017D800012384F83530002384F83430E36B0BB1EF
:1017E80020469847636DFBB1636D13F0010F17D066
:1017F800052384F835302268136823F00103136049
:10180800019B01330193AB4204D823681B6813F092
:10181800010FF5D1012384F83530002384F83430E2
:10182800E36C0BB12046984703B0F0BD00000020E0
:10183800B5814E1B00230F2B00F2E48070B582B0F7
:1018480060E085685E000324B44025EA0405CC689E
:10185800B4402C438460456825EA02054C68C4F30B
:1018680000129A402A4342605AE0DC08083450F8D3
:10187800246003F0070295000F22AA4026EA020E10
:101888000A69AA4042EA0E0240F824205CE00722D6
:1018980000E0002202FA0EF22A4302345A4D45F8BB
:1018A80024205A4A94686FEA0C0224EA0C054E6810
:1018B80016F4801F01D04CEA0405544CA560E46876
:1018C80002EA04054E6816F4001F01D04CEA04052C
:1018D8004E4CE560646802EA04054E6816F4003F61
:1018E80001D04CEA0405494C6560246822404D68E3
:1018F80015F4803F01D04CEA0402444C22600133C5
:101908000F2B7DD801229A400C6804EA020C32EAB7
:101918000404F4D14C6804F00304013C012C90D970
:101928004A6802F00302032A09D0C4685D00032252
:10193800AA4024EA02048A68AA402243C2604A688C
:1019480002F00302022A90D004684FEA430E0322F1
:1019580002FA0EF224EA02044A6802F0030202FACA
:101968000EF2224302604A6812F4403FC7D00022B8
:101978000192274A546C44F480445464526C02F433
:1019880080420192019A9C08A51C1F4A52F82550D2
:1019980003F003024FEA820E0F2202FA0EF225EA42
:1019A80002051C4A90423FF474AF02F580629042EF
:1019B8001AD002F58062904218D002F580629042F7
:1019C80016D002F58062904214D002F580629042EF
:1019D80012D002F58062904210D002F580629042E7
:1019E8003FF455AF082255E7012253E7022251E799
:1019F80003224FE704224DE705224BE7062249E779
:101A080002B070BD704700BF00380140003C014083
:101A180000380240000002400AB1816170470904A1
:101A280081617047002800F0E08170B582B00446FB
:101A3800036813F0010F3BD09F4B9B6803F00C0326
:101A4800042B2CD09C4B9B6803F00C03082B21D053
:101A58006368B3F5803F4FD0B3F5A02F52D0964BB3
:101A68001A6822F480321A601A6822F480221A60F6
:101A78006368002B50D0FFF717FC05468E4B1B6898
:101A880013F4003F14D1FFF70FFC401B6428F5D96D
:101A98000320B1E1884B5B6813F4800FD8D0864BE4
:101AA8001B6813F4003F03D06368002B00F09F818C
:101AB800236813F0020F54D07F4B9B6813F00C0F70
:101AC8003ED07D4B9B6803F00C03082B33D0E368B2
:101AD800002B68D0794B01221A60FFF7E5FB054619
:101AE800754B1B6813F0020F54D1FFF7DDFB401B49
:101AF8000228F5D903207FE16F4A136843F4803345
:101B08001360B5E76C4B1A6842F480221A601A68B1
:101B180042F480321A60ABE7FFF7C6FB0546664B16
:101B28001B6813F4003FC3D0FFF7BEFB401B6428BB
:101B3800F5D9032060E1604B5B6813F4800FC6D1D0
:101B48005D4B1B6813F0020F03D0E368012B40F0D4
:101B58005081594A136823F0F803216943EAC10305
:101B68001360236813F0080F42D063696BB3534BBB
:101B78000122C3F8802EFFF797FB05464E4B5B6F9B
:101B880013F0020F34D1FFF78FFB401B0228F5D961
:101B9800032031E1484A136823F0F803216943EA36
:101BA800C1031360DDE7454B00221A60FFF77CFB99
:101BB8000546414B1B6813F0020FD2D0FFF774FBA8
:101BC800401B0228F5D9032016E13C4B0022C3F83C
:101BD800802EFFF769FB0546374B5B6F13F0020F4A
:101BE80006D0FFF761FB401B0228F5D9032003E16B
:101BF800236813F0040F77D02F4B1B6C13F0805F12
:101C080033D1002301932C4B1A6C42F080521A6492
:101C18001B6C03F080530193019B0125284B1B6823
:101C280013F4807F23D0A368012B34D0052B38D040
:101C3800214B1A6F22F001021A671A6F22F0040270
:101C48001A67A368002B3DD0FFF72EFB06461A4BF8
:101C58001B6F13F0020F46D1FFF726FB801B41F2E2
:101C680088339842F3D90320C6E00025D6E7144A02
:101C7800136843F480731360FFF716FB0646104B96
:101C88001B6813F4807FCED1FFF70EFB801B022860
:101C9800F5D90320B0E0084A136F43F00103136736
:101CA800CFE7054B1A6F42F004021A671A6F42F029
:101CB80001021A67C5E700BF00380240000047422A
:101CC80000700040FFF7F0FA0646524B1B6F13F006
:101CD800020F08D0FFF7E8FA801B41F288339842D8
:101CE800F3D9032088E0EDB9A369002B00F08380C5
:101CF800484A926802F00C02082A51D0022B17D0E9
:101D0800454B00221A66FFF7CFFA0446414B1B6881
:101D180013F0007F42D0FFF7C7FA001B0228F5D95D
:101D2800032069E03B4A136C23F080531364DBE71C
:101D3800394B00221A66FFF7B7FA0546354B1B6880
:101D480013F0007F06D0FFF7AFFA401B0228F5D941
:101D5800032051E0E369226A1343626A43EA82136B
:101D6800A26A5208013A43EA0243E26A43EA02637A
:101D7800284A5360284B01221A66FFF795FA044651
:101D8800244B1B6813F0007F06D1FFF78DFA001B68
:101D98000228F5D903202FE000202DE000202BE0B9
:101DA800012B2BD01B4B5B6803F48001E269914245
:101DB80026D103F03F02216A8A4223D1616A47F69D
:101DC800C0721A40B2EB811F1ED103F44031A26ADF
:101DD8005208013AB1EB024F18D103F07063E26A7E
:101DE800B3EB026F14D1002006E0012070470120F8
:101DF80002E0012000E0002002B070BD0120FBE7F6
:101E08000120F9E70120F7E70120F5E70120F3E7D2
:101E18000120F1E7003802400000474208B5254B91
:101E28009B6803F00C03042B3FD0082B3FD1214BB8
:101E38005A6802F03F025B6813F4800F12D01D4B02
:101E48005968C1F388111C480023A1FB0001FEF763
:101E580079FB184B5B68C3F3014301335B00B0FBAC
:101E6800F3F025E0134B5968C1F3881C4FEA4C1175
:101E7800B1EB0C006EEB0E0E4FEA8E1343EA906343
:101E88008101091A63EB0E03DB0043EA5173C900B1
:101E980011EB0C0C43F10003990200234FEA8C204C
:101EA80041EA9C51FEF74EFBD3E7034800E00348A4
:101EB80008BD00BF00380240001BB7000024F40032
:101EC800002800F09B8070B50D4604464F4B1B68F8
:101ED80003F007038B4208D2CBB24C4A1370136845
:101EE80003F007038B4240F08B80236813F0020F46
:101EF80017D013F0040F04D0454A936843F4E05315
:101F08009360236813F0080F04D0414A936843F4A0
:101F1800604393603E4A936823F0F003A1680B4343
:101F28009360236813F0010F32D06368012B21D02E
:101F38009A1E012A25D9364A126812F0020F61D07A
:101F480033498A6822F0030213438B60FFF7ACF928
:101F580006462F4B9B6803F00C036268B3EB820FB5
:101F680016D0FFF7A1F9801B41F288339842F0D9C7
:101F7800032042E0264A126812F4003FE0D1012013
:101F88003BE0234A126812F0007FD9D1012034E0E7
:101F98001E4B1B6803F00703AB4207D9EAB21B4B81
:101FA8001A701B6803F00703AB422DD1236813F0A6
:101FB800040F06D0164A936823F4E053E1680B43F4
:101FC8009360236813F0080F07D0114A936823F42D
:101FD8006043216943EAC1039360FFF71FFF0C4B7D
:101FE8009B68C3F303130B4AD35CD8400A4B1860B1
:101FF8000A4B1868FFF70CF9002070BD01207047E4
:102008000120FAE70120F8E70120F6E7003C02404A
:10201800003802408C350008000000201000002025
:10202800014B1868704700BF0000002008B5FFF793
:10203800F7FF044B9B68C3F38223034AD35CD84061
:1020480008BD00BF003802409C35000808B5FFF7FE
:10205800E7FF044B9B68C3F34233034AD35CD84081
:1020680008BD00BF003802409C3500082DE9F04744
:1020780082B00546884617461E46FFF715F90A9BA3
:102088001B1A03EB0609FFF70FF982462B4B1B6857
:10209800C3F3CB3309FB03F301932B689C6838EA3D
:1020A80004030CBF4FF0010C4FF0000CBC4540D0AE
:1020B800B6F1FF3FF1D0FFF7F7F8A0EB0A0048456B
:1020C8000AD2B9F1000F07D0019A02B14A46019B22
:1020D800013B01939146E0E72A68536823F0E00347
:1020E80053606B68B3F5827F0BD0AB6AB3F5005FC2
:1020F80014D0012385F85130002385F8503003208F
:1021080018E0AB68B3F5004F02D0B3F5806FECD19F
:102118002A68136823F040031360E6E72A68136807
:1021280023F4005313602A68136843F400531360C0
:10213800DFE7002002B0BDE8F08700BF0000002004
:1021480070B584B004460D46164600920B4601222F
:102158000221FFF78BFFD0B9174B1B68174AA2FB68
:1021680003235B0D4FF47A7202FB03F30393636856
:10217800B3F5827F11D0039B3BB1039B013B0393D3
:1021880023689B6813F0800FF5D104B070BD636DB0
:1021980043F0200363650320F7E700962B460022EF
:1021A80080212046FFF762FF0028EED0636D43F0E0
:1021B800200363650320E8E700000020819F5E1686
:1021C80010B582B004460B464168B1F5827F14D041
:1021D8006168B1F5827F2AD1A168B1F5806F19D005
:1021E8000092002280212046FFF740FF30B3636D44
:1021F80043F020036365032020E08168B1F5004FB8
:1022080002D0B1F5806FE3D12068016821F0400168
:102218000160DDE70092002201212046FFF726FF3A
:1022280060B1636D43F020036365032006E000920C
:10223800002201212046FFF719FF08B902B010BD9E
:10224800636D43F0200363650320F7E700285AD045
:1022580010B50446436A33B94368B3F5827F05D0A5
:102268000023C36102E00023036143610023A362EA
:1022780094F85130002B40D0022384F85130226862
:10228800136823F040031360636803F48273A26841
:1022980002F404421343E26802F400621343226921
:1022A80002F002021343626902F001021343A269B9
:1022B80002F400721343E26902F038021343226AFF
:1022C80002F080021343A26A02F400522168134309
:1022D8000B60638B03F00403626A02F0100221684A
:1022E80013434B602268D36923F40063D361002051
:1022F8006065012384F8513010BD84F850302046C1
:10230800FEF756FDB8E7012070472DE9F04383B08A
:102318000446894690461D46FEF7C6FF94F851606C
:10232800F6B2012E40F0CC800746B9F1000F00F05C
:10233800C880B8F1000F00F0C48094F85030012B29
:1023480000F0C380012384F85030032384F851300F
:1023580000236365C4F83090A4F83480A4F836806C
:10236800A363A387E38763642364A368B3F5004F7B
:102378001ED023681A6812F0400F03D11A6842F081
:1023880040021A60E368B3F5006F1CD0636813B1AC
:10239800B8F1010F5FD1226B236812781A73236B8F
:1023A80001332363E38E9BB2013B9BB2E38652E089
:1023B8002268136823F0400313602268136843F40B
:1023C80080431360D5E7636813B1B8F1010F15D1E5
:1023D800226B23681288DA60236B02332363E38E4F
:1023E8009BB2013B9BB2E38608E0FEF75DFFC01B92
:1023F800A84202D3B5F1FF3F15D1A5B1E38E9BB238
:10240800002B42D023689A6812F0020FEDD0226B9D
:102418001288DA60236B02332363E38E9BB2013B9D
:102428009BB2E386EAE7012384F85130002384F85D
:102438005030032645E0226B12781A73236B013360
:102448002363B4F836C01FFA8CFC0CF1FF3C1FFA6A
:102458008CFCA4F836C0E38E9BB2B3B123689A68AB
:1024680012F0020FE7D1FEF71FFFC01BA84202D3EC
:10247800B5F1FF3F01D1002DEDD1012384F8513092
:10248800002384F8503003261BE03A4629462046AC
:10249800FFF756FE08B120236365A36833B901939B
:1024A8002368DA6801929B680193019B012384F8F1
:1024B8005130002384F85030636D13B9002600E0D2
:1024C8000226304603B0BDE8F0830226F9E72DE97D
:1024D800F04383B00446884691461F460A9DFEF79E
:1024E800E3FE064694F85130DBB26268012B0AD04D
:1024F800B2F5827F40F00581A268002A40F005818C
:10250800042B40F00481B8F1000F00F00281B9F10A
:10251800000F00F00081002F00F0FF8094F8503089
:10252800012B00F0FC80012384F8503094F85130DE
:10253800DBB2042B02D0052384F8513000236365F5
:10254800C4F83890E787A787C4F83080E786A7865D
:102558002364636423681A6812F0400F03D11A6871
:1025680042F040021A60E368B3F5006F11D0636867
:102578000BB1012F0BD1226B236812781A73236BCE
:1025880001332363E38E9BB2013B9BB2E3860127B1
:1025980071E063680BB1012F0BD1226B236812889D
:1025A800DA60236B02332363E38E9BB2013B9BB259
:1025B800E38601271BE023689A6812F0010F0ED00A
:1025C800E28F92B25AB1DA68A36B1A80A36B023316
:1025D800A363E38F9BB2013B9BB2E3870127FEF71E
:1025E80063FE801BA84202D3B5F1FF3F1ED1E38EE4
:1025F8009BB21BB9E38F9BB2002B62D023689A6809
:1026080012F0020FD7D0E28E92B2002AD3D0002F58
:10261800D1D0226B1288DA60236B02332363E38EF6
:102628009BB2013B9BB2E3860027C4E7012384F8F1
:102638005130002384F85030032063E023689A68FF
:1026480012F0010F0ED0E28F92B25AB1DA68A36B82
:102658001A70A36B0133A363E38F9BB2013B9BB258
:10266800E3870127FEF720FE831BAB4202D3B5F1B7
:10267800FF3F1ED1EDB1E38E9BB213B9E38F9BB23E
:10268800FBB123689A6812F0020FD7D0E28E92B29B
:10269800002AD3D0002FD1D0226B12781A73236B63
:1026A80001332363E38E9BB2013B9BB2E386002791
:1026B800C4E7012384F85130002384F85030032004
:1026C80020E0324629462046FFF73AFD90B9A36834
:1026D80033B901932368DA6801929B680193019BDF
:1026E800012384F85130002384F85030636D4BB1D6
:1026F800012007E020236365002384F8503001207F
:1027080000E0022003B0BDE8F0830220FAE70220CF
:10271800F8E70120F6E70120F4E70120F2E70220BC
:10272800F0E72DE9F04383B090F85160F6B2012E3E
:1027380040F0B4800446894690461D464368B3F588
:10274800827F01D1836893B3FEF7AEFD0746B9F1E6
:10275800000F00F0A480B8F1000F00F0A08094F8FA
:102768005030012B00F09F80012384F8503004235F
:1027780084F8513000236365C4F83890A4F83C808D
:10278800A4F83E802363A386E38623646364A36876
:10279800B3F5004F15D023681A6812F0400F03D123
:1027A8001A6842F040021A60E368F3B143E0042378
:1027B80080F85130009513460A46FFF788FE064612
:1027C8006DE02268136823F04003136022681368E1
:1027D80023F480431360DEE7FEF766FDC01BA842C2
:1027E80002D3B5F1FF3F15D1A5B1E38F9BB2002B02
:1027F80042D023689A6812F0010FEDD0A26B1B7BC0
:102808001370A36B0133A363E38F9BB2013B9BB2AD
:10281800E387EAE7012384F85130002384F8503035
:1028280003263CE0FEF740FDC01BA84202D3B5F1E9
:10283800FF3F19D1C5B1E38F9BB2EBB123689A680A
:1028480012F0010FEED0DA68A36B1A80A36B023383
:10285800A363B4F83EC01FFA8CFC0CF1FF3C1FFACE
:102868008CFCA4F83EC0E6E7012384F8513000232D
:1028780084F85030032612E03A4629462046FFF7EE
:102888009FFC08B120236365012384F8513000239D
:1028980084F85030636D13B9002600E002263046F4
:1028A80003B0BDE8F0830226F9E790F851007047BD
:1028B80010B4036A046A24F001040462846924F0F1
:1028C800F00C4CEA021223F00A030B438261036204
:1028D80010BC704710B4036A046A24F01004046240
:1028E800846924F4704C4CEA023223F0A00343EAD2
:1028F80001138261036210BC7047836823F0700380
:102908000B4343F0070383607047000090F83D30A5
:10291800DBB2012B37D1022380F83D300268D3683F
:1029280043F00103D3600368194A934220D0B3F1FE
:10293800804F1DD0A2F57C42934219D002F58062E7
:10294800934215D002F58062934211D002F5784285
:1029580093420DD002F57052934209D0A2F59432F9
:10296800934205D01A6842F001021A6000207047AD
:102978009A6802F00702062A07D01A6842F0010294
:102988001A6000207047012070470020704700BF80
:1029980000000140704770477047704770B50446A3
:1029A8000368DE681D6915F0020F10D016F0020FDB
:1029B8000DD06FF002021A610123037703689B6947
:1029C80013F0030F5ED0FFF7E6FF0023237715F01F
:1029D800040F12D016F0040F0FD023686FF0040212
:1029E8001A610223237723689B6913F4407F4FD031
:1029F8002046FFF7D0FF0023237715F0080F12D0E9
:102A080016F0080F0FD023686FF008021A6104232C
:102A180023772368DB6913F0030F40D02046FFF7C4
:102A2800BAFF0023237715F0100F12D016F0100FFD
:102A38000FD023686FF010021A61082323772368E8
:102A4800DB6913F4407F31D02046FFF7A4FF002351
:102A5800237715F0010F02D016F0010F2DD115F0D4
:102A6800800F02D016F0800F2FD115F0400F02D042
:102A780016F0400F31D115F0200F02D016F0200FBC
:102A880033D170BDFFF786FF2046FFF785FF9CE72F
:102A98002046FFF77FFF2046FFF77EFFABE7204683
:102AA800FFF778FF2046FFF777FFBAE72046FFF7E2
:102AB80071FF2046FFF770FFC9E723686FF0010236
:102AC8001A612046FEF72EF8C9E723686FF08002E6
:102AD8001A61204600F07DF9C7E723686FF04002CD
:102AE8001A612046FFF759FFC5E723686FF02002F7
:102AF8001A61204600F06CF9C3E700000368344A05
:102B0800904212D0B0F1804F0FD0A2F57C42904293
:102B18000BD002F58062904207D002F580629042A5
:102B280003D002F57842904203D123F070034A683B
:102B38001343274A90422AD0B0F1804F27D0A2F5FC
:102B48007C42904223D002F5806290421FD002F569
:102B5800806290421BD002F57842904217D002F56D
:102B68007052904213D002F5806290420FD002F565
:102B7800806290420BD0A2F59832904207D002F5BD
:102B88008062904203D002F58062904203D123F420
:102B98004073CA68134323F080034A6913430360F0
:102BA8008B68C3620B688362094B984203D003F5B4
:102BB8008063984201D10B69036301234361036970
:102BC80013F0010F03D0036923F001030361704779
:102BD8000000014040B310B5044690F83D30F3B111
:102BE800022384F83D30214651F8040BFFF786FF95
:102BF800012384F8463084F83E3084F83F3084F866
:102C0800403084F8413084F8423084F8433084F806
:102C1800443084F8453084F83D30002010BD80F8F9
:102C28003C30FEF7FDF8DBE70120704710B48468FC
:102C380024F47F4C42EA03220A4342EA0C028260EF
:102C480010BC704790F83C30012B78D010B5044682
:102C5800012380F83C30022380F83D3002689368F5
:102C680023F47F4323F0770393600B68602B4CD0E9
:102C780029D8402B54D00CD9502B22D1CA68496886
:102C88000068FFF715FE50212068FFF736FE002088
:102C980005E0202B0DD009D9302B0AD001200123C3
:102CA80084F83D30002384F83C3010BD0BB1102B64
:102CB80005D119462068FFF720FE0020EFE7012024
:102CC800EDE70120EBE7B3F5805F34D0B3F5005FA3
:102CD8000CD1CB684A6889680068FFF7A7FF2268AB
:102CE800936843F4804393600020D8E7702B24D185
:102CF800CB684A6889680068FFF798FF226893687C
:102D080043F0770393600020C9E7CA684968006800
:102D1800FFF7E0FD60212068FFF7EFFD0020BEE728
:102D2800CA6849680068FFF7C3FD40212068FFF7BB
:102D3800E4FD0020B3E70020B1E70120AFE702205F
:102D48007047000090F83C30012B3CD010B40123B0
:102D580080F83C30022380F83D3003685A689C684C
:102D680022F0700C0A6842EA0C025A600368174A9B
:102D780093421AD0B3F1804F17D0A2F57C42934208
:102D880013D002F5806293420FD002F5806293421D
:102D98000BD002F57842934207D002F57052934265
:102DA80003D0A2F59432934204D124F080044A68F7
:102DB80014439C60012380F83D30002380F83C30A8
:102DC800184610BC70470220704700BF0000014041
:102DD80070477047026802F10C0353E8003F23F480
:102DE80090730C3242E800310029F3D1026802F1F5
:102DF800140353E8003F23F00103143242E8003182
:102E08000029F3D1036B012B05D0202380F8423031
:102E1800002303637047026802F10C0353E8003F84
:102E280023F010030C3242E800310029F3D1ECE71B
:102E380090F84130DBB2212B01D002207047836823
:102E4800B3F5805F17D0036A5A1C02621A780368C8
:102E58005A60C38C9BB2013B9BB2C3844BB90268D6
:102E6800D36823F08003D3600268D36843F040033B
:102E7800D360002070470369002BE4D1036A1B88E4
:102E88000268C3F308035360036A02330362E0E78E
:102E980038B504460268136923F44053C1680B43EC
:102EA800136183680269134342691343C2691A4371
:102EB8000168CB6823F4164323F00C031343CB605B
:102EC8000268536923F4407381690B4353610368B3
:102ED800314A934206D002F58062934202D0FFF74E
:102EE800A5F801E0FFF7B2F8E369B3F5004F29D080
:102EF8000021031849411B1841F10001C90041EAAA
:102F08005371DB00181863684FEA83024FEA937322
:102F180041F10001FDF716FB204DA5FB00325109D8
:102F2800642303FB11031B013233A5FB03235B0955
:102F380003F0F00202EB011203F00F0321681344BF
:102F48008B6038BD0023021843EB0301121841F1CE
:102F58000001C90041EA5271D200101841F1000184
:102F6800626892185B41FDF7EDFA0C4DA5FB003243
:102F78005109642303FB1103DB003233A5FB032350
:102F88005B095A0002F4F87202EB011203F007031E
:102F9800216813448B60D4E7001001401F85EB5172
:102FA80060B310B5044690F8413013B3242384F875
:102FB80041302268D36823F40053D3602046FFF7DA
:102FC80067FF2268136923F49043136122685369E9
:102FD80023F02A0353612268D36843F40053D36073
:102FE80000206064202384F8413084F84230606314
:102FF80010BD80F84030FDF74DFFD7E7012070473E
:10300800704708B50168CA6822F04002CA602022E9
:1030180080F84120FFF7F4FF002008BD7047704793
:1030280008B5806B0023C385C384FFF7F8FF08BD8C
:10303800704790F84230DBB2222B69D18368B3F530
:10304800805F4FD0826AB3F5805F04D0002B56D1E1
:103058000369002B53D103685B681370836A0133DB
:103068008362C38D9BB2013B9BB2C385002B51D1B8
:1030780000B583B00268D36823F02003D3600268E8
:10308800D36823F48073D3600268536923F0010383
:103098005361202380F8423000234363036B012BE4
:1030A80033D100230363026802F10C0353E8003FA5
:1030B80023F010030C3242E800310029F3D10368F1
:1030C8001A6812F0100F06D0002201921A680192B5
:1030D8005B680193019B818DFFF7AAFF002003B075
:1030E8005DF804FB0269002AACD1826A03685B6858
:1030F800C3F308031380836A02338362B1E703686A
:103108005B6803F07F031370A8E7FFF787FFE5E725
:10311800022070470020704730B583B0044602682B
:103128001368D068516913F00F0505D113F0200F0B
:1031380002D010F0200F19D12DB111F0010119D1D1
:1031480010F4907F16D1216B01297DD013F0800FE8
:1031580003D010F0800F40F0198113F0400F03D016
:1031680010F0400F40F0168103B030BD2046FFF745
:1031780060FFF9E713F0010F06D010F4807F03D049
:10318800626C42F00102626413F0040F04D019B1BA
:10319800626C42F00202626413F0020F04D019B1AB
:1031A800626C42F00402626413F0080F07D010F05A
:1031B800200F00D119B1626C42F008026264626C9F
:1031C800002AD1D013F0200F02D010F0200F29D1FF
:1031D80023685B6903F04003626C12F0080F00D1AA
:1031E80063B32046FFF7F6FD23685B6913F0400FD1
:1031F80020D0226802F1140353E8003F23F0400373
:10320800143242E800310029F3D1E36B73B1634A09
:103218001A65E06BFEF70CFA0028A5D0E06B036D89
:103228009847A1E72046FFF704FFD1E72046FFF7BC
:10323800F6FE99E72046FFF7F2FE95E72046FFF7EE
:10324800EEFE002363648FE713F0100F3FF47EAFA8
:1032580010F0100F3FF47AAF002301931368019325
:1032680053680193019B536913F0400F52D0E26BEE
:1032780013685B689BB2002B3FF476AFA18D99422F
:103288007FF672AFE385D369B3F5807F37D02268C4
:1032980002F10C0353E8003F23F480730C3242E838
:1032A80000310029F3D1226802F1140353E8003FEA
:1032B80023F00103143242E800310029F3D12268D7
:1032C80002F1140353E8003F23F04003143242E8AC
:1032D80000310029F3D1202384F8423000232363EE
:1032E800226802F10C0353E8003F23F010030C326C
:1032F80042E800310029F3D1E06BFEF74FF90223D1
:103308006363A18DE38D9BB2C91A89B22046FFF78A
:103318008FFE29E7A18DE38D9BB2C91A89B2E38D8F
:103328009BB2002B3FF420AF00293FF41DAF226869
:1033380002F10C0353E8003F23F490730C3242E887
:1033480000300028F3D1226802F1140353E8003F4B
:1033580023F00103143242E800300028F3D120237F
:1033680084F8423000232363226802F10C0353E8F7
:10337800003F23F010030C3242E800300028F3D15C
:10338800022363632046FFF753FEEDE62046FFF76E
:103398004FFDE9E62046FFF734FEE5E62930000850
:1033A80070B50D4E0D4D761BB61006D0002455F89D
:1033B800043B01349847A642F9D1094E094D761BC2
:1033C80000F0D4F8B61006D0002455F8043B0134B8
:1033D8009847A642F9D170BDB8350008B83500083D
:1033E800C0350008B8350008830730B548D0541EEA
:1033F800002A3FD0CAB2034601E0013C3AD303F8A1
:10340800012B9D07F9D1032C2DD9CDB245EA05250D
:103418000F2C45EA054536D9A4F1100222F00F0C0D
:1034280003F1200EE6444FEA121C03F1100242E9B0
:10343800045542E9025510327245F8D10CF10102E7
:1034480014F00C0F03EB021204F00F0C13D0ACF1C4
:10345800040323F003030433134442F8045B934248
:10346800FBD10CF003042CB1CAB21C4403F8012BA5
:103478009C42FBD130BD64461346002CF4D1F9E7D9
:1034880003461446BFE71A46A446E0E7024B13B1C9
:10349800024800F005B8704700000000B534000885
:1034A800002301461A46184600F01AB838B5084BEA
:1034B800084D5B1B9C1007D0043B1D44013C55F88C
:1034C80004399847002CF9D1BDE8384000F054B8C9
:1034D800C4350008C0350008704700BF704700BFFA
:1034E8002DE9F047DFF87CA00646DAF80000984698
:1034F8000F469146FFF7F0FF1B4B1B68D3F8484176
:1035080024B365681F2D26DC5EB96B1C0235DAF81A
:103518000000636044F82570FFF7E0FF0020BDE875
:10352800F08704EB85010123C1F88890D4F888213D
:10353800AB401A43022EC4F88821C1F80881E4D1AF
:10354800D4F88C211343C4F88C31DEE703F5A67454
:10355800C3F84841D5E7DAF80000FFF7BFFF4FF09E
:10356800FF30DCE740040020AC350008F8B500BFA8
:10357800F8BC08BC9E467047F8B500BFF8BC08BC4C
:043588009E467047A4
:10358C000000000000000000010203040607080907
:10359C0000000000010203040006101600061016BD
:0435AC0018000020E3
:0835B000CCCFFF7F01000000F9
:0835B80095340008AD01000884
:0435C0008901000875
:1035C4000024F400E7416B3A58A08B3A0100000054
:1035D40010000000000000000000000004030020B0
:1035E4006C030020D4030020000000000000000051
:1035F40000000000000000000000000000000000C7
:1036040000000000000000000000000000000000B6
:1036140000000000000000000000000000000000A6
:103624000000000000000000000000000000000096
:103634000000000000000000000000000000000086
:103644000000000000000000000000000000000076
:103654000000000000000000000000000000000066
:103664000000000000000000000000000000000056
:103674000000000000000000000000000000000046
:1036840001000000000000000E33CDAB34126DE6E3
:10369400ECDE05000B00000000000000000000004C
:1036A4000000000000000000000000000000000016
:1036B4000000000000000000000000000000000006
:1036C40000000000000000000000000000000000F6
:1036D40000000000000000000000000000000000E6
:043A04004C0600204C
:0400000508001015CA
:00000001FF
