:020000040800F2
:100000000000022021230008011F0008031F000830
:10001000051F0008071F0008091F00080000000056
:100020000000000000000000000000000B1F00089E
:100030000D1F0008000000000F1F0008111F00081E
:100040007123000871230008712300087123000840
:100050007123000871230008712300087123000830
:100060007123000871230008712300087123000820
:10007000191F00087123000871230008712300086C
:100080007123000871230008712300087123000800
:10009000291F00087123000871230008712300083C
:1000A00071230008391F000871230008712300081C
:1000B000491F0008712300087123000871230008FC
:1000C000712300087123000871230008E52200084D
:1000D000712300087123000871230008F52200082D
:1000E00071230008712300087123000871230008A0
:1000F0007123000871230008712300087123000890
:10010000712300087123000871230008712300087F
:10011000712300087123000871230008712300086F
:10012000712300087123000871230008712300085F
:10013000712300087123000871230008712300084F
:100140000D230008712300087123000871230008A3
:10015000712300087123000871230008712300082F
:10016000712300087123000871230008712300081F
:1001700071230008712300087123000800000000AB
:0801800071230008712300083F
:1001880010B5054C237833B9044B13B10448AFF3C9
:1001980000800123237010BD7C04002000000000B3
:1001A8005856000808B5034B1BB103490348AFF381
:1001B800008008BD00000000800400205856000898
:1001C80070B54FF0FF0C4CF4E06C1CEA11541DBFE5
:1001D8001CEA135594EA0C0F95EA0C0F00F0DEF8B0
:1001E8002C4481EA030621EA4C5123EA4C5350EA95
:1001F800013518BF52EA033541F4801143F48013E6
:1002080038D0A0FB02CE4FF00005E1FB02E506F076
:100218000042E0FB03E54FF00006E1FB03569CF0CB
:10022800000F18BF4EF0010EA4F1FF04B6F5007FD1
:1002380064F5407404D25FEA4E0E6D4146EB060643
:1002480042EAC62141EA55514FEAC52040EA5E50CC
:100258004FEACE2EB4F1FD0C88BFBCF5E06F1ED876
:10026800BEF1004F08BF5FEA500E50F1000041EBAD
:10027800045170BD06F0004646EA010140EA02005A
:1002880081EA0301B4EB5C04C2BFD4EB0C0541EA7C
:10029800045170BD41F480114FF0000E013C00F391
:1002A800AB8014F1360FDEBF002001F0004170BDB5
:1002B800C4F10004203C35DA0C341BDC04F11404CE
:1002C800C4F1200500FA05F320FA04F001FA05F25A
:1002D80040EA020001F0004221F0004110EBD37027
:1002E80021FA04F642EB06015EEA430E08BF20EA53
:1002F800D37070BDC4F10C04C4F1200500FA04F3F6
:1003080020FA05F001FA04F240EA020001F0004187
:1003180010EBD37041F100015EEA430E08BF20EAFA
:10032800D37070BDC4F1200500FA05F24EEA020E42
:1003380020FA04F301FA05F243EA020321FA04F071
:1003480001F0004121FA04F220EA020000EBD37028
:100358005EEA430E08BF20EAD37070BD94F0000F28
:100368000FD101F00046400041EB010111F4801F5C
:1003780008BF013CF7D041EA060195F0000F18BF0D
:10038800704703F00046520043EB030313F4801F49
:1003980008BF013DF7D043EA0603704794EA0C0F03
:1003A8000CEA135518BF95EA0C0F0CD050EA410619
:1003B80018BF52EA4306D1D181EA030101F0004196
:1003C8004FF0000070BD50EA410606BF10461946BE
:1003D80052EA430619D094EA0C0F02D150EA0136CA
:1003E80013D195EA0C0F05D152EA03361CBF10460B
:1003F80019460AD181EA030101F0004141F0FE41AA
:1004080041F470014FF0000070BD41F0FE4141F42D
:10041800780170BD81F0004102E000BF83F0004325
:1004280030B54FEA41044FEA430594EA050F08BF87
:1004380090EA020F1FBF54EA000C55EA020C7FEA4B
:10044800645C7FEA655C00F0E2804FEA5454D4EBC8
:100458005555B8BF6D420CDD2C4480EA020281EA92
:10046800030382EA000083EA010180EA020281EACA
:100478000303362D88BF30BD11F0004F4FEA01311C
:100488004FF4801C4CEA113102D0404261EB41012B
:1004980013F0004F4FEA03334CEA133302D05242B1
:1004A80063EB430394EA050F00F0A780A4F101046D
:1004B800D5F1200E0DDB02FA0EFC22FA05F28018A7
:1004C80041F1000103FA0EF2801843FA05F359418D
:1004D8000EE0A5F120050EF1200E012A03FA0EFC0C
:1004E80028BF4CF0020C43FA05F3C01851EBE37136
:1004F80001F0004507D54FF0000EDCF1000C7EEB53
:1005080000006EEB0101B1F5801F1BD3B1F5001F90
:100518000CD349085FEA30004FEA3C0C04F10104AF
:100528004FEA445212F5800F80F09A80BCF1004FD8
:1005380008BF5FEA500C50F1000041EB045141EA5A
:10054800050130BD5FEA4C0C404141EB0101013C23
:1005580028BFB1F5801FE9D291F0000F04BF014612
:100568000020B1FA81F308BF2033A3F10B03B3F1E4
:1005780020020CDA0C3208DD02F1140CC2F10C0274
:1005880001FA0CF021FA02F10CE002F11402D8BFD2
:10059800C2F1200C01FA02F120FA0CFCDCBF41EA9E
:1005A8000C019040E41AA2BF01EB0451294330BD6D
:1005B8006FEA04041F3C1CDA0C340EDC04F114044A
:1005C800C4F1200220FA04F001FA02F340EA030021
:1005D80021FA04F345EA030130BDC4F10C04C4F167
:1005E800200220FA02F001FA04F340EA0300294647
:1005F80030BD21FA04F0294630BD94F0000F83F491
:10060800801306BF81F480110134013D4EE77FEA73
:10061800645C18BF7FEA655C29D094EA050F08BFBF
:1006280090EA020F05D054EA000C04BF19461046A0
:1006380030BD91EA030F1EBF0021002030BD5FEAE4
:10064800545C05D14000494128BF41F0004130BD0C
:1006580014F580043CBF01F5801130BD01F0004560
:1006680045F0FE4141F470014FF0000030BD7FEAD3
:10067800645C1ABF194610467FEA655C1CBF0B46CE
:10068800024650EA013406BF52EA033591EA030FE5
:1006980041F4002130BD00BF90F0000F04BF0021DD
:1006A800704730B54FF4806404F132044FF0000510
:1006B8004FF0000150E700BF90F0000F04BF002189
:1006C800704730B54FF4806404F1320410F00045EF
:1006D80048BF40424FF000013EE700BF42004FEAEA
:1006E800E2014FEA31014FEA02701FBF12F07F4367
:1006F80093F07F4F81F06051704732F07F4208BF1E
:10070800704793F07F4F04BF41F40021704730B524
:100718004FF4607401F0004521F000411CE700BF70
:1007280050EA010208BF704730B54FF000050AE0F3
:1007380050EA010208BF704730B511F0004502D5F4
:10074800404261EB41014FF4806404F132045FEAF6
:10075800915C3FF4D8AE4FF003025FEADC0C18BF9F
:1007680003325FEADC0C18BF033202EBDC02C2F191
:10077800200300FA03FC20FA02F001FA03FE40EA23
:100788000E0021FA02F11444BDE600BF4FF0FF3C11
:1007980006E000BF4FF0010C02E000BF4FF0010C73
:1007A8004DF804CD4FEA410C7FEA6C5C4FEA430CEC
:1007B80018BF7FEA6C5C1BD001B050EA410C0CBF3B
:1007C80052EA430C91EA030F02BF90EA020F00209D
:1007D800704710F1000F91EA030F58BF994208BF04
:1007E80090422CBFD8176FEAE37040F001007047C1
:1007F8004FEA410C7FEA6C5C02D150EA013C07D118
:100808004FEA430C7FEA6C5CD6D152EA033CD3D062
:100818005DF8040B704700BF8446104662468C465C
:100828001946634600E000BF01B5FFF7B7FF00288F
:1008380048BF10F1000F01BD4DF808EDFFF7F4FFB8
:100848000CBF012000205DF808FB00BF4DF808ED43
:10085800FFF7EAFF34BF012000205DF808FB00BF66
:100868004DF808EDFFF7E0FF94BF012000205DF888
:1008780008FB00BF4DF808EDFFF7CEFF94BF01203D
:1008880000205DF808FB00BF4DF808EDFFF7C4FF36
:1008980034BF012000205DF808FB00BF4FEA410289
:1008A800B2F1E04324BFB3F5001CDCF1FE5C0DD9C6
:1008B80001F0004C4FEAC0024CEA5070B2F1004F10
:1008C80040EB830008BF20F00100704711F0804F13
:1008D80021D113F13872BCBF01F00040704741F4D8
:1008E80080114FEA5252C2F11802C2F1200C10FADC
:1008F8000CF320FA02F018BF40F001004FEAC123C0
:100908004FEAD32303FA0CFC40EA0C0023FA02F363
:100918004FEA4303CCE77FEA625307D150EA013339
:100928001EBF4FF0FE4040F44000704701F0004009
:1009380040F0FE4040F40000704700BF80F00040E7
:1009480002E000BF81F0004142001FBF5FEA41039F
:1009580092EA030F7FEA226C7FEA236C6AD04FEA9F
:100968001262D2EB1363C1BFD218414048404140E4
:10097800B8BF5B42192B88BF704710F0004F40F496
:10098800000020F07F4018BF404211F0004F41F4B2
:10099800000121F07F4118BF494292EA030F3FD07E
:1009A800A2F1010241FA03FC10EB0C00C3F1200391
:1009B80001FA03F100F0004302D5494260EB400020
:1009C800B0F5000F13D3B0F1807F06D340084FEA8B
:1009D800310102F10102FE2A51D2B1F1004F40EB80
:1009E800C25008BF20F0010040EA030070474900E8
:1009F80040EB0000013A28BFB0F5000FEDD2B0FA85
:100A080080FCACF1080CB2EB0C0200FA0CF0AABFA7
:100A180000EBC25052421843BCBFD0401843704745
:100A280092F0000F81F4000106BF80F4000001324B
:100A3800013BB5E74FEA41037FEA226C18BF7FEA22
:100A4800236C21D092EA030F04D092F0000F08BF64
:100A58000846704790EA010F1CBF0020704712F04B
:100A68007F4F04D1400028BF40F00040704712F18A
:100A780000723CBF00F50000704700F0004343F0EF
:100A8800FE4040F4000070477FEA226216BF084625
:100A98007FEA23630146420206BF5FEA412390EAE8
:100AA800010F40F4800070474FF0000304E000BFDE
:100AB80010F0004348BF40425FEA000C08BF70478F
:100AC80043F0964301464FF000001CE050EA010253
:100AD80008BF70474FF000030AE000BF50EA010268
:100AE80008BF704711F0004302D5404261EB410155
:100AF8005FEA010C02BF84460146002043F0B6437A
:100B080008BFA3F18053A3F50003BCFA8CF2083A9E
:100B1800A3EBC25310DB01FA02FC634400FA02FCA7
:100B2800C2F12002BCF1004F20FA02F243EB0200AE
:100B380008BF20F00100704702F1200201FA02FC10
:100B4800C2F1200250EA4C0021FA02F243EB020003
:100B580008BF20EADC7070474FF0FF0C1CEAD05247
:100B68001EBF1CEAD15392EA0C0F93EA0C0F6FD008
:100B78001A4480EA010C400218BF5FEA41211ED0E6
:100B88004FF0006343EA501043EA5111A0FB0131D2
:100B98000CF00040B1F5000F3EBF490041EAD371A7
:100BA8005B0040EA010062F17F02FD2A1DD8B3F123
:100BB800004F40EBC25008BF20F00100704790F092
:100BC800000F0CF0004C08BF49024CEA502040EAE4
:100BD80051207F3AC2BFD2F1FF0340EAC2507047AA
:100BE80040F400004FF00003013A5DDC12F1190FE8
:100BF800DCBF00F000407047C2F10002410021FA5A
:100C080002F1C2F1200200FA02FC5FEA310040F171
:100C1800000053EA4C0308BF20EADC70704792F0EA
:100C2800000F00F0004C02BF400010F4000F013A22
:100C3800F9D040EA0C0093F0000F01F0004C02BF1D
:100C4800490011F4000F013BF9D041EA0C018FE78C
:100C58000CEAD15392EA0C0F18BF93EA0C0F0AD092
:100C680030F0004C18BF31F0004CD8D180EA0100B8
:100C780000F00040704790F0000F17BF90F0004F51
:100C8800084691F0000F91F0004F14D092EA0C0F33
:100C980001D142020FD193EA0C0F03D14B0218BFC6
:100CA800084608D180EA010000F0004040F0FE400C
:100CB80040F40000704740F0FE4040F440007047A8
:100CC8004FF0FF0C1CEAD0521EBF1CEAD15392EA27
:100CD8000C0F93EA0C0F69D0A2EB030280EA010C17
:100CE80049024FEA402037D04FF0805343EA1111B0
:100CF80043EA10130CF000408B4238BF5B0042F10E
:100D08007D024FF4000C8B4224BF5B1A40EA0C00B2
:100D1800B3EB510F24BFA3EB510340EA5C00B3EBE4
:100D2800910F24BFA3EB910340EA9C00B3EBD10FD2
:100D380024BFA3EBD10340EADC001B0118BF5FEA24
:100D48001C1CE0D1FD2A3FF650AF8B4240EBC2504D
:100D580008BF20F0010070470CF0004C4CEA50200E
:100D68007F32C2BFD2F1FF0340EAC250704740F45D
:100D780000004FF00003013A37E792F0000F00F04F
:100D8800004C02BF400010F4000F013AF9D040EACD
:100D98000C0093F0000F01F0004C02BF490011F461
:100DA800000F013BF9D041EA0C0195E70CEAD15359
:100DB80092EA0C0F08D142027FF47DAF93EA0C0F40
:100DC8007FF470AF084676E793EA0C0F04D14B0224
:100DD8003FF44CAF08466EE730F0004C18BF31F0D6
:100DE800004CCAD130F000427FF45CAF31F00043D0
:100DF8007FF43CAF5FE700BF4FF0FF3C06E000BF69
:100E08004FF0010C02E000BF4FF0010C4DF804CD8B
:100E18004FEA40024FEA41037FEA226C18BF7FEA9B
:100E2800236C11D001B052EA530C18BF90EA010F9D
:100E380058BFB2EB030088BFC81738BF6FEAE1702C
:100E480018BF40F0010070477FEA226C02D15FEAC8
:100E5800402C05D17FEA236CE4D15FEA412CE1D034
:100E68005DF8040B704700BF844608466146FFE7FB
:100E78000FB5FFF7C9FF002848BF10F1000F0FBDDD
:100E88004DF808EDFFF7F4FF0CBF012000205DF8D6
:100E980008FB00BF4DF808EDFFF7EAFF34BF01205B
:100EA80000205DF808FB00BF4DF808EDFFF7E0FFF4
:100EB80094BF012000205DF808FB00BF4DF808ED45
:100EC800FFF7D2FF94BF012000205DF808FB00BFA8
:100ED8004DF808EDFFF7C8FF34BF012000205DF88A
:100EE80008FB00BF4FEA4002B2F1FE4F0FD34FF0AC
:100EF8009E03B3EB12620DD94FEA002343F000437F
:100F080010F0004F23FA02F018BF404270474FF02C
:100F18000000704712F1610F01D1420205D110F0B3
:100F2800004008BF6FF0004070474FF00000704766
:100F380053B94AB9002908BF00281CBF4FF0FF3138
:100F48004FF0FF3000F074B9ADF1080C6DE904CE34
:100F580000F006F8DDF804E0DDE9022304B070478C
:100F68002DE9F047089E0D4604468846002B4DD1D2
:100F78008A42944668D9B2FA82F252B101FA02F36F
:100F8800C2F1200120FA01F10CFA02FC41EA03083F
:100F980094404FEA1C45210CB8FBF5FE1FFA8CF76C
:100FA80005FB1E8341EA03430EFB07F199420BD967
:100FB8001CEB03030EF1FF3080F01E81994240F2D2
:100FC8001B81AEF1020E63445B1AA4B2B3FBF5F0C9
:100FD80005FB103344EA034400FB07F7A7420AD98C
:100FE8001CEB040400F1FF3380F00881A74240F2B3
:100FF800058164440238E41B40EA0E4000211EB11A
:10100800D4400023C6E90043BDE8F0878B4208D9E5
:10101800002E00F0EE800021C6E900050846BDE874
:10102800F087B3FA83F100294AD1AB4202D3824256
:1010380000F2F980841A65EB030301209846002E1C
:10104800E2D0C6E90048DFE702B9FFDEB2FA82F271
:10105800002A40F09180A1EB0C054FEA1C471FFACB
:101068008CFE0121B5FBF7F307FB1350250C45EA6D
:1010780000450EFB03F0A84208D91CEB050503F157
:10108800FF3802D2A84200F2CB8043462D1AA4B200
:10109800B5FBF7F007FB105544EA05440EFB00FECC
:1010A800A64508D91CEB040400F1FF3502D2A64579
:1010B80000F2BB802846A4EB0E0440EA03409EE7FA
:1010C800C1F120078B4022FA07FC4CEA030C20FAF6
:1010D80007F405FA01F31C43FD404FEA1C4900FAE6
:1010E80001F3B5FBF9F8200C1FFA8CFE09FB185523
:1010F80040EA054508FB0EF0A84202FA01F20BD9B6
:101108001CEB050508F1FF3A80F08880A84240F200
:101118008580A8F1020865442D1AA4B2B5FBF9F040
:1011280009FB105544EA054500FB0EFEAE4508D9FB
:101138001CEB050500F1FF346CD2AE456AD90238C4
:10114800654440EA0840A0FB0294A5EB0E05A542C1
:10115800C846A64656D353D05EB1B3EB080265EB3A
:101168000E0505FA07F722FA01F3CD401F43C6E939
:1011780000750021BDE8F087C2F1200320FA03F1D1
:101188000CFA02FC25FA03F395400D434FEA1C477D
:101198001FFA8CFEB3FBF7F107FB11302B0C43EA67
:1011A800004301FB0EF0984204FA02F408D91CEB44
:1011B800030301F1FF382FD298422DD90239634435
:1011C8001B1AADB2B3FBF7F007FB103345EA034532
:1011D80000FB0EF3AB4208D91CEB050500F1FF3804
:1011E80016D2AB4214D902386544ED1A40EA0141DF
:1011F80038E73146304607E78646E5E61846FAE618
:101208004B45A9D2B9EB020864EB0C0E0138A3E7F1
:101218004046EAE7204694E74146D1E7D0467BE7D7
:10122800023B654432E7084609E76444023842E76E
:10123800704700BF10B58AB00122089200230693B8
:1012480007920093019302930393059304930E4C22
:101258006946204601F0CCFC204601F067FD0221DA
:10126800204601F0BBFE0E2309930593074C6946FF
:10127800204601F0BDFC204601F058FD0221204621
:1012880001F0ACFE0AB010BDF004002018050020E3
:1012980070B58AB0044601AB03AA002101F0E9FD4C
:1012A8003A4B9C4204D03A4B9C4257D00AB070BD8E
:1012B800039A40F205239A421DD0039A40F206236E
:1012C8009A42F0D19DF804209DF8053043EA0223A4
:1012D800304A13809DF806209DF8073043EA022320
:1012E8002D4A13809DF808209DF8093043EA02230F
:1012F8002A4A1380D7E79DF805C04FEA0C2C0FFA4D
:101308008CFC9DF806009DF807209DF808301E0902
:1013180046EA02161D0205F470659DF809301D4362
:1013280010231F4A1F494CEA000001F0F7F81E4B32
:1013380018600C231D4A1E49304601F0EFF81D4B7A
:1013480018600C231C4A1D49284601F0E7F81C4B7D
:1013580018601C4A136801331360AEE7039A40F221
:1013680006239A42A2D19DF804209DF8053043EA4D
:1013780002231BB2144A13809DF806209DF80730FB
:1013880043EA02231BB2114A13808FE7F0040020BE
:10139800180500209C0400209E040020A0040020C2
:1013A800C3F54840C3F548C0A80400200000F04138
:1013B8000000F0C1AC04002000002041000020C162
:1013C800B0040020A4040020980400209A040020FF
:1013D80070B582B02D4B4FF404721A6000229A60E7
:1013E800DA60082119612A4BB3F800E01FFA8EFE73
:1013F8000EF5806E588880B200F580609C88A4B293
:1014080004F58065D9881FFA81FC0CF58061CEF35C
:101418000A0E204E06EAC0204EEA000EC5F38020D0
:101428004EEA845E40F6FE7C0CEA410C4CEA000C65
:10143800197A090301F440514CEA010C5B7A9B03C9
:1014480003F440434CEA030C134B1B781B0403F4CE
:1014580080334CEA030C0FE0D300C3F12000A3F162
:1014680020012EFA03F30CFA00F003432CFA01F1E1
:101478000B430A498B540132072AEDDD01AB074AB9
:101488000249074801F080FC02B070BDBC0400208E
:101498000000002000F83F00D4040020B40400201D
:1014A8001805002000B585B0184A40F2FF131360F4
:1014B80000239360D360082111610193029301F026
:1014C8002DFA134B1B78DBB2012B01D0002311E05E
:1014D800104A138843F307238DF8063013888DF8D4
:1014E8000730F3E703F110026A4412F80C1C0A4AA9
:1014F800D1540133072BF5DD03AB074A03490748ED
:1015080001F042FC05B05DF804FB00BFBC040020FC
:10151800D404002060070020B4040020180500202F
:1015280000B585B001F06CF9174A40F2FF1313605B
:1015380000239360D3600821116101930293134B38
:101548001B78DBB2012B01D0002311E0104BB3F95B
:10155800002093F901308DF806308DF80720F3E765
:1015680003F110026A4412F80C1C0A4AD1540133E0
:10157800072BF5DD03AB074A0349074801F004FCD4
:1015880005B05DF804FB00BFBC040020D4040020B3
:101598002E070020B4040020F004002038B50446CB
:1015A80090F84200C0B2202815D1B1B10AB9012083
:1015B80038BDA162A28500256564206813460A46E5
:1015C800011DE06B01F09EFF2268536943F0400360
:1015D80053612846ECE70220EAE70120E8E700002B
:1015E80000B583B000230193084803681A68019284
:1015F8005A680192019ADA6842F01002DA603222DF
:101608000349FFF7CBFF03B05DF804FB8806002011
:10161800DC04002010B5374A13680133136091F8D1
:1016280000C04B784CEA032CCCF30A0CA0F800C09D
:10163800ACF5806C0FFA8CFCA0F800C04A788B7867
:10164800D20842EA4312C2F30A024280A2F580623B
:1016580012B242808B78CC789B0943EA84030C79D8
:1016680043EA8423C3F30A038380A3F580631BB290
:10167800838091F804E04C794FEA5E0E4EEAC41E6E
:10168800CEF30A0EA0F806E0AEF5806E0FFA8EFED5
:10169800A0F806E04C79A40904724979C1F3011154
:1016A8004172BCF1000FB8BFCCF1000C1FFA8CFCE2
:1016B800BCF5257F17D8002AB8BF524292B2B2F5BE
:1016C800257F10D8002BB8BF5B429BB2B3F5257FAE
:1016D80009D8BEF1000FB8BFCEF1000E1FFA8EFE7A
:1016E800BEF5257F05D90023036043608360C3608E
:1016F800036110BDD8040020406880B27047000024
:1017080010B582B00023019303681A6801925B68E0
:101718000193019B104B984201D002B010BD0446C2
:10172800C36B1A68136823F001031360C36B18684E
:10173800FFF7E2FF20280AD0E36B1B6832225A60C9
:10174800E36B1A68136843F001031360E5E7034984
:101758000348FFF75FFFEFE788060020DC0400205E
:101768000000002008B503681A6812F0100F03D0B3
:10177800DB6813F0100F00D108BDFFF7C1FFFBE7CE
:1017880030B58BB000240594069407940894099406
:101798000094234B1A6B42F002021A631A6B02F090
:1017A80002020092009A01941A6B42F001021A6335
:1017B8001A6B02F001020192019A02941A6B42F02C
:1017C80008021A631A6B02F008020292029A039442
:1017D8001A6B42F004021A631A6B02F004020392B5
:1017E800039A04941A6B42F080021A631B6B03F08D
:1017F80080030493049B0B4D22464FF4E051284686
:1018080002F0E2F84FF4E05305930123069307949E
:10181800089405A9284601F0E5FF0BB030BD00BFCC
:1018280000380240001C024000B583B0002101913D
:10183800094B1A6B42F400121A631B6B03F4001372
:101848000193019B0A460C2001F01EFD0C2001F0BB
:1018580053FD03B05DF804FB0038024010B50A4C94
:1018680001224FF48051204602F0AEF801224FF4D5
:101878000061204602F0A8F801224FF4806120465A
:1018880002F0A2F810BD00BF001C024010B50A4CBF
:1018980000224FF48051204602F096F800224FF4BF
:1018A8000061204602F090F800224FF48061204643
:1018B80002F08AF810BD00BF001C024008B5044BB6
:1018C800834200D008BD00F051FD00F0BFFDF9E7EC
:1018D800F805002072B6FEE708B50A480A4B03600F
:1018E8000A4B436000238360C3604FF48062026147
:1018F800042242618361C36103F0C4FB00B908BDDF
:10190800FFF7E8FF8806002000480040A086010095
:1019180008B50E480E4B03604FF4827343600023F2
:101928008360C36002220261012242614FF40072A7
:1019380082613822C2610362436283620A23C362FE
:1019480002F05CFC00B908BDFFF7C4FFA005002049
:101958000030014000B587B000230293039304933D
:101968000593009301931448144A026040F28F6271
:101978004260836040F2E732C26003614361836181
:1019880003F09AF990B94FF48053029302A90A48D8
:1019980003F0CAF960B90023009301936946064829
:1019A80003F042FA30B907B05DF804FBFFF792FF85
:1019B800FFF790FFFFF78EFFF805002000000140B9
:1019C80000B587B000230293039304930593009313
:1019D800019314484FF08042026040F2473242605F
:1019E80083606322C2600361836103F065F990B983
:1019F8004FF48053029302A90A4803F095F960B99D
:101A08000023009301936946064803F00DFA30B9A4
:101A180007B05DF804FBFFF75DFFFFF75BFFFFF71B
:101A280059FF00BF4006002008B50D480D4B036064
:101A38000323436000238360C3604FF410220261D4
:101A48004FF400124261037643768376C3760377B8
:101A5800437701F027F800B908BDFFF73BFF00BF47
:101A6800F00400200064004008B50D480D4B0360E9
:101A78000323436000238360C3604FF41022026194
:101A88004FF400124261037643768376C376037778
:101A9800437701F007F800B908BDFFF71BFF00BF47
:101AA800180500200068004000B595B030220021DC
:101AB80008A803F00BFD00230393049305930693F2
:101AC80007930193204A116C41F080511164126C04
:101AD80002F080520192019A02931C4B1A6842F458
:101AE80080421A601B6803F480430293029B01231F
:101AF80008934FF48033099302230E934FF4800226
:101B08000F9206221092A822119212930423139383
:101B180008A801F05FFF98B90F23039302230493E9
:101B2800002305934FF4A05306934FF48053079373
:101B3800052103A802F09CF920B915B05DF804FB53
:101B4800FFF7C8FEFFF7C6FE0038024000700040ED
:101B580008B5184A936823F00303936000F076FFF2
:101B6800FFF7A2FFFFF70CFEFFF75EFEFFF7B4FEDC
:101B7800FFF7CEFEFFF7EEFEFFF722FFFFF754FF59
:101B8800FFF772FFFFF72CFDFFF754FB0A4802F03E
:101B98002FFF00F063FD094B1B78DBB2012B06D049
:101BA800064B1B78002BF6D1FFF770FEF3E7FFF723
:101BB80055FEF5E70038024040060020D404002016
:101BC80082B0002100910B4B5A6C42F480425A6457
:101BD8005A6C02F480420092009A01911A6C42F009
:101BE80080521A641B6C03F080530193019B02B06E
:101BF800704700BF0038024010B58AB00023059333
:101C0800069307930893099303683D4A934204D0C7
:101C18003C4A934234D00AB010BD3B4A13680133A2
:101C28001360012B1FD000240194384B1A6B42F02B
:101C380008021A631B6B03F008030193019B03233B
:101C480005930222069208930923099305A93048AF
:101C580001F0C8FD22462146142001F015FB14208E
:101C680001F04AFBD7E700230093284B1A6C42F097
:101C780000721A641B6C03F000730093009BD2E798
:101C880000230293214B1A6C42F080621A641B6C89
:101C980003F080630293029B1B4A136801331360AD
:101CA800012B20D000240494184B1A6B42F0020236
:101CB8001A631B6B03F002030493049B60230593D0
:101CC80002230693032308930923099305A91148BE
:101CD80001F088FD22462146402001F0D5FA402037
:101CE80001F00AFB97E700230393084B1A6C42F0B4
:101CF80000721A641B6C03F000730393039BD1E713
:101D08000064004000680040D0060020003802400F
:101D1800000C024000040240F0B589B00023039390
:101D280004930593069307930268224B9A4201D0C5
:101D380009B0F0BD0024009403F584335A6C42F4D2
:101D480080525A645A6C02F480520092009A0194AC
:101D58001A6B42F002021A631A6B02F00202019235
:101D6800019A02941A6B42F001021A631B6B03F08A
:101D780001030293029B1823039302270497032667
:101D880006960525079503A90B4801F02BFD80232E
:101D98000393049705940696079503A9074801F04D
:101DA80021FD22462146232001F06EFA232001F06E
:101DB800A3FABDE7003001400004024000000240E1
:101DC80000B583B00368194A934205D0B3F1804F38
:101DD80016D003B05DF804FB00210091144B5A6C37
:101DE80042F001025A645B6C03F001030093009B0C
:101DF8000A46192001F048FA192001F07DFAE8E7AF
:101E08000021019103F50E331A6C42F001021A64A5
:101E18001B6C03F001030193019B0A461C2001F08F
:101E280033FA1C2001F068FAD3E700BF0000014034
:101E38000038024030B589B000230393049305931A
:101E4800069307930268284B9A4201D009B030BD27
:101E580004460025019503F5F8331A6C42F48022F4
:101E68001A641A6C02F480220192019A02951A6B84
:101E780042F004021A631B6B03F004030293029BF3
:101E88004FF4406303930223049303230693072329
:101E9800079303A9154801F0A5FC1548154B0360E5
:101EA8004FF0006343608560C5604FF48063036151
:101EB800456185614FF48073C3614FF44033036219
:101EC800456201F0B9FA58B9094BE3639C630022F3
:101ED8001146272001F0D8F9272001F00DFAB5E7BF
:101EE800FFF7F8FCF0E700BF004800400008024098
:101EF8004005002028600240FEE7FEE7FEE7FEE717
:101F0800FEE770477047704708B500F0B9FD08BD97
:101F180008B5024801F078FB08BD00BF4005002065
:101F280008B5024801F078F808BD00BFF0040020A9
:101F380008B5024802F0A4FD08BD00BFF80500205E
:101F480070B582B09E4A1368013313609D4A82FBC4
:101F58000312D118DA17C2EBA112462101FB123283
:101F6800012A3FD0984981FB0321DA17C2EB6102AD
:101F780002EB82029A1A012A49D0914B1A689249B7
:101F880081FB0231D317C3EBA10303EB8303A2EB5D
:101F98004303012B3ED08A4B1A688B4981FB0231DF
:101FA800D317C3EB610303EB8303D31A012B00F0B0
:101FB800D280834B1A68844981FB0231D317C3EB63
:101FC800610303EB8303D31A012B00F0E3807F4BFB
:101FD8001B78DBB2012B00F01D817D4802F050FD1B
:101FE80002B070BD7B4AB2F900107B4A1268914278
:101FF80007D0764A01211170774A1168754A118015
:10200800B0E7002271490A7073490A60F4E7FFF7E4
:10201800DFF9B2E7714B1B68B3F5967F5CDB6F4B5A
:102028001C68B4F5967F67D0684B1B7843B96C4B36
:1020380000221A806B4B1868FEF73AFD6A4B18604D
:10204800624B1B78DBB2012B64D0604B1B78DBB290
:10205800012BA0D1654BB3F90030012B9BD1604B0C
:10206800B3F90030012B96D1614B588800B2FEF7C6
:1020780023FB4DA3D3E90023FEF7A2F804460D463F
:102088005C4E3068FEF72AFB22462B46FEF7C8F95D
:10209800FEF704FC3060FEF721FB45A3D3E90023DB
:1020A800FEF7F2FB08B1544A3260524B1868FEF74B
:1020B80015FB41A3D3E90023FEF7C8FB10B14D4B34
:1020C8004E4A1A60002100914FF07C534C4A49480F
:1020D800006800F05BFA5EE74FF07F50454B1860F0
:1020E80000210091474B4FF0824200F04FFA3B4AE3
:1020F80013680133136092E74349444B1868FEF7AD
:1021080023FC3C4B1860394B01221A801444334B92
:102118001C6089E7354BB3F90030012B95D1304B62
:10212800B3F90030002B90D100F098FA2D4B1868C5
:10213800FEF7BEFC2C4B1968FEF7A2FE002884D1DE
:102148003149324B1868FEF7FFFB2A4B1860244BC5
:1021580001221A8079E71D4B1B78DBB2012B0FD0C7
:102168001A4B1B78002B7FF424AF294B1B78012BCB
:102178007FF41FAF00F094FA254B00221A7018E77D
:10218800234B1B78002BEBD100F068FA204B01227F
:102198001A70E5E70D4B1B78DBB2012B7FF417AF04
:1021A800FFF780F913E700BF691D554D1075EF3E25
:1021B8003D0AD7A3703D00401F85EB51B81EF13F83
:1021C800E4060020EBA00EEA67666666D4040020E9
:1021D80040060020DE060020D8040020D806002093
:1021E800D6060020A404002018000020D4060020F1
:1021F800000000201400002085EB0140C3F5883F53
:10220800000048429A99993EC3F5C840A8040020A6
:10221800E00600202A4B5B7ADBB2032B2CD0294B3B
:102228001B68294981FB0321DA17C2EB61124FF4BD
:10223800967101FB1232012A30D05A4203F003038F
:1022480002F0030258BF5342012B35D0FFF768F95B
:102258001E4BB3F90030B3F5FA5F7FF7BEAE1C4BE7
:102268001B78012B7FF4B9AE1A4A1368043B13603C
:10227800174B00221A70B0E6154B1B78002BCED1F5
:10228800154A138801339BB21380462BC7D9104BCC
:1022980001221A70104B00221A80C0E7084A527AAD
:1022A800D2B2032AC9D10A4A1278012AC5D10949EA
:1022B8000A6804320A60C0E700F014FAC6E700BFF3
:1022C80000000020E4060020B5814E1BA004002079
:1022D8001C00002058070020DC06002008B5024832
:1022E80002F0BCFA08BD00BFA005002010B5044CE0
:1022F8002046FFF737FA204602F080FF10BD00BFE6
:102308008806002008B5024800F086FE08BD00BF18
:102318001805002070470000DFF834D0FFF7FAFFF7
:102328000C480D490D4A002302E0D458C450043328
:10233800C4188C42F9D30A4A0A4C002301E01360FE
:102348000432A242FBD303F09DF8FFF701FC70476B
:1023580000000220000000207C040020A85600088D
:102368007C0400207C070020FEE7000070B50022F6
:1023780010212F4801F028FB2E4992230B704FF4AF
:102388007A7301222C4801F098FF2B4802F000FBD9
:102398000328FAD04FF47A7301222849264802F01C
:1023A80098F9254802F0F4FA0428FAD0002411E03C
:1023B8004FF47A73012221491F4802F08AF91E4816
:1023C80002F0E6FA0428FAD01C4B1A781C4B1A556E
:1023D8000134E4B2052CEBD901221021144801F094
:1023E800F3FA174C63781B021BB22078154A16685B
:1023F8001843FEF75DFB3146FEF7AEFB124D286031
:10240800E3781B021BB2A0781843FEF751FB314654
:10241800FEF7A2FB686063791B021BB220791843A0
:10242800FEF746FB3146FEF797FBA86070BD00BF7C
:102438000000024009070020A0050020080700202E
:10244800F406002024000020E806002070B50022D1
:1024580001212B4801F0B8FA2A4980230B704FF468
:102468007A730122284801F028FF274802F090FAE1
:102478000328FAD0002411E04FF47A73012223498B
:10248800214802F026F9204802F082FA0428FAD0FE
:102498001E4B1A781E4B1A550134E4B2072CEBD99F
:1024A80001221146164801F08FFA194B1B780F2BA1
:1024B80000D070BD164CE3781B021BB2A078154AF9
:1024C80016681843FEF7F4FA3146FEF745FB124D3D
:1024D800286063791B021BB220791843FEF7E8FADB
:1024E8003146FEF739FB6860E3791B021BB2A0791D
:1024F8001843FEF7DDFA3146FEF72EFBA860D8E751
:102508000004024009070020A00500200807002059
:10251800F406002028000020FC060020F8B5074635
:102528000C461E461046FEF70DFA05463846FEF7DD
:10253800BFFA2946FEF710FB05460120B0400138D6
:10254800FEF7B6FA01462846FEF7BAFB2146FEF723
:10255800FBF9F8BDF8B505460F461E461046FEF7CE
:10256800F1F9044639462846FEF7ECF905460120FC
:10257800B0400138FEF79CFA01462846FEF7ECFA0F
:102588002146FEF79DFBFEF7ADFCF8BD2DE9F047AF
:1025980082B00C4616461D461023254A2549FFF7EA
:1025A800D9FF80461FFA80F90C23234A2349204685
:1025B800FFF7D0FF87B24FF0000A0C23204A51469C
:1025C8003046FFF7C7FF064684B20C231D4A514622
:1025D8002846FFF7BFFF85B20C231B4A1B490A9800
:1025E800FFF7B8FF1A4901230B6000238B60CB600B
:1025F80008230B61174A29FA03F982F8009082F838
:1026080001803B099370240A44EA0714D4701671B8
:102618002B095371C0F3072343EA05159571D0714F
:1026280001AB0D4800F0B0FB02B0BDE8F08700BF79
:10263800C3F54840C3F548C00000F0410000F0C1B0
:102648000000FA430000A04000002041000020C123
:10265800140700200C070020F004002000B583B008
:102668000C4901230B6000238B60CB6008230B61AE
:10267800094AFF23137053709370D3701371537109
:102688009371FC23D37101AB044800F07DFB03B0C8
:102698005DF804FB140700200C070020F00400205C
:1026A80000B583B00C4901230B6000238B60CB601D
:1026B80008230B61094AFF23137053709370D3707A
:1026C800137153719371FD23D37101AB044800F06A
:1026D8005BFB03B05DF804FB140700200C07002027
:1026E800F0040020F8B5384A106838490B6803EB45
:1026F80040330B6000211160354A1588B5F5006F2D
:1027080046D2344A1288B2F5C05F41D9A3F50053C6
:102718002E4A13602D4B1C68641B2F4B1C602F4ADC
:102728001368234413602E4A1668A61B2D4A1660A8
:1027380042F6E062934238DD284B1A602046FEF7E5
:10274800B7F9294B1968FEF707FA0746234B1868AB
:10275800FEF7AEF9254B1968FEF7FEF90146384633
:10276800FEF7F2F807463046FEF7A2F9204B196843
:10277800FEF7F2F901463846FEF7E6F8FEF7B2FB37
:10278800B0F5616F17DC10F5616F16DA194814E0BF
:10279800B5F5C05FBED90F4A1288B2F5006FB9D23D
:1027A80003F50053094A1360B4E7134A9342C5DAA4
:1027B8000A4B1A60C2E74FF46160104B1880084B4F
:1027C8001C60044B1D80F8BD580700205C070020E2
:1027D8009C04002030000020340700203807002027
:1027E80044070020300700202C000020400700206C
:1027F8003C070020F0F1FFFF20D1FFFF2C0700204D
:1028080070B52A4B1C882A4B1B88E41AA5B224B23F
:10281800284B1C80284A136823441360274A1288CF
:10282800AD1A2DB2264A158042F6302293422FDD8A
:10283800214B1A602046FEF73BF9224B1968FEF738
:102848008BF9FEF74FFB06461B4B1868FEF730F96D
:102858001D4B1968FEF780F9FEF744FB064428462D
:10286800FEF726F9194B1968FEF776F90546304642
:10287800FEF71EF92946FEF767F8FEF733FB42F22A
:10288800107398420ADC124B984209DA104807E0A4
:10289800104A9342CEDA084B1A60CBE742F2107026
:1028A8000D4B1880054B1C8070BD00BF2C07002005
:1028B8009E040020480700204C07002050070020F5
:1028C8005207002038000020340000205407002060
:1028D800F0D8FFFFD0D5FFFF2E07002008B50B4B1F
:1028E8001B78DBB2012B03D0094B00221A8008BDEC
:1028F800084B188800B2FEF7DBF80749FEF72CF9F9
:10290800FEF7F0FA00B2024B1880F0E7D40400207A
:1029180070070020000000209A9919BE70B5FFF7D3
:10292800DDFF2B4B1C882B4B1B88E41AA5B224B265
:10293800294B1C80294A136823441360284A1288AB
:10294800AD1A2DB2274A1580B3F5E16F31DD234B5F
:102958004FF4E1621A602046FEF7AAF8224B196884
:10296800FEF7FAF8FEF7BEFA06461C4B1868FEF7A3
:102978009FF81E4B1968FEF7EFF8FEF7B3FA064406
:102988002846FEF795F81A4B1968FEF7E5F805464C
:102998003046FEF78DF82946FDF7D6FFFEF7A2FA76
:1029A80046F2A81398420BDC124B98420ADA1148F7
:1029B80008E013F5E16FCEDA084B0F4A1A60CAE750
:1029C80046F2A81000B20D4B1880054B1C8070BD54
:1029D800700700209A040020620700206407002086
:1029E800680700206A070020400000203C00002003
:1029F8006C070020589EFFFFF8F8FFFF60070020D3
:102A080010B504460E4B18784FF47A73B3FBF0F305
:102A18000C4A1068B0FBF3F000F07CFC68B90F2C8E
:102A280001D901200AE0002221464FF0FF3000F0D2
:102A38002BFC054B1C60002000E0012010BD00BFEE
:102A480044000020200000204800002008B50B4B5F
:102A58001A6842F400721A601A6842F480621A60B6
:102A68001A6842F480721A60032000F0FBFB0F2002
:102A7800FFF7C6FFFFF7A4F8002008BD003C02409E
:102A8800034A1168034B1B780B441360704700BF5F
:102A98007407002044000020014B1868704700BFED
:102AA80074070020002800F0A18038B5044690F88B
:102AB8002030D3B12268136843F001031360FFF795
:102AC800EBFF054623685A6812F0010F10D1FFF793
:102AD800E3FF401B0A28F5D9636A43F400336362B5
:102AE800052384F82030012038BDFFF785F8E1E799
:102AF8001A6822F002021A60FFF7CEFF0546236823
:102B08005A6812F0020F0DD0FFF7C6FF401B0A28C3
:102B1800F5D9636A43F400336362052384F82030EF
:102B28000120E1E7227E012A3DD01A6822F08002C6
:102B38001A60637E012B3BD02268136823F04003A0
:102B48001360A37E012B39D02268136823F0200379
:102B58001360E37E012B37D02268136843F010031B
:102B68001360237F012B35D02268136823F00803F4
:102B78001360637F012B33D02268136823F00403AA
:102B88001360A368E268134322691343626913431D
:102B98006268013A21681343CB6100206062012317
:102BA80084F82030A0E71A6842F080021A60C0E773
:102BB8002268136843F040031360C2E72268136871
:102BC80043F020031360C4E72268136823F010035E
:102BD8001360C6E72268136843F008031360C8E768
:102BE8002268136843F004031360CAE701207047A2
:102BF80090F82030013BDBB2012B05D9436A43F43E
:102C0800802343620120704710B5474BD3F8002258
:102C180042F00102C3F80022D3F8002222F47C52C9
:102C2800C3F80022D3F80022486A42EA0022C3F817
:102C380000224A6902F01F02012000FA02F2D3F8CA
:102C48001C026FEA020C20EA0200C3F81C02CB69DE
:102C5800CBB9354BD3F80C020CEA0000C3F80C02D0
:102C68008C884869D1F80CE044EA0E44483043F8AF
:102C780030408C68088840EA04404C6904F1480EEA
:102C880003EBCE035860CB69012B1ED08B69002B58
:102C980035D12548D0F804320CEA0303C0F80432D1
:102CA8000B699BBB2048D0F814320CEA0303C0F828
:102CB80014320B6A012B30D01B4AD2F8003223F0B1
:102CC8000103C2F80032002010BD174BD3F80C02E4
:102CD8001043C3F80C028C884869D1F800E044EA34
:102CE8000E44483043F8304088894C69D1F808E0F0
:102CF80040EA0E40483403EBC4035860C6E70A486C
:102D0800D0F804321343C0F80432C9E70648D0F8B3
:102D180014321343C0F81432CBE70349D1F81C32FC
:102D28001A43C1F81C22C7E70064004070B5044686
:102D380090F82050EDB2012D06D0436A43F40023E9
:102D480043620125284670BD022380F820300268BE
:102D5800136823F001031360FFF79EFE06462368FD
:102D68005B6813F0010F0CD0FFF796FE831B0A2B4C
:102D7800F5D9636A43F400336362052384F820308D
:102D8800E0E700256562DDE730B590F820C004680B
:102D9800A4680CF1FF3C5FFA8CFCBCF1010F62D80F
:102DA80014F0E05F59D0C4F3016C012404FA0CF468
:102DB8001C608B68002B3DD10D68CB68046843EA22
:102DC80045550CF118031B01E55003680C690CF11B
:102DD800180E03EB0E135C600B7D012B35D0D179F7
:102DE80093791B0443EA0163517943EA0123147977
:102DF8000168234301EB0C11C1F88C31D178937829
:102E08001B0443EA0163517843EA012311780268FD
:102E18000B4302EB0C12C2F8883102680CF1180C53
:102E28004FEA0C1C52F80C3043F0010342F80C3006
:102E380000201DE04C6843EAC403CC6823430CF12E
:102E48001804240105682B51BFE7036803EB0E1330
:102E5800596841F480715960C1E7436A43F400132B
:102E68004362012004E0436A43F480234362012063
:102E780030BD90F820C00CF1FF3C5FFA8CFCBCF12F
:102E8800010F00F2A58030B451B90468E46814F069
:102E9800030F10D1436A43F40013436201207EE01C
:102EA8000468246914F0030F05D1436A43F400133E
:102EB8004362012073E0056801F11B0424012C59C9
:102EC80004F004049460002C6BD1056801F11B0424
:102ED80024012C59640D1460046801F11B0C4FEA9D
:102EE8000C1C54F80C4004F00204D4600468A44498
:102EF800DCF8045015F0080F5BD00824146105684D
:102F080001F11B0C05EB0C156D68C5F307259561E0
:102F1800046804EB0C146468240C5461026802EB26
:102F28000112D2F8B8211A70026802EB0112D2F825
:102F3800B821C2F307225A70026802EB0112D2F8D4
:102F4800B821C2F307429A70026802EB0112D2F864
:102F5800B821120EDA70026802EB0112D2F8BC2115
:102F68001A71026802EB0112D2F8BC21C2F30722DF
:102F78005A71026802EB0112D2F8BC21C2F307426F
:102F88009A71026802EB0112D2F8BC21120EDA71B2
:102F9800C1B90268D36843F02003D360002030BC75
:102FA8007047056801F11B0424012C59E40854609A
:102FB80092E701F11B0504EB0514646804F00F04A3
:102FC80014619CE70268136943F020031361E5E785
:102FD800436A43F4802343620120704790F820300D
:102FE800013BDBB2012B05D9436A43F480234362DA
:102FF80001207047026853691943516100207047E6
:103008007047704770477047704770477047704700
:1030180070477047704770472DE9F84F05460368B9
:103028005C69D3F804809F68D3F80CB0D3F810A07B
:10303800D3F8189014F001063BD017F0010616D00B
:1030480001229A6017F0020F08D117F0040F0CD173
:1030580017F0080606D04FF4805608E0FFF7D0FFB7
:10306800002604E0FFF7CFFF01E04FF4006617F4F5
:10307800807F0DD02B684FF480729A6017F4007F20
:1030880040F0868017F4806F00F0868046F4005682
:1030980017F4803F0DD02B684FF480329A6017F4F4
:1030A800003F40F0838017F4802F00F0838046F4BF
:1030B800004614F0080F07D01BF0100F04D046F498
:1030C80000762B681022DA6014F0040F02D01BF08F
:1030D800080F79D114F0020F04D02B68DB6813F0C5
:1030E800030F78D114F0400F07D01AF0100F04D056
:1030F80046F480662B6810221A6114F0200F02D063
:103108001AF0080F6BD114F0100F04D02B681B694C
:1031180013F0030F6AD114F4003F02D018F0100F17
:1031280068D114F4803F02D018F0080F69D114F464
:10313800004F7AD018F0040F74D014F4807F04D0B4
:1031480019F0010F01D046F0010614F4007F04D0F5
:1031580019F0020F01D046F0020614F4806F04D073
:1031680019F0040F01D046F0040614F4006F59D08A
:1031780019F0700956D0B9F1400F65D058D8B9F197
:10318800200F5ED0B9F1300F42D146F0200644E05E
:103198002846FFF736FF7BE717F4006F02D046F4A6
:1031A800804675E72846FFF72FFF71E72846FFF7A7
:1031B80029FF7EE717F4002F02D046F4803678E71F
:1031C8002846FFF722FF74E72B680822DA602846B2
:1031D800FFF71CFF7EE72846FEF75AF882E72B68C0
:1031E80008221A612846FFF713FF8CE72846FFF7E5
:1031F8000EFF90E72B6810225A602846FFF709FF58
:103208008FE72B6808225A602846FFF703FF8EE7EE
:10321800B9F1100F01D146F008062A68936923F026
:10322800700393612B6804225A609EB9BDE8F88F39
:10323800B9F1500F0BD0B9F1600FEED146F480769A
:10324800EBE746F01006E8E746F04006E5E746F00B
:103258008006E2E76B6A1E436E622846FFF7DBFED4
:10326800E4E70000074AD36823F4E0631B041B0C5F
:10327800000200F4E060034343F0BF6343F400330B
:10328800D360704700ED00E000B5194BDB68C3F36D
:103298000223C3F1070CBCF1040F28BF4FF0040C44
:1032A80003F1040EBEF1060F18D9033B4FF0FF3EA1
:1032B8000EFA0CFC21EA0C0199400EFA03F322EAFB
:1032C8000303194300280BDB0901C9B200F1604070
:1032D80000F5614080F800135DF804FB0023E5E782
:1032E80000F00F000901C9B2024B1954F4E700BFFE
:1032F80000ED00E014ED00E0002807DB00F01F02FD
:10330800400901239340024A42F82030704700BF29
:1033180000E100E00138B0F1807F0BD24FF0E023EC
:103328005861054AF02182F823100020986107228D
:103338001A6170470120704700ED00E030B405685D
:103348002C6824F480242C60046863608368402B14
:1033580005D0036899600368DA6030BC7047036879
:103368009A600368D960F8E710B40368D9B21039D5
:103378000B4AA2FB014212090A4CA25CC2655F29F2
:1033880008D923F47F7323F0030304338365806D26
:1033980010BC704723F47F7323F003038365F6E7BB
:1033A800ABAAAAAA88560008836A826992B9012B37
:1033B8000AD0022B02D00BB100207047C36A13F069
:1033C800807F28D100207047C36AB3F1C07F24D022
:1033D80000207047B2F5005F09D0022B25D9032BD6
:1033E80025D1C36A13F0807F23D100207047032BB7
:1033F80003D8DFE803F01404140A00207047C36AF6
:1034080013F0807F0DD100207047C36AB3F1C07FED
:1034180009D0002070470120704701207047012023
:103428007047012070470120704701207047002035
:10343800704701207047000070B50446FFF72CFB69
:10344800002C5BD00546022384F83530002384F82D
:1034580034302268136823F00103136023681A6864
:1034680012F0010F0AD0FFF717FB431B052BF5D904
:1034780020236365032084F8350070BD1A6820484E
:1034880010406168A2680A43E1680A4321690A4357
:1034980061690A43A1690A43E1690A43216A0A4347
:1034A8000243616A04291ED01A602668756925F0EE
:1034B8000705636A1D43042B07D1A36A1D43E36A0A
:1034C8001BB12046FFF770FF90B975612046FFF7E2
:1034D8004BFFE26D3F23934083600020606501232A
:1034E80084F83530C9E7E16A206B01430A43DBE71A
:1034F80040236365012084F83500BEE70120BCE75E
:103508003F8010F038B5044690F8340001281BD0ED
:10351800012084F8340094F83500C0B2012804D0A2
:10352800002384F83430022038BD022084F83500A6
:10353800002565652046FFF701FF2268136843F000
:10354800010313602846EFE70220EDE770B5044653
:10355800866DFFF7A1FA94F83530DBB2022B06D05E
:1035680080236365002384F83430012070BD05464C
:103578002268136823F0160313602268536923F046
:1035880080035361236CE3B12268136823F00803B6
:1035980013602268136823F00103136023681B6813
:1035A80013F0010F11D0FFF777FA431B052BF5D95C
:1035B80020236365032084F83500002384F8343021
:1035C800D4E7A36C002BDFD1E3E7E26D3F23934000
:1035D800B360012384F83530002084F83400C5E74F
:1035E80090F83530DBB2022B03D0802343650120ED
:1035F8007047052380F835300268136823F001030B
:103608001360002070470000F0B583B00446002323
:103618000193724B1D68724BA3FB0535AD0A876D8C
:103628003E68C26D08239340334210D003681A687D
:1036380012F0040F0BD01A6822F004021A60C26D4F
:1036480008239340BB60436D43F001034365E26D7B
:1036580001239340334209D02268526912F0800F47
:1036680004D0BB60636D43F002036365E26D04231D
:103678009340334209D02268126812F0020F04D036
:10368800BB60636D43F004036365E26D10239340F0
:10369800334224D02268126812F0080F1FD0BB6092
:1036A80023681A6812F4802F0DD01B6813F4002FBA
:1036B80004D1236C9BB12046984710E0A36C73B1EA
:1036C800204698470BE01A6812F4807F03D11A68E5
:1036D80022F008021A60236C0BB120469847E26D6D
:1036E80020239340334255D02268126812F0100FFD
:1036F80050D0BB6094F83530DBB2052B0ED0236870
:103708001A6812F4802F33D01B6813F4002F2AD1C3
:10371800636C002B3ED0204698473BE02268136834
:1037280023F0160313602268536923F08003536162
:10373800236CA3B12268136823F008031360E26DB9
:103748003F239340BB60012384F83530002384F87D
:103758003430236D002B3FD0204698473CE0A36CC3
:10376800002BE7D1EBE7E36BA3B12046984711E0C4
:103778001A6812F4807F09D11A6822F010021A60C0
:10378800012384F83530002384F83430E36B0BB11F
:1037980020469847636DFBB1636D13F0010F17D096
:1037A800052384F835302268136823F00103136079
:1037B800019B01330193AB4204D823681B6813F0C3
:1037C800010FF5D1012384F83530002384F8343013
:1037D800E36C0BB12046984703B0F0BD20000020F1
:1037E800B5814E1B00230F2B00F2E48070B582B028
:1037F80060E085685E000324B44025EA0405CC68CF
:10380800B4402C438460456825EA02054C68C4F33B
:1038180000129A402A4342605AE0DC08083450F803
:10382800246003F0070295000F22AA4026EA020E40
:103838000A69AA4042EA0E0240F824205CE0072206
:1038480000E0002202FA0EF22A4302345A4D45F8EB
:1038580024205A4A94686FEA0C0224EA0C054E6840
:1038680016F4801F01D04CEA0405544CA560E468A6
:1038780002EA04054E6816F4001F01D04CEA04055C
:103888004E4CE560646802EA04054E6816F4003F91
:1038980001D04CEA0405494C6560246822404D6813
:1038A80015F4803F01D04CEA0402444C22600133F5
:1038B8000F2B7DD801229A400C6804EA020C32EAE8
:1038C8000404F4D14C6804F00304013C012C90D9A1
:1038D8004A6802F00302032A09D0C4685D00032283
:1038E800AA4024EA02048A68AA402243C2604A68BD
:1038F80002F00302022A90D004684FEA430E032222
:1039080002FA0EF224EA02044A6802F0030202FAFA
:103918000EF2224302604A6812F4403FC7D00022E8
:103928000192274A546C44F480445464526C02F463
:1039380080420192019A9C08A51C1F4A52F8255002
:1039480003F003024FEA820E0F2202FA0EF225EA72
:1039580002051C4A90423FF474AF02F5806290421F
:103968001AD002F58062904218D002F58062904227
:1039780016D002F58062904214D002F5806290421F
:1039880012D002F58062904210D002F58062904217
:103998003FF455AF082255E7012253E7022251E7C9
:1039A80003224FE704224DE705224BE7062249E7A9
:1039B80002B070BD704700BF00380140003C0140B4
:1039C80000380240000002400AB1816170470904D2
:1039D80081617047002800F0E08170B582B004462C
:1039E800036813F0010F3BD09F4B9B6803F00C0357
:1039F800042B2CD09C4B9B6803F00C03082B21D084
:103A08006368B3F5803F4FD0B3F5A02F52D0964BE3
:103A18001A6822F480321A601A6822F480221A6026
:103A28006368002B50D0FFF737F805468E4B1B68AC
:103A380013F4003F14D1FFF72FF8401B6428F5D981
:103A48000320B1E1884B5B6813F4800FD8D0864B14
:103A58001B6813F4003F03D06368002B00F09F81BC
:103A6800236813F0020F54D07F4B9B6813F00C0FA0
:103A78003ED07D4B9B6803F00C03082B33D0E368E2
:103A8800002B68D0794B01221A60FFF705F805462C
:103A9800754B1B6813F0020F54D1FEF7FDFF401B56
:103AA8000228F5D903207FE16F4A136843F4803375
:103AB8001360B5E76C4B1A6842F480221A601A68E2
:103AC80042F480321A60ABE7FEF7E6FF0546664B24
:103AD8001B6813F4003FC3D0FEF7DEFF401B6428C9
:103AE800F5D9032060E1604B5B6813F4800FC6D101
:103AF8005D4B1B6813F0020F03D0E368012B40F005
:103B08005081594A136823F0F803216943EAC10335
:103B18001360236813F0080F42D063696BB3534BEB
:103B28000122C3F8802EFEF7B7FF05464E4B5B6FA8
:103B380013F0020F34D1FEF7AFFF401B0228F5D96E
:103B4800032031E1484A136823F0F803216943EA66
:103B5800C1031360DDE7454B00221A60FEF79CFFA6
:103B68000546414B1B6813F0020FD2D0FEF794FFB5
:103B7800401B0228F5D9032016E13C4B0022C3F86C
:103B8800802EFEF789FF0546374B5B6F13F0020F57
:103B980006D0FEF781FF401B0228F5D9032003E178
:103BA800236813F0040F77D02F4B1B6C13F0805F42
:103BB80033D1002301932C4B1A6C42F080521A64C3
:103BC8001B6C03F080530193019B0125284B1B6854
:103BD80013F4807F23D0A368012B34D0052B38D071
:103BE800214B1A6F22F001021A671A6F22F00402A1
:103BF8001A67A368002B3DD0FEF74EFF06461A4B06
:103C08001B6F13F0020F46D1FEF746FF801B41F2EF
:103C180088339842F3D90320C6E00025D6E7144A32
:103C2800136843F480731360FEF736FF0646104BA3
:103C38001B6813F4807FCED1FEF72EFF801B02286D
:103C4800F5D90320B0E0084A136F43F00103136766
:103C5800CFE7054B1A6F42F004021A671A6F42F059
:103C680001021A67C5E700BF00380240000047425A
:103C780000700040FEF710FF0646524B1B6F13F012
:103C8800020F08D0FEF708FF801B41F288339842E4
:103C9800F3D9032088E0EDB9A369002B00F08380F5
:103CA800484A926802F00C02082A51D0022B17D019
:103CB800454B00221A66FEF7EFFE0446414B1B688F
:103CC80013F0007F42D0FEF7E7FE001B0228F5D96B
:103CD800032069E03B4A136C23F080531364DBE74D
:103CE800394B00221A66FEF7D7FE0546354B1B688E
:103CF80013F0007F06D0FEF7CFFE401B0228F5D94F
:103D0800032051E0E369226A1343626A43EA82139B
:103D1800A26A5208013A43EA0243E26A43EA0263AA
:103D2800284A5360284B01221A66FEF7B5FE04465E
:103D3800244B1B6813F0007F06D1FEF7ADFE001B75
:103D48000228F5D903202FE000202DE000202BE0E9
:103D5800012B2BD01B4B5B6803F48001E269914275
:103D680026D103F03F02216A8A4223D1616A47F6CD
:103D7800C0721A40B2EB811F1ED103F44031A26A0F
:103D88005208013AB1EB024F18D103F07063E26AAE
:103D9800B3EB026F14D1002006E001207047012028
:103DA80002E0012000E0002002B070BD0120FBE726
:103DB8000120F9E70120F7E70120F5E70120F3E703
:103DC8000120F1E7003802400000474208B5254BC2
:103DD8009B6803F00C03042B3FD0082B3FD1214BE9
:103DE8005A6802F03F025B6813F4800F12D01D4B33
:103DF8005968C1F388111C480023A1FB0001FDF795
:103E080097F8184B5B68C3F3014301335B00B0FBC1
:103E1800F3F025E0134B5968C1F3881C4FEA4C11A5
:103E2800B1EB0C006EEB0E0E4FEA8E1343EA906373
:103E38008101091A63EB0E03DB0043EA5173C900E1
:103E480011EB0C0C43F10003990200234FEA8C207C
:103E580041EA9C51FDF76CF8D3E7034800E00348BA
:103E680008BD00BF00380240001BB7000024F40062
:103E7800002800F09B8070B50D4604464F4B1B6828
:103E880003F007038B4208D2CBB24C4A1370136875
:103E980003F007038B4240F08B80236813F0020F76
:103EA80017D013F0040F04D0454A936843F4E05345
:103EB8009360236813F0080F04D0414A936843F4D1
:103EC800604393603E4A936823F0F003A1680B4374
:103ED8009360236813F0010F32D06368012B21D05F
:103EE8009A1E012A25D9364A126812F0020F61D0AB
:103EF80033498A6822F0030213438B60FEF7CCFD36
:103F080006462F4B9B6803F00C036268B3EB820FE5
:103F180016D0FEF7C1FD801B41F288339842F0D9D4
:103F2800032042E0264A126812F4003FE0D1012043
:103F38003BE0234A126812F0007FD9D1012034E017
:103F48001E4B1B6803F00703AB4207D9EAB21B4BB1
:103F58001A701B6803F00703AB422DD1236813F0D6
:103F6800040F06D0164A936823F4E053E1680B4324
:103F78009360236813F0080F07D0114A936823F45D
:103F88006043216943EAC1039360FFF71FFF0C4BAD
:103F98009B68C3F303130B4AD35CD8400A4B1860E1
:103FA8000A4B1868FEF72CFD002070BD01207047F1
:103FB8000120FAE70120F8E70120F6E7003C02407B
:103FC80000380240705600082000002048000020F9
:103FD800014B1868704700BF2000002008B5FFF7A4
:103FE800F7FF044B9B68C3F38223034AD35CD84092
:103FF80008BD00BF003802408056000808B5FFF72A
:10400800E7FF044B9B68C3F34233034AD35CD840B1
:1040180008BD00BF00380240805600082DE9F0476F
:1040280082B00546884617461E46FEF735FD0A9BB0
:104038001B1A03EB0609FEF72FFD82462B4B1B6864
:10404800C3F3CB3309FB03F301932B689C6838EA6D
:1040580004030CBF4FF0010C4FF0000CBC4540D0DE
:10406800B6F1FF3FF1D0FEF717FDA0EB0A00484577
:104078000AD2B9F1000F07D0019A02B14A46019B52
:10408800013B01939146E0E72A68536823F0E00377
:1040980053606B68B3F5827F0BD0AB6AB3F5005FF2
:1040A80014D0012385F85130002385F850300320BF
:1040B80018E0AB68B3F5004F02D0B3F5806FECD1D0
:1040C8002A68136823F040031360E6E72A68136838
:1040D80023F4005313602A68136843F400531360F1
:1040E800DFE7002002B0BDE8F08700BF2000002015
:1040F80070B584B004460D46164600920B46012260
:104108000221FFF78BFFD0B9174B1B68174AA2FB98
:1041180003235B0D4FF47A7202FB03F30393636886
:10412800B3F5827F11D0039B3BB1039B013B039303
:1041380023689B6813F0800FF5D104B070BD636DE0
:1041480043F0200363650320F7E700962B4600221F
:1041580080212046FFF762FF0028EED0636D43F010
:10416800200363650320E8E720000020819F5E1696
:1041780010B582B004460B464168B1F5827F14D071
:104188006168B1F5827F2AD1A168B1F5806F19D035
:104198000092002280212046FFF740FF30B3636D74
:1041A80043F020036365032020E08168B1F5004FE8
:1041B80002D0B1F5806FE3D12068016821F0400199
:1041C8000160DDE70092002201212046FFF726FF6B
:1041D80060B1636D43F020036365032006E000923D
:1041E800002201212046FFF719FF08B902B010BDCF
:1041F800636D43F0200363650320F7E700285AD076
:1042080010B50446436A33B94368B3F5827F05D0D5
:104218000023C36102E00023036143610023A3621A
:1042280094F85130002B40D0022384F85130226892
:10423800136823F040031360636803F48273A26871
:1042480002F404421343E26802F400621343226951
:1042580002F002021343626902F001021343A269E9
:1042680002F400721343E26902F038021343226A2F
:1042780002F080021343A26A02F400522168134339
:104288000B60638B03F00403626A02F0100221687A
:1042980013434B602268D36923F40063D361002081
:1042A8006065012384F8513010BD84F850302046F1
:1042B800FDF732FDB8E7012070472DE9F04383B0E0
:1042C8000446894690461D46FEF7E6FB94F8516081
:1042D800F6B2012E40F0CC800746B9F1000F00F08D
:1042E800C880B8F1000F00F0C48094F85030012B5A
:1042F80000F0C380012384F85030032384F8513040
:1043080000236365C4F83090A4F83480A4F836809C
:10431800A363A387E38763642364A368B3F5004FAB
:104328001ED023681A6812F0400F03D11A6842F0B1
:1043380040021A60E368B3F5006F1CD0636813B1DC
:10434800B8F1010F5FD1226B236812781A73236BBF
:1043580001332363E38E9BB2013B9BB2E38652E0B9
:104368002268136823F0400313602268136843F43B
:1043780080431360D5E7636813B1B8F1010F15D115
:10438800226B23681288DA60236B02332363E38E7F
:104398009BB2013B9BB2E38608E0FEF77DFBC01BA6
:1043A800A84202D3B5F1FF3F15D1A5B1E38E9BB268
:1043B800002B42D023689A6812F0020FEDD0226BCE
:1043C8001288DA60236B02332363E38E9BB2013BCE
:1043D8009BB2E386EAE7012384F85130002384F88E
:1043E8005030032645E0226B12781A73236B013391
:1043F8002363B4F836C01FFA8CFC0CF1FF3C1FFA9B
:104408008CFCA4F836C0E38E9BB2B3B123689A68DB
:1044180012F0020FE7D1FEF73FFBC01BA84202D300
:10442800B5F1FF3F01D1002DEDD1012384F85130C2
:10443800002384F8503003261BE03A4629462046DC
:10444800FFF756FE08B120236365A36833B90193CB
:104458002368DA6801929B680193019B012384F821
:104468005130002384F85030636D13B9002600E002
:104478000226304603B0BDE8F0830226F9E72DE9AD
:10448800F04383B00446884691461F460A9DFEF7CE
:1044980003FB064694F85130DBB26268012B0AD060
:1044A800B2F5827F40F00581A268002A40F00581BC
:1044B800042B40F00481B8F1000F00F00281B9F13B
:1044C800000F00F00081002F00F0FF8094F85030BA
:1044D800012B00F0FC80012384F8503094F851300F
:1044E800DBB2042B02D0052384F851300023636526
:1044F800C4F83890E787A787C4F83080E786A7868E
:104508002364636423681A6812F0400F03D11A68A1
:1045180042F040021A60E368B3F5006F11D0636897
:104528000BB1012F0BD1226B236812781A73236BFE
:1045380001332363E38E9BB2013B9BB2E3860127E1
:1045480071E063680BB1012F0BD1226B23681288CD
:10455800DA60236B02332363E38E9BB2013B9BB289
:10456800E38601271BE023689A6812F0010F0ED03A
:10457800E28F92B25AB1DA68A36B1A80A36B023346
:10458800A363E38F9BB2013B9BB2E3870127FEF74E
:1045980083FA801BA84202D3B5F1FF3F1ED1E38EF8
:1045A8009BB21BB9E38F9BB2002B62D023689A6839
:1045B80012F0020FD7D0E28E92B2002AD3D0002F89
:1045C800D1D0226B1288DA60236B02332363E38E27
:1045D8009BB2013B9BB2E3860027C4E7012384F822
:1045E8005130002384F85030032063E023689A6830
:1045F80012F0010F0ED0E28F92B25AB1DA68A36BB3
:104608001A70A36B0133A363E38F9BB2013B9BB288
:10461800E3870127FEF740FA831BAB4202D3B5F1CB
:10462800FF3F1ED1EDB1E38E9BB213B9E38F9BB26E
:10463800FBB123689A6812F0020FD7D0E28E92B2CB
:10464800002AD3D0002FD1D0226B12781A73236B93
:1046580001332363E38E9BB2013B9BB2E3860027C1
:10466800C4E7012384F85130002384F85030032034
:1046780020E0324629462046FFF73AFD90B9A36864
:1046880033B901932368DA6801929B680193019B0F
:10469800012384F85130002384F85030636D4BB106
:1046A800012007E020236365002384F850300120AF
:1046B80000E0022003B0BDE8F0830220FAE7022000
:1046C800F8E70120F6E70120F4E70120F2E70220ED
:1046D800F0E72DE9F04383B090F85160F6B2012E6F
:1046E80040F0B4800446894690461D464368B3F5B9
:1046F800827F01D1836893B3FEF7CEF90746B9F1FB
:10470800000F00F0A480B8F1000F00F0A08094F82A
:104718005030012B00F09F80012384F8503004238F
:1047280084F8513000236365C4F83890A4F83C80BD
:10473800A4F83E802363A386E38623646364A368A6
:10474800B3F5004F15D023681A6812F0400F03D153
:104758001A6842F040021A60E368F3B143E00423A8
:1047680080F85130009513460A46FFF788FE064642
:104778006DE02268136823F0400313602268136811
:1047880023F480431360DEE7FEF786F9C01BA842D6
:1047980002D3B5F1FF3F15D1A5B1E38F9BB2002B32
:1047A80042D023689A6812F0010FEDD0A26B1B7BF0
:1047B8001370A36B0133A363E38F9BB2013B9BB2DE
:1047C800E387EAE7012384F85130002384F8503066
:1047D80003263CE0FEF760F9C01BA84202D3B5F1FE
:1047E800FF3F19D1C5B1E38F9BB2EBB123689A683B
:1047F80012F0010FEED0DA68A36B1A80A36B0233B4
:10480800A363B4F83EC01FFA8CFC0CF1FF3C1FFAFE
:104818008CFCA4F83EC0E6E7012384F8513000235D
:1048280084F85030032612E03A4629462046FFF71E
:104838009FFC08B120236365012384F851300023CD
:1048480084F85030636D13B9002600E00226304624
:1048580003B0BDE8F0830226F9E7704730B585B0AC
:104868000446026851689368C3F3801013F0400F40
:1048780005D113F0010F02D011F0400F69D113F0E8
:10488800020F02D011F0800F67D1C3F3401513F067
:10489800200F03D110B913F4807F61D011F0200FDD
:1048A8005ED078B194F85100C0B203285AD0606D38
:1048B80040F00400606500200090D0680090906887
:1048C8000090009865B1606D40F0010060650020BF
:1048D800029090680290106820F040001060029AE0
:1048E80013F4807F09D0636D43F0080363650023E8
:1048F800039323689B680393039B636D002B2FD05E
:104908002268536823F0E0035360012384F8513090
:1049180011F0030F2ED02268536823F0030353606D
:10492800E36C4BB1154A1A65E06CFEF759FE18B1F5
:10493800636D43F040036365A36C8BB10F4A1A653E
:10494800A06CFEF74DFE58B1636D43F040036365FC
:1049580006E0236C2046984702E0636C204698479F
:1049680005B030BD00230193D36801939368019388
:10497800019BF5E72046FFF770FFF1E7894900083A
:1049880008B5806B0023C387C386FFF766FF08BDA1
:1049980090F85100704710B4036A046A24F00104C7
:1049A8000462846924F0F00C4CEA021223F00A0332
:1049B8000B438261036210BC704710B4036A046A37
:1049C80024F010040462846924F4704C4CEA023226
:1049D80023F0A00343EA01138261036210BC70470D
:1049E800836823F070030B4343F007038360704729
:1049F80090F83D30DBB2012B37D1022380F83D30EF
:104A08000268D36843F00103D3600368194A9342EC
:104A180020D0B3F1804F1DD0A2F57C42934219D02B
:104A280002F58062934215D002F58062934211D05C
:104A380002F5784293420DD002F57052934209D0A4
:104A4800A2F59432934205D01A6842F001021A6026
:104A5800002070479A6802F00702062A07D01A68F1
:104A680042F001021A6000207047012070470020C0
:104A7800704700BF0000014070477047704770479B
:104A880070B504460368DE681D6915F0020F10D082
:104A980016F0020F0DD06FF002021A61012303779E
:104AA80003689B6913F0030F5ED0FFF7E6FF00234E
:104AB800237715F0040F12D016F0040F0FD02368D7
:104AC8006FF004021A610223237723689B6913F4A9
:104AD800407F4FD02046FFF7D0FF0023237715F003
:104AE800080F12D016F0080F0FD023686FF00802D5
:104AF8001A61042323772368DB6913F0030F40D07E
:104B08002046FFF7BAFF0023237715F0100F12D0C5
:104B180016F0100F0FD023686FF010021A610823E7
:104B280023772368DB6913F4407F31D02046FFF7F1
:104B3800A4FF0023237715F0010F02D016F0010F10
:104B48002DD115F0800F02D016F0800F2FD115F05F
:104B5800400F02D016F0400F31D115F0200F02D0CF
:104B680016F0200F33D170BDFFF786FF2046FFF700
:104B780085FF9CE72046FFF77FFF2046FFF77EFF73
:104B8800ABE72046FFF778FF2046FFF777FFBAE745
:104B98002046FFF771FF2046FFF770FFC9E723683B
:104BA8006FF001021A612046FCF788FEC9E7236806
:104BB8006FF080021A61204600F07DF9C7E723688C
:104BC8006FF040021A612046FFF759FFC5E72368D6
:104BD8006FF020021A61204600F06CF9C3E700006C
:104BE8000368344A904212D0B0F1804F0FD0A2F53A
:104BF8007C4290420BD002F58062904207D002F5C9
:104C08008062904203D002F57842904203D123F0AB
:104C180070034A681343274A90422AD0B0F1804F64
:104C280027D0A2F57C42904223D002F580629042C0
:104C38001FD002F5806290421BD002F57842904264
:104C480017D002F57052904213D002F5806290425C
:104C58000FD002F5806290420BD0A2F598329042B4
:104C680007D002F58062904203D002F5806290423C
:104C780003D123F44073CA68134323F080034A69BD
:104C8800134303608B68C3620B688362094B9842C5
:104C980003D003F58063984201D10B6903630123B4
:104CA8004361036913F0010F03D0036923F0010383
:104CB800036170470000014040B310B5044690F806
:104CC8003D30F3B1022384F83D30214651F8040BFE
:104CD800FFF786FF012384F8463084F83E3084F8D5
:104CE8003F3084F8403084F8413084F8423084F80A
:104CF800433084F8443084F8453084F83D3000204F
:104D080010BD80F83C30FDF75BF8DBE70120704709
:104D180010B4846824F47F4C42EA03220A4342EA2E
:104D28000C02826010BC704790F83C30012B78D0A0
:104D380010B50446012380F83C30022380F83D304A
:104D48000268936823F47F4323F0770393600B682A
:104D5800602B4CD029D8402B54D00CD9502B22D1C1
:104D6800CA6849680068FFF716FE50212068FFF7F7
:104D780037FE002005E0202B0DD009D9302B0AD0B2
:104D88000120012384F83D30002384F83C3010BD15
:104D98000BB1102B05D119462068FFF721FE002022
:104DA800EFE70120EDE70120EBE7B3F5805F34D0B2
:104DB800B3F5005F0CD1CB684A6889680068FFF7D3
:104DC800A7FF2268936843F4804393600020D8E7E4
:104DD800702B24D1CB684A6889680068FFF798FF70
:104DE8002268936843F0770393600020C9E7CA6894
:104DF80049680068FFF7E1FD60212068FFF7F0FDD2
:104E08000020BEE7CA6849680068FFF7C4FD402172
:104E18002068FFF7E5FD0020B3E70020B1E7012097
:104E2800AFE702207047000090F83C30012B3CD0DF
:104E380010B4012380F83C30022380F83D30036829
:104E48005A689C6822F0700C0A6842EA0C025A60A0
:104E58000368174A93421AD0B3F1804F17D0A2F5CE
:104E68007C42934213D002F5806293420FD002F540
:104E7800806293420BD002F57842934207D002F544
:104E88007052934203D0A2F59432934204D124F095
:104E980080044A6814439C60012380F83D30002355
:104EA80080F83C30184610BC70470220704700BF9D
:104EB8000000014070477047026802F10C0353E894
:104EC800003F23F490730C3242E800310029F3D1FB
:104ED800026802F1140353E8003F23F0010314327F
:104EE80042E800310029F3D1036B012B05D02023C0
:104EF80080F84230002303637047026802F10C0314
:104F080053E8003F23F010030C3242E80031002937
:104F1800F3D1ECE790F84130DBB2212B01D002202D
:104F280070478368B3F5805F17D0036A5A1C026222
:104F38001A7803685A60C38C9BB2013B9BB2C38446
:104F48004BB90268D36823F08003D3600268D36842
:104F580043F04003D360002070470369002BE4D17D
:104F6800036A1B880268C3F308035360036A0233A9
:104F78000362E0E738B504460268136923F4405336
:104F8800C1680B4313618368026913434269134381
:104F9800C2691A430168CB6823F4164323F00C0353
:104FA8001343CB600268536923F4407381690B4350
:104FB80053610368314A934206D002F580629342F6
:104FC80002D0FFF70BF801E0FFF718F8E369B3F533
:104FD800004F29D00021031849411B1841F1000155
:104FE800C90041EA5371DB00181863684FEA83026D
:104FF8004FEA937341F10001FBF79AFF204DA5FB9F
:1050080000325109642303FB11031B013233A5FB52
:1050180003235B0903F0F00202EB011203F00F0314
:10502800216813448B6038BD0023021843EB030149
:10503800121841F10001C90041EA5271D20010185A
:1050480041F10001626892185B41FBF771FF0C4D5A
:10505800A5FB00325109642303FB1103DB00323343
:10506800A5FB03235B095A0002F4F87202EB011254
:1050780003F00703216813448B60D4E70010014054
:105088001F85EB5160B310B5044690F8413013B357
:10509800242384F841302268D36823F40053D36072
:1050A8002046FFF767FF2268136923F490431361D2
:1050B8002268536923F02A0353612268D36843F4B2
:1050C8000053D36000206064202384F8413084F8C2
:1050D8004230606310BD80F84030FCF7ABFED7E784
:1050E80001207047704708B50168CA6822F040027D
:1050F800CA60202280F84120FFF7F4FF002008BD95
:105108007047704708B5806B0023C385C384FFF7D9
:10511800F8FF08BD704790F84230DBB2222B69D106
:105128008368B3F5805F4FD0826AB3F5805F04D09F
:10513800002B56D10369002B53D103685B681370A9
:10514800836A01338362C38D9BB2013B9BB2C385E3
:10515800002B51D100B583B00268D36823F0200337
:10516800D3600268D36823F48073D36002685369FC
:1051780023F001035361202380F842300023436366
:10518800036B012B33D100230363026802F10C0384
:1051980053E8003F23F010030C3242E800310029A5
:1051A800F3D103681A6812F0100F06D0002201929A
:1051B8001A6801925B680193019B818DFFF7AAFF32
:1051C800002003B05DF804FB0269002AACD1826AB2
:1051D80003685B68C3F308031380836A023383623E
:1051E800B1E703685B6803F07F031370A8E7FFF774
:1051F80087FFE5E7022070470020704730B583B08D
:10520800044602681368D068516913F00F0505D188
:1052180013F0200F02D010F0200F19D12DB111F08A
:10522800010119D110F4907F16D1216B01297DD08D
:1052380013F0800F03D010F0800F40F0198113F0A5
:10524800400F03D010F0400F40F0168103B030BD7E
:105258002046FFF760FFF9E713F0010F06D010F4BE
:10526800807F03D0626C42F00102626413F0040F85
:1052780004D019B1626C42F00202626413F0020FAA
:1052880004D019B1626C42F00402626413F0080F92
:1052980007D010F0200F00D119B1626C42F008025B
:1052A8006264626C002AD1D013F0200F02D010F093
:1052B800200F29D123685B6903F04003626C12F068
:1052C800080F00D163B32046FFF7F6FD23685B693A
:1052D80013F0400F20D0226802F1140353E8003F76
:1052E80023F04003143242E800310029F3D1E36B84
:1052F80073B1634A1A65E06BFEF772F90028A5D00E
:10530800E06B036D9847A1E72046FFF704FFD1E75C
:105318002046FFF7F6FE99E72046FFF7F2FE95E7ED
:105328002046FFF7EEFE002363648FE713F0100FAB
:105338003FF47EAF10F0100F3FF47AAF00230193D3
:105348001368019353680193019B536913F0400F4D
:1053580052D0E26B13685B689BB2002B3FF476AFC8
:10536800A18D99427FF672AFE385D369B3F5807F4B
:1053780037D0226802F10C0353E8003F23F480730E
:105388000C3242E800310029F3D1226802F11403FB
:1053980053E8003F23F00103143242E800310029AA
:1053A800F3D1226802F1140353E8003F23F04003CD
:1053B800143242E800310029F3D1202384F8423026
:1053C80000232363226802F10C0353E8003F23F013
:1053D80010030C3242E800310029F3D1E06BFEF7EC
:1053E800B5F802236363A18DE38D9BB2C91A89B214
:1053F8002046FFF78FFE29E7A18DE38D9BB2C91ADE
:1054080089B2E38D9BB2002B3FF420AF00293FF413
:105418001DAF226802F10C0353E8003F23F4907398
:105428000C3242E800300028F3D1226802F114035C
:1054380053E8003F23F00103143242E8003000280B
:10544800F3D1202384F8423000232363226802F139
:105458000C0353E8003F23F010030C3242E80030FD
:105468000028F3D1022363632046FFF753FEEDE6DD
:105478002046FFF74FFDE9E62046FFF734FEE5E654
:105488000D51000870B50D4E0D4D761BB61006D0A7
:10549800002455F8043B01349847A642F9D1094E37
:1054A800094D761B00F0D4F8B61006D0002455F844
:1054B800043B01349847A642F9D170BD9C560008B8
:1054C8009C560008A45600089C560008830730B56F
:1054D80048D0541E002A3FD0CAB2034601E0013C1E
:1054E8003AD303F8012B9D07F9D1032C2DD9CDB25E
:1054F80045EA05250F2C45EA054536D9A4F11002E1
:1055080022F00F0C03F1200EE6444FEA121C03F1BF
:10551800100242E9045542E9025510327245F8D1A9
:105528000CF1010214F00C0F03EB021204F00F0C43
:1055380013D0ACF1040323F003030433134442F8FB
:10554800045B9342FBD10CF003042CB1CAB21C4497
:1055580003F8012B9C42FBD130BD64461346002C56
:10556800F4D1F9E703461446BFE71A46A446E0E734
:10557800024B13B1024800F005B870470000000064
:1055880099550008002301461A46184600F01AB833
:1055980038B5084B084D5B1B9C1007D0043B1D44D5
:1055A800013C55F804399847002CF9D1BDE838403A
:1055B80000F054B8A8560008A4560008704700BF69
:1055C800704700BF2DE9F047DFF87CA00646DAF8FF
:1055D800000098460F469146FFF7F0FF1B4B1B68EB
:1055E800D3F8484124B365681F2D26DC5EB96B1CCF
:1055F8000235DAF80000636044F82570FFF7E0FF31
:105608000020BDE8F08704EB85010123C1F88890EC
:10561800D4F88821AB401A43022EC4F88821C1F877
:105628000881E4D1D4F88C211343C4F88C31DEE727
:1056380003F5A674C3F84841D5E7DAF80000FFF788
:10564800BFFF4FF0FF30DCE77804002090560008D9
:10565800F8B500BFF8BC08BC9E467047F8B500BF57
:08566800F8BC08BC9E46704727
:105670000000000000000000010203040607080902
:1056800000000000010203040006101600061016B8
:0456900050000020A6
:08569400D4B8FF7F0100000003
:08569C0079550008AD0100087A
:0456A4008901000870
:1056A80000000000000000000101000000000000F0
:1056B800000000000000C03F0000C03F01000000E3
:1056C8000024F400E7416B3A58A08B3A8FC2F53DAD
:1056D800001000009A99993E0000204100002041E6
:1056E8000000E1430100000010000000000000007D
:1056F800000000003C030020A40300200C0400204C
:105708000000000000000000000000000000000091
:105718000000000000000000000000000000000081
:105728000000000000000000000000000000000071
:105738000000000000000000000000000000000061
:105748000000000000000000000000000000000051
:105758000000000000000000000000000000000041
:105768000000000000000000000000000000000031
:105778000000000000000000000000000000000021
:105788000000000000000000000000000000000011
:105798000000000000000000010000000000000000
:1057A8000E33CDAB34126DE6ECDE05000B000000C5
:1057B80000000000000000000000000000000000E1
:1057C80000000000000000000000000000000000D1
:1057D80000000000000000000000000000000000C1
:1057E80000000000000000000000000000000000B1
:0C5B1800000000000000000078070020E2
:0400000508002321AB
:00000001FF
