:020000040800F2
:1000000000000220492900088D2400088F240008E0
:1000100091240008932400089524000800000000A3
:10002000000000000000000000000000972400080D
:1000300099240008000000009B2400089D2400086B
:100040009929000899290008992900089929000888
:100050009929000899290008992900089929000878
:1000600099290008A5240008992900089929000861
:10007000B124000899290008992900089929000845
:100080009929000899290008992900089929000848
:10009000C124000899290008992900089929000815
:1000A00099290008D12400089929000899290008F5
:1000B0007125000899290008992900089929000844
:1000C0009929000899290008992900080D29000894
:1000D0009929000899290008992900081D29000874
:1000E00099290008992900089929000899290008E8
:1000F00099290008992900089929000899290008D8
:1001000099290008992900089929000899290008C7
:1001100099290008992900089929000899290008B7
:1001200099290008992900089929000899290008A7
:100130009929000899290008992900089929000897
:1001400035290008992900089929000899290008EB
:100150009929000899290008992900089929000877
:100160009929000899290008992900089929000867
:100170009929000899290008992900080000000021
:080180009929000899290008E3
:1001880010B5054C237833B9044B13B10448AFF3C9
:1001980000800123237010BD94040020000000009B
:1001A8000C7D000808B5034B1BB103490348AFF3A6
:1001B800008008BD00000000980400200C7D0008A5
:1001C80081F0004102E000BF83F0004330B54FEA00
:1001D80041044FEA430594EA050F08BF90EA020F6D
:1001E8001FBF54EA000C55EA020C7FEA645C7FEA00
:1001F800655C00F0E2804FEA5454D4EB5555B8BF23
:100208006D420CDD2C4480EA020281EA030382EA93
:10021800000083EA010180EA020281EA0303362D25
:1002280088BF30BD11F0004F4FEA01314FF4801CF8
:100238004CEA113102D0404261EB410113F0004F0A
:100248004FEA03334CEA133302D0524263EB4303C1
:1002580094EA050F00F0A780A4F10104D5F1200E5F
:100268000DDB02FA0EFC22FA05F2801841F10001BA
:1002780003FA0EF2801843FA05F359410EE0A5F18E
:1002880020050EF1200E012A03FA0EFC28BF4CF0BF
:10029800020C43FA05F3C01851EBE37101F0004575
:1002A80007D54FF0000EDCF1000C7EEB00006EEB82
:1002B8000101B1F5801F1BD3B1F5001F0CD349080C
:1002C8005FEA30004FEA3C0C04F101044FEA445263
:1002D80012F5800F80F09A80BCF1004F08BF5FEAEA
:1002E800500C50F1000041EB045141EA050130BDCA
:1002F8005FEA4C0C404141EB0101013C28BFB1F5DC
:10030800801FE9D291F0000F04BF01460020B1FA26
:1003180081F308BF2033A3F10B03B3F120020CDAF9
:100328000C3208DD02F1140CC2F10C0201FA0CF0D7
:1003380021FA02F10CE002F11402D8BFC2F1200C3C
:1003480001FA02F120FA0CFCDCBF41EA0C019040F2
:10035800E41AA2BF01EB0451294330BD6FEA04043B
:100368001F3C1CDA0C340EDC04F11404C4F1200226
:1003780020FA04F001FA02F340EA030021FA04F338
:1003880045EA030130BDC4F10C04C4F1200220FA8F
:1003980002F001FA04F340EA0300294630BD21FACD
:1003A80004F0294630BD94F0000F83F4801306BF93
:1003B80081F480110134013D4EE77FEA645C18BF87
:1003C8007FEA655C29D094EA050F08BF90EA020F1E
:1003D80005D054EA000C04BF1946104630BD91EA16
:1003E800030F1EBF0021002030BD5FEA545C05D119
:1003F8004000494128BF41F0004130BD14F5800458
:100408003CBF01F5801130BD01F0004545F0FE41CB
:1004180041F470014FF0000030BD7FEA645C1ABF00
:10042800194610467FEA655C1CBF0B46024650EA37
:10043800013406BF52EA033591EA030F41F4002163
:1004480030BD00BF90F0000F04BF0021704730B5E9
:100458004FF4806404F132044FF000054FF00001BE
:1004680050E700BF90F0000F04BF0021704730B57F
:100478004FF4806404F1320410F0004548BF404254
:100488004FF000013EE700BF42004FEAE2014FEAA9
:1004980031014FEA02701FBF12F07F4393F07F4F84
:1004A80081F06051704732F07F4208BF704793F087
:1004B8007F4F04BF41F40021704730B54FF460749A
:1004C80001F0004521F000411CE700BF50EA01029D
:1004D80008BF704730B54FF000050AE050EA010246
:1004E80008BF704730B511F0004502D5404261EBB6
:1004F80041014FF4806404F132045FEA915C3FF4F7
:10050800D8AE4FF003025FEADC0C18BF03325FEA93
:10051800DC0C18BF033202EBDC02C2F1200300FA44
:1005280003FC20FA02F001FA03FE40EA0E0021FA69
:1005380002F11444BDE600BF4FF0FF3C06E000BFE7
:100548004FF0010C02E000BF4FF0010C4DF804CD54
:100558004FEA410C7FEA6C5C4FEA430C18BF7FEA14
:100568006C5C1BD001B050EA410C0CBF52EA430C42
:1005780091EA030F02BF90EA020F0020704710F1C2
:10058800000F91EA030F58BF994208BF90422CBF51
:10059800D8176FEAE37040F0010070474FEA410C4A
:1005A8007FEA6C5C02D150EA013C07D14FEA430C68
:1005B8007FEA6C5CD6D152EA033CD3D05DF8040BD9
:1005C800704700BF8446104662468C46194663460B
:1005D80000E000BF01B5FFF7B7FF002848BF10F1E2
:1005E800000F01BD4DF808EDFFF7F4FF0CBF012027
:1005F80000205DF808FB00BF4DF808EDFFF7EAFFA3
:1006080034BF012000205DF808FB00BF4DF808ED5D
:10061800FFF7E0FF94BF012000205DF808FB00BF52
:100628004DF808EDFFF7CEFF94BF012000205DF8DC
:1006380008FB00BF4DF808EDFFF7C4FF34BF0120E9
:1006480000205DF808FB00BF4FEA4102B2F1E04329
:1006580024BFB3F5001CDCF1FE5C0DD901F0004CA1
:100668004FEAC0024CEA5070B2F1004F40EB8300F1
:1006780008BF20F00100704711F0804F21D113F11D
:100688003872BCBF01F00040704741F480114FEA56
:100698005252C2F11802C2F1200C10FA0CF320FADF
:1006A80002F018BF40F001004FEAC1234FEAD323FC
:1006B80003FA0CFC40EA0C0023FA02F34FEA430366
:1006C800CCE77FEA625307D150EA01331EBF4FF0EF
:1006D800FE4040F44000704701F0004040F0FE400A
:1006E80040F40000704700BF80F0004002E000BF07
:1006F80081F0004142001FBF5FEA410392EA030F05
:100708007FEA226C7FEA236C6AD04FEA1262D2EB4E
:100718001363C1BFD218414048404140B8BF5B4253
:10072800192B88BF704710F0004F40F4000020F0EC
:100738007F4018BF404211F0004F41F4000121F002
:100748007F4118BF494292EA030F3FD0A2F101024C
:1007580041FA03FC10EB0C00C3F1200301FA03F18A
:1007680000F0004302D5494260EB4000B0F5000FAD
:1007780013D3B0F1807F06D340084FEA310102F16C
:100788000102FE2A51D2B1F1004F40EBC25008BF1E
:1007980020F0010040EA03007047490040EB0000E8
:1007A800013A28BFB0F5000FEDD2B0FA80FCACF1E9
:1007B800080CB2EB0C0200FA0CF0AABF00EBC25016
:1007C80052421843BCBFD0401843704792F0000F04
:1007D80081F4000106BF80F400000132013BB5E757
:1007E8004FEA41037FEA226C18BF7FEA236C21D0CD
:1007F80092EA030F04D092F0000F08BF0846704732
:1008080090EA010F1CBF0020704712F07F4F04D1FF
:10081800400028BF40F00040704712F100723CBF12
:1008280000F50000704700F0004343F0FE4040F43C
:10083800000070477FEA226216BF08467FEA2363FA
:100848000146420206BF5FEA412390EA010F40F4E5
:10085800800070474FF0000304E000BF10F0004331
:1008680048BF40425FEA000C08BF704743F0964318
:1008780001464FF000001CE050EA010208BF704733
:100888004FF000030AE000BF50EA010208BF7047BA
:1008980011F0004302D5404261EB41015FEA010CCF
:1008A80002BF84460146002043F0B64308BFA3F1C7
:1008B8008053A3F50003BCFA8CF2083AA3EBC253A9
:1008C80010DB01FA02FC634400FA02FCC2F12002C8
:1008D800BCF1004F20FA02F243EB020008BF20F0FF
:1008E8000100704702F1200201FA02FCC2F1200265
:1008F80050EA4C0021FA02F243EB020008BF20EA5A
:10090800DC7070474FF0FF0C1CEAD0521EBF1CEA87
:10091800D15392EA0C0F93EA0C0F6FD01A4480EA75
:10092800010C400218BF5FEA41211ED04FF000635E
:1009380043EA501043EA5111A0FB01310CF000408A
:10094800B1F5000F3EBF490041EAD3715B0040EAB0
:10095800010062F17F02FD2A1DD8B3F1004F40EB80
:10096800C25008BF20F00100704790F0000F0CF053
:10097800004C08BF49024CEA502040EA51207F3A17
:10098800C2BFD2F1FF0340EAC250704740F40000F2
:100998004FF00003013A5DDC12F1190FDCBF00F0E3
:1009A80000407047C2F10002410021FA02F1C2F191
:1009B800200200FA02FC5FEA310040F1000053EA2D
:1009C8004C0308BF20EADC70704792F0000F00F07B
:1009D800004C02BF400010F4000F013AF9D040EA81
:1009E8000C0093F0000F01F0004C02BF490011F415
:1009F800000F013BF9D041EA0C018FE70CEAD15313
:100A080092EA0C0F18BF93EA0C0F0AD030F0004C92
:100A180018BF31F0004CD8D180EA010000F0004046
:100A2800704790F0000F17BF90F0004F084691F004
:100A3800000F91F0004F14D092EA0C0F01D142023E
:100A48000FD193EA0C0F03D14B0218BF084608D107
:100A580080EA010000F0004040F0FE4040F4000051
:100A6800704740F0FE4040F4400070474FF0FF0CE4
:100A78001CEAD0521EBF1CEAD15392EA0C0F93EA2B
:100A88000C0F69D0A2EB030280EA010C49024FEA7D
:100A9800402037D04FF0805343EA111143EA101336
:100AA8000CF000408B4238BF5B0042F17D024FF4EE
:100AB800000C8B4224BF5B1A40EA0C00B3EB510FC9
:100AC80024BFA3EB510340EA5C00B3EB910F24BFB2
:100AD800A3EB910340EA9C00B3EBD10F24BFA3EB37
:100AE800D10340EADC001B0118BF5FEA1C1CE0D1FF
:100AF800FD2A3FF650AF8B4240EBC25008BF20F0B2
:100B0800010070470CF0004C4CEA50207F32C2BF05
:100B1800D2F1FF0340EAC250704740F400004FF0A2
:100B28000003013A37E792F0000F00F0004C02BFD3
:100B3800400010F4000F013AF9D040EA0C0093F09D
:100B4800000F01F0004C02BF490011F4000F013BF7
:100B5800F9D041EA0C0195E70CEAD15392EA0C0F5F
:100B680008D142027FF47DAF93EA0C0F7FF470AF97
:100B7800084676E793EA0C0F04D14B023FF44CAFDA
:100B880008466EE730F0004C18BF31F0004CCAD16F
:100B980030F000427FF45CAF31F000437FF43CAFAB
:100BA8005FE700BF4FF0FF3C06E000BF4FF0010CCD
:100BB80002E000BF4FF0010C4DF804CD4FEA4002AF
:100BC8004FEA41037FEA226C18BF7FEA236C11D0F9
:100BD80001B052EA530C18BF90EA010F58BFB2EBAC
:100BE800030088BFC81738BF6FEAE17018BF40F02C
:100BF800010070477FEA226C02D15FEA402C05D1E0
:100C08007FEA236CE4D15FEA412CE1D05DF8040B64
:100C1800704700BF844608466146FFE70FB5FFF7F7
:100C2800C9FF002848BF10F1000F0FBD4DF808EDAF
:100C3800FFF7F4FF0CBF012000205DF808FB00BFA0
:100C48004DF808EDFFF7EAFF34BF012000205DF8FA
:100C580008FB00BF4DF808EDFFF7E0FF94BF012047
:100C680000205DF808FB00BF4DF808EDFFF7D2FF44
:100C780094BF012000205DF808FB00BF4DF808ED87
:100C8800FFF7C8FF34BF012000205DF808FB00BF54
:100C98004FEA4002B2F1FE4F0FD34FF09E03B3EB81
:100CA80012620DD94FEA002343F0004310F0004FC1
:100CB80023FA02F018BF404270474FF00000704717
:100CC80012F1610F01D1420205D110F0004008BFB6
:100CD8006FF0004070474FF00000704753B94AB9B1
:100CE800002908BF00281CBF4FF0FF314FF0FF302C
:100CF80000F074B9ADF1080C6DE904CE00F006F807
:100D0800DDF804E0DDE9022304B070472DE9F0477F
:100D1800089E0D4604468846002B4DD18A429446CB
:100D280068D9B2FA82F252B101FA02F3C2F1200193
:100D380020FA01F10CFA02FC41EA030894404FEA58
:100D48001C45210CB8FBF5FE1FFA8CF705FB1E832A
:100D580041EA03430EFB07F199420BD91CEB03034D
:100D68000EF1FF3080F01E81994240F21B81AEF1F6
:100D7800020E63445B1AA4B2B3FBF5F005FB103313
:100D880044EA034400FB07F7A7420AD91CEB040412
:100D980000F1FF3380F00881A74240F205816444E6
:100DA8000238E41B40EA0E4000211EB1D440002363
:100DB800C6E90043BDE8F0878B4208D9002E00F051
:100DC800EE800021C6E900050846BDE8F087B3FAC1
:100DD80083F100294AD1AB4202D3824200F2F98062
:100DE800841A65EB030301209846002EE2D0C6E979
:100DF8000048DFE702B9FFDEB2FA82F2002A40F0CB
:100E08009180A1EB0C054FEA1C471FFA8CFE0121CB
:100E1800B5FBF7F307FB1350250C45EA00450EFB1D
:100E280003F0A84208D91CEB050503F1FF3802D2EC
:100E3800A84200F2CB8043462D1AA4B2B5FBF7F0C6
:100E480007FB105544EA05440EFB00FEA64508D9E9
:100E58001CEB040400F1FF3502D2A64500F2BB806A
:100E68002846A4EB0E0440EA03409EE7C1F12007A0
:100E78008B4022FA07FC4CEA030C20FA07F405FA27
:100E880001F31C43FD404FEA1C4900FA01F3B5FB8E
:100E9800F9F8200C1FFA8CFE09FB185540EA0545A5
:100EA80008FB0EF0A84202FA01F20BD91CEB05056B
:100EB80008F1FF3A80F08880A84240F28580A8F1C6
:100EC800020865442D1AA4B2B5FBF9F009FB1055C8
:100ED80044EA054500FB0EFEAE4508D91CEB0505A6
:100EE80000F1FF346CD2AE456AD90238654440EA55
:100EF8000840A0FB0294A5EB0E05A542C846A646ED
:100F080056D353D05EB1B3EB080265EB0E0505FA74
:100F180007F722FA01F3CD401F43C6E90075002107
:100F2800BDE8F087C2F1200320FA03F10CFA02FCB5
:100F380025FA03F395400D434FEA1C471FFA8CFE30
:100F4800B3FBF7F107FB11302B0C43EA004301FB1D
:100F58000EF0984204FA02F408D91CEB030301F1DD
:100F6800FF382FD298422DD9023963441B1AADB2EB
:100F7800B3FBF7F007FB103345EA034500FB0EF31C
:100F8800AB4208D91CEB050500F1FF3816D2AB427D
:100F980014D902386544ED1A40EA014138E7314670
:100FA800304607E78646E5E61846FAE64B45A9D2F5
:100FB800B9EB020864EB0C0E0138A3E74046EAE7F8
:100FC800204694E74146D1E7D0467BE7023B65449B
:100FD80032E7084609E76444023842E7704700BF31
:100FE80070B54FF0FF0C4CF4E06C1CEA11541DBFB7
:100FF8001CEA135594EA0C0F95EA0C0F00F0DEF882
:101008002C4481EA030621EA4C5123EA4C5350EA66
:10101800013518BF52EA033541F4801143F48013B7
:1010280038D0A0FB02CE4FF00005E1FB02E506F048
:101038000042E0FB03E54FF00006E1FB03569CF09D
:10104800000F18BF4EF0010EA4F1FF04B6F5007FA3
:1010580064F5407404D25FEA4E0E6D4146EB060615
:1010680042EAC62141EA55514FEAC52040EA5E509E
:101078004FEACE2EB4F1FD0C88BFBCF5E06F1ED848
:10108800BEF1004F08BF5FEA500E50F1000041EB7F
:10109800045170BD06F0004646EA010140EA02002C
:1010A80081EA0301B4EB5C04C2BFD4EB0C0541EA4E
:1010B800045170BD41F480114FF0000E013C00F363
:1010C800AB8014F1360FDEBF002001F0004170BD87
:1010D800C4F10004203C35DA0C341BDC04F11404A0
:1010E800C4F1200500FA05F320FA04F001FA05F22C
:1010F80040EA020001F0004221F0004110EBD370F9
:1011080021FA04F642EB06015EEA430E08BF20EA24
:10111800D37070BDC4F10C04C4F1200500FA04F3C7
:1011280020FA05F001FA04F240EA020001F0004159
:1011380010EBD37041F100015EEA430E08BF20EACC
:10114800D37070BDC4F1200500FA05F24EEA020E14
:1011580020FA04F301FA05F243EA020321FA04F043
:1011680001F0004121FA04F220EA020000EBD370FA
:101178005EEA430E08BF20EAD37070BD94F0000FFA
:101188000FD101F00046400041EB010111F4801F2E
:1011980008BF013CF7D041EA060195F0000F18BFDF
:1011A800704703F00046520043EB030313F4801F1B
:1011B80008BF013DF7D043EA0603704794EA0C0FD5
:1011C8000CEA135518BF95EA0C0F0CD050EA4106EB
:1011D80018BF52EA4306D1D181EA030101F0004168
:1011E8004FF0000070BD50EA410606BF1046194690
:1011F80052EA430619D094EA0C0F02D150EA01369C
:1012080013D195EA0C0F05D152EA03361CBF1046DC
:1012180019460AD181EA030101F0004141F0FE417B
:1012280041F470014FF0000070BD41F0FE4141F4FF
:10123800780170BD70B54FF0FF0C4CF4E06C1CEAFF
:1012480011541DBF1CEA135594EA0C0F95EA0C0FB4
:1012580000F0A7F8A4EB050481EA030E52EA03356F
:101268004FEA013100F088804FEA03334FF0805590
:1012780045EA131343EA12634FEA022245EA1115BD
:1012880045EA10654FEA00260EF000419D4208BF6E
:10129800964244F1FD0404F5407402D25B084FEA1B
:1012A8003202B61A65EB03055B084FEA32024FF4C7
:1012B80080104FF4002CB6EB020E75EB030E22BF24
:1012C800B61A754640EA0C005B084FEA3202B6EBE4
:1012D800020E75EB030E22BFB61A754640EA5C0093
:1012E8005B084FEA3202B6EB020E75EB030E22BF23
:1012F800B61A754640EA9C005B084FEA3202B6EB24
:10130800020E75EB030E22BFB61A754640EADC00E2
:1013180055EA060E18D04FEA051545EA16754FEA44
:1013280006164FEAC30343EA52734FEAC2025FEA62
:101338001C1CC0D111F4801F0BD141EA00014FF0F1
:1013480000004FF0004CB6E711F4801F04BF0143C2
:101358000020B4F1FD0C88BFBCF5E06F3FF6AFAEDE
:10136800B5EB030C04BFB6EB020C5FEA500C50F16E
:10137800000041EB045170BD0EF0004E4EEA1131F1
:1013880014EB5C04C2BFD4EB0C0541EA045170BDF8
:1013980041F480114FF0000E013C90E645EA060E3C
:1013A8008DE60CEA135594EA0C0F08BF95EA0C0F6A
:1013B8003FF43BAF94EA0C0F0AD150EA01347FF4B2
:1013C80034AF95EA0C0F7FF425AF104619462CE789
:1013D80095EA0C0F06D152EA03353FF4FDAE1046EC
:1013E800194622E750EA410618BF52EA43067FF43D
:1013F800C5AE50EA41047FF40DAF52EA43057FF4CD
:10140800EBAE12E74FEA410C7FEA6C5C02D150EA7E
:10141800013C0AD14FEA430C7FEA6C5C02D152EAE4
:10142800033C02D14FF0000070474FF001007047B5
:101438004FEA40024FEA41037FEA226C02D15FEA99
:10144800402C08D17FEA236C02D15FEA412C02D1FB
:101458004FF0000070474FF00100704710B58AB098
:1014680001220892002306930792009301930293A6
:101478000393059304930E4C6946204602F00CFD35
:10148800204602F0A7FD0221204602F0FBFE0E23B3
:1014980009930593074C6946204602F0FDFC204657
:1014A80002F098FD0221204602F0ECFE0AB010BDC1
:1014B800140500203C05002070B58AB0044601AB35
:1014C80003AA002102F029FE3A4B9C4204D03A4B71
:1014D8009C4257D00AB070BD039A40F205239A4245
:1014E8001DD0039A40F206239A42F0D19DF80420B9
:1014F8009DF8053043EA0223304A13809DF8062000
:101508009DF8073043EA02232D4A13809DF80820EE
:101518009DF8093043EA02232A4A1380D7E79DF849
:1015280005C04FEA0C2C0FFA8CFC9DF806009DF8BC
:1015380007209DF808301E0946EA02161D0205F428
:1015480070659DF809301D4310231F4A1F494CEA56
:10155800000001F0ECFB1E4B18600C231D4A1E49CD
:10156800304601F0E4FB1D4B18600C231C4A1D4952
:10157800284601F0DCFB1C4B18601C4A1368013339
:101588001360AEE7039A40F206239A42A2D19DF86F
:1015980004209DF8053043EA02231BB2144A138045
:1015A8009DF806209DF8073043EA02231BB2114A32
:1015B80013808FE7140500203C050020B4040020A8
:1015C800B6040020B8040020C3F54840C3F548C05D
:1015D800C00400200000F0410000F0C1C404002055
:1015E80000002041000020C1C8040020BC040020E5
:1015F800B0040020B204002070B582B02D4B4FF427
:1016080004721A6000229A60DA60082119612A4B74
:10161800B3F800E01FFA8EFE0EF5806E588880B28F
:1016280000F580609C88A4B204F58065D9881FFA0B
:1016380081FC0CF58061CEF30A0E204E06EAC0202C
:101648004EEA000EC5F380204EEA845E40F6FE7C2A
:101658000CEA410C4CEA000C197A090301F44051D8
:101668004CEA010C5B7A9B0303F440434CEA030CFD
:10167800134B1B781B0403F480334CEA030C0FE074
:10168800D300C3F12000A3F120012EFA03F30CFAD2
:1016980000F003432CFA01F10B430A498B54013241
:1016A800072AEDDD01AB074A0249074802F0C0FCF2
:1016B80002B070BDD40400200000002000F83F00F4
:1016C800F8040020CC0400203C05002000B585B0BB
:1016D800184A40F2FF13136000239360D360082177
:1016E80011610193029301F023FD134B1B78DBB2C8
:1016F800012B01D0002311E0104A138843F307237C
:101708008DF8063013888DF80730F3E703F11002DF
:101718006A4412F80C1C0A4AD1540133072BF5DD30
:1017280003AB074A0349074802F082FC05B05DF89D
:1017380004FB00BFD4040020F8040020F0070020B8
:10174800CC0400203C05002000B585B001F062FC07
:10175800174A40F2FF13136000239360D3600821F7
:10176800116101930293134B1B78DBB2012B01D05B
:10177800002311E0104BB3F9002093F901308DF8E4
:1017880006308DF80720F3E703F110026A4412F8D7
:101798000C1C0A4AD1540133072BF5DD03AB074A69
:1017A8000349074802F044FC05B05DF804FB00BF9C
:1017B800D4040020F8040020BE070020CC04002038
:1017C8001405002038B5044690F84200C0B220281D
:1017D80015D1B1B10AB9012038BDA162A285002591
:1017E8006564206813460A46011DE06B02F0DEFFBF
:1017F8002268536943F0400353612846ECE702200E
:10180800EAE70120E8E7000000B583B00023019370
:10181800084803681A6801925A680192019ADA68BE
:1018280042F01002DA6032220349FFF7CBFF03B01F
:101838005DF804FB000700200005002010B5374ABA
:1018480013680133136091F800C04B784CEA032CFD
:10185800CCF30A0CA0F800C0ACF5806C0FFA8CFC35
:10186800A0F800C04A788B78D20842EA4312C2F343
:101878000A024280A2F5806212B242808B78CC784C
:101888009B0943EA84030C7943EA8423C3F30A03DC
:101898008380A3F580631BB2838091F804E04C79C0
:1018A8004FEA5E0E4EEAC41ECEF30A0EA0F806E01A
:1018B800AEF5806E0FFA8EFEA0F806E04C79A4090A
:1018C80004724979C1F301114172BCF1000FB8BF2C
:1018D800CCF1000C1FFA8CFCBCF5257F17D8002A28
:1018E800B8BF524292B2B2F5257F10D8002BB8BFCC
:1018F8005B429BB2B3F5257F09D8BEF1000FB8BF94
:10190800CEF1000E1FFA8EFEBEF5257F05D9002305
:10191800036043608360C360036110BDFC04002062
:10192800406880B27047000010B582B00023019370
:1019380003681A6801925B680193019B104B9842F7
:1019480001D002B010BD0446C36B1A68136823F0B7
:1019580001031360C36B1868FFF7E2FF20280AD061
:10196800E36B1B6832225A60E36B1A68136843F012
:1019780001031360E5E703490348FFF75FFFEFE75B
:1019880000070020000500200000002008B50368BB
:101998001A6812F0100F03D0DB6813F0100F00D193
:1019A80008BDFFF7C1FFFBE7F8B500F06DF800F0E0
:1019B8006CF800F0D5F8322000F0A8F800F0C6F86E
:1019C800322000F0A3F8002000F060F8102823D19E
:1019D8000024032C1ED8114A04EB4403D118D55C0B
:1019E8004E783146284600F069F8962000F092F8C3
:1019F800284600F04BF80546962000F08BF8AE42DA
:101A080002D10134E4B2E4E704EB4407034B1F447A
:101A1800B87800E00020F8BD4020FCE7247D0008ED
:101A280010B582B0044606226946032000F05CF82F
:101A38009DF801301B021BB29DF800001843FEF709
:101A48000DFF1049FEF75EFF20609DF803301B0272
:101A58001BB29DF802001843FEF700FF0949FEF784
:101A680051FF60609DF805301B021BB29DF8040011
:101A78001843FEF7F3FE0349FEF744FFA06002B0E7
:101A880010BD00BF9A99993E7047704700B587B05E
:101A9800024600238DF817300A230293012301938D
:101AA8000DF1170100911C21034803F00FFD9DF86B
:101AB800170007B05DF804FBC405002000B587B027
:101AC80002468DF817100A230293012301930DF1A2
:101AD800170100911C21034803F046FC07B05DF88C
:101AE80004FB00BFC405002000B585B00A2302939B
:101AF80001920091012302461C21034803F0E6FCF1
:101B080005B05DF804FB00BFC405002008B502F06D
:101B180009F908BD10B44FF0E0235C6900EBC00080
:101B28004FEAC00C9B69002104E0E01A024411440A
:101B3800614509D21A464FF0E0239B699A42FAD0D0
:101B4800F3D9D21A1144F3E710BC704708B5012243
:101B58004021024803F08CF808BD00BF001802407D
:101B680008B500224021024803F082F808BD00BFF2
:101B7800001802402DE9F0438DB000240794089422
:101B880009940A940B940194484B1A6B42F0020290
:101B98001A631A6B02F002020192019A02941A6BFC
:101BA80042F001021A631A6B02F001020292029AD1
:101BB80003941A6B42F008021A631A6B02F00802C7
:101BC8000392039A04941A6B42F004021A631A6B84
:101BD80002F004020492049A05941A6B42F08002FF
:101BE8001A631A6B02F080020592059A06941A6B22
:101BF80042F040021A631B6B03F040030693069BF6
:101C08002B4E01224021304603F032F8DFF8A49031
:101C180022464FF4E051484603F02AF8DFF898804E
:101C280001221021404603F023F8244F01221146D7
:101C3800384603F01DF840230793012508950995B8
:101C48000A9507A9304602F021FF4FF4E0530793A5
:101C5800089509940A9407A9484602F017FF082333
:101C680007934FF404130893099507A9304602F027
:101C78000DFF102307930895099402260A9607A9D1
:101C8800404602F003FF0795089509940A9607A9AC
:101C9800384602F0FBFE22462146092002F048FCA5
:101CA800092002F07DFC0DB0BDE8F0830038024049
:101CB80000180240001C02400000024000040240DC
:101CC80000B583B000210191094B1A6B42F4001250
:101CD8001A631B6B03F400130193019B0A460C2043
:101CE80002F026FC0C2002F05BFC03B05DF804FB5C
:101CF80000380240082800D0704708B50148FFF7AF
:101D08008FFE08BDEC04002010B50A4C01224FF4E8
:101D18008051204602F0ACFF01224FF400612046BA
:101D280002F0A6FF01224FF48061204602F0A0FFD6
:101D380010BD00BF001C024010B50A4C00224FF431
:101D48008051204602F094FF00224FF400612046A3
:101D580002F08EFF00224FF48061204602F088FFD7
:101D680010BD00BF001C024072B6FEE708B50A4865
:101D78000A4B03600A4B436000238360C3604FF43F
:101D880080620261042242618361C36105F072F8D6
:101D980000B908BDFFF7E8FF000700200048004031
:101DA800A086010008B50E480E4B03604FF48273FD
:101DB800436000238360C360022202610122426102
:101DC8004FF4007282611822C26103624362836227
:101DD8000A23C36204F00AF900B908BDFFF7C4FF7B
:101DE800180600200030014000B587B00023029398
:101DF800039304930593009301931448144A0260D3
:101E080040F28F62426083606322C2600361436173
:101E1800836104F049FE90B94FF48053029302A9FC
:101E28000A4804F079FE60B90023009301936946DB
:101E3800064804F0F1FE30B907B05DF804FBFFF77F
:101E480093FFFFF791FFFFF78FFF00BF7006002099
:101E58000000014000B587B0002302930393049368
:101E680005930093019314484FF08042026040F2BA
:101E78004732426083606322C2600361836104F079
:101E880013FE90B94FF48053029302A90A4804F054
:101E980043FE60B90023009301936946064804F0A5
:101EA800BBFE30B907B05DF804FBFFF75DFFFFF735
:101EB8005BFFFFF759FF00BFB806002008B50D48C3
:101EC8000D4B03600323436000238360C3604FF41A
:101ED800102202614FF40012426103764376837642
:101EE800C3760377437701F031FF00B908BDFFF7E8
:101EF8003BFF00BF140500200064004008B50D48F2
:101F08000D4B03600323436000238360C3604FF4D9
:101F1800102202614FF40012426103764376837601
:101F2800C3760377437701F011FF00B908BDFFF7C7
:101F38001BFF00BF3C0500200068004008B50A48A8
:101F48000A4B03600A4B436000238360C3604FF46D
:101F58008042026143618361C361036203F026F931
:101F680000B908BDFFF700FFC4050020005C004071
:101F7800801A060000B595B03022002108A805F0A7
:101F8800A3F90023039304930593069307930193FE
:101F9800204A116C41F080511164126C02F0805299
:101FA8000192019A02931C4B1A6842F480421A600B
:101FB8001B6803F480430293029B012308934FF4A8
:101FC8008033099302230E934FF480020F92062266
:101FD8001092A822119212930423139308A803F0D5
:101FE800F1FB98B90F23039302230493002305936D
:101FF8004FF4A05306934FF480530793052103A889
:1020080003F02EFE20B915B05DF804FBFFF7ACFE17
:10201800FFF7AAFE003802400070004008B51D4ACC
:10202800936823F00303936001F050FEFFF7A2FFCB
:10203800FFF7A0FDFFF744FEFFF798FEFFF7B2FE9B
:10204800FFF7D2FEFFF706FFFFF738FFFFF756FF4F
:10205800FFF774FFFFF7D8FBFFF700FA00F008FF5F
:102068000D4804F0BDFB0D4804F0BAFBFFF79CFCDB
:1020780000F090FC0A4B1B78DBB2012B06D0084B12
:102088001B78002BF6D1FFF757FEF3E7FFF73CFE6E
:10209800F5E700BF0038024070060020B8060020AF
:1020A800F804002082B0002100910B4B5A6C42F4D6
:1020B80080425A645A6C02F480420092009A01915C
:1020C8001A6C42F080521A641B6C03F0805301931F
:1020D800019B02B0704700BF0038024010B58AB0BB
:1020E80000230593069307930893099303683D4AD1
:1020F800934204D03C4A934234D00AB010BD3B4AC4
:10210800136801331360012B1FD000240194384B4E
:102118001A6B42F008021A631B6B03F00803019361
:10212800019B03230593022206920893092309932E
:1021380005A9304802F0AAFC22462146142002F0E4
:10214800F7F9142002F02CFAD7E700230093284B64
:102158001A6C42F000721A641B6C03F0007300934F
:10216800009BD2E700230293214B1A6C42F0806255
:102178001A641B6C03F080630293029B1B4A13686A
:1021880001331360012B20D000240494184B1A6BE0
:1021980042F002021A631B6B03F002030493049BD0
:1021A80060230593022306930323089309230993C5
:1021B80005A9114802F06AFC22462146402002F097
:1021C800B7F9402002F0ECF997E700230393084B96
:1021D8001A6C42F000721A641B6C03F000730393CC
:1021E800039BD1E7006400400068004048070020D6
:1021F80000380240000C0240000402402DE9F04182
:1022080088B0002303930493059306930793026809
:10221800204B9A4202D008B0BDE8F0810025009515
:102228001D4C236B43F004032363236B03F0040367
:102238000093009B0195236B43F001032363236BF9
:1022480003F001030193019B4FF4007303934FF0D4
:102258001208CDF81080032706970426079603A9CD
:102268000E4802F013FC4FF480730393CDF81080EE
:1022780005950697079603A9094802F007FC0295F9
:10228800236C43F400032364236C03F400030293D8
:10229800029BC0E7005C0040003802400008024092
:1022A80000000240F0B589B000230393049305931E
:1022B800069307930268224B9A4201D009B0F0BDF9
:1022C8000024009403F584335A6C42F480525A6413
:1022D8005A6C02F480520092009A01941A6B42F0F0
:1022E80002021A631A6B02F002020192019A029426
:1022F8001A6B42F001021A631B6B03F0010302938D
:10230800029B1823039302270497032606960525A4
:10231800079503A90B4802F0B9FB802303930497A0
:1023280005940696079503A9074802F0AFFB2246D5
:102338002146232002F0FCF8232002F031F9BDE702
:1023480000300140000402400000024000B583B0A4
:102358000368194A934205D0B3F1804F16D003B0F1
:102368005DF804FB00210091144B5A6C42F0010205
:102378005A645B6C03F001030093009B0A46192022
:1023880002F0D6F8192002F00BF9E8E700210191D4
:1023980003F50E331A6C42F001021A641B6C03F049
:1023A80001030193019B0A461C2002F0C1F81C207E
:1023B80002F0F6F8D3E700BF000001400038024001
:1023C80030B589B0002303930493059306930793CC
:1023D8000268284B9A4201D009B030BD0446002556
:1023E800019503F5F8331A6C42F480221A641A6CCA
:1023F80002F480220192019A02951A6B42F00402BB
:102408001A631B6B03F004030293029B4FF44063AF
:10241800039302230493032306930723079303A933
:10242800154802F033FB1548154B03604FF0006365
:1024380043608560C5604FF48063036145618561D1
:102448004FF48073C3614FF440330362456202F076
:1024580047F958B9094BE3639C63002211462720CA
:1024680002F066F8272002F09BF8B5E7FFF77CFC3E
:10247800F0E700BF00480040000802406405002063
:1024880028600240FEE7FEE7FEE7FEE7FEE770474A
:102498007047704708B501F033FC08BD08B508203F
:1024A80002F0ECFB08BD000008B5024802F000FA93
:1024B80008BD00BF6405002008B5024801F000FF10
:1024C80008BD00BF1405002030B587B01C4A13684A
:1024D8000133136000F0E4FA1A491B4D1B4B9A684C
:1024E80005925A6804921B680393194B9A680292E2
:1024F8005A6801921B6800938B684A6809682846E5
:1025080001F094F8134C2346221FA4F10801284631
:1025180000F094FB54F8084C0F4B19682046FEF75E
:10252800ADFB08B10C4B1C6021460C48FEF7E0F8E7
:102538000B4B18600B4804F09CF907B030BD00BF86
:10254800640700208C0700202C000020EC040020E9
:10255800780700207407002058070020DA0F494048
:102568004C0700207006002070B582B09E4A1368A0
:10257800013313609D4A82FB0312D118DA17C2EBAC
:10258800A112462101FB1232012A3FD0984981FB52
:102598000321DA17C2EB610202EB82029A1A012ABE
:1025A80049D0914B1A68924981FB0231D317C3EB8A
:1025B800A10303EB8303A2EB4303012B3ED08A4B19
:1025C8001A688B4981FB0231D317C3EB610303EB14
:1025D8008303D31A012B00F0D280834B1A688449F5
:1025E80081FB0231D317C3EB610303EB8303D31AD7
:1025F800012B00F0E3807F4B1B78DBB2012B00F04E
:102608001D817D4804F035F902B070BD7B4AB2F9EE
:1026180000107B4A1268914207D0764A0121117056
:10262800774A1168754A1180B0E7002271490A702B
:1026380073490A60F4E7FEF7DFFFB2E7714B1B68E6
:10264800B3F5967F5CDB6F4B1C68B4F5967F67D05B
:10265800684B1B7843B96C4B00221A806B4B186887
:10266800FEF7FCF86A4B1860624B1B78DBB2012B53
:1026780064D0604B1B78DBB2012BA0D1654BB3F95A
:102688000030012B9BD1604BB3F90030012B96D160
:10269800614B588800B2FDF7E5FE4DA3D3E900234E
:1026A800FEF79EFC04460D465C4E3068FDF7ECFED6
:1026B80022462B46FDF78AFDFDF7C6FF3060FDF781
:1026C800E3FE45A3D3E90023FDF7B4FF08B1544A5C
:1026D8003260524B1868FDF7D7FE41A3D3E90023B7
:1026E800FDF78AFF10B14D4B4E4A1A600021009148
:1026F8004FF07C534C4A4948006800F051FB5EE7B4
:102708004FF07F50454B186000210091474B4FF028
:10271800824200F045FB3B4A13680133136092E79D
:102728004349444B1868FDF7E5FF3C4B1860394BAB
:1027380001221A801444334B1C6089E7354BB3F9E6
:102748000030012B95D1304BB3F90030002B90D1DC
:1027580000F08EFB2D4B1868FEF780F82C4B19689B
:10276800FEF764FA002884D13149324B1868FDF726
:10277800C1FF2A4B1860244B01221A8079E71D4BB0
:102788001B78DBB2012B0FD01A4B1B78002B7FF480
:1027980024AF294B1B78012B7FF41FAF00F08AFB75
:1027A800254B00221A7018E7234B1B78002BEBD11E
:1027B80000F05EFB204B01221A70E5E70D4B1B78F9
:1027C800DBB2012B7FF417AFFEF780FF13E700BFE2
:1027D800691D554D1075EF3E3D0AD7A3703D004069
:1027E8001F85EB51B81EF13F68070020EBA00EEAE9
:1027F80067666666F8040020B80600205E070020B9
:10280800FC0400205407002052070020BC040020CC
:1028180018000020500700200000002014000020AD
:1028280085EB0140C3F5883F000048429A99993EDC
:10283800C3F5C840C0040020600700202A4B5B7A1B
:10284800DBB2032B2CD0294B1B68294981FB0321C0
:10285800DA17C2EB61124FF4967101FB1232012AAA
:1028680030D05A4203F0030302F0030258BF534228
:10287800012B35D0FEF768FF1E4BB3F90030B3F5D6
:10288800FA5F7FF7BEAE1C4B1B78012B7FF4B9AE05
:102898001A4A1368043B1360174B00221A70B0E6FB
:1028A800154B1B78002BCED1154A138801339BB2E8
:1028B8001380462BC7D9104B01221A70104B0022E7
:1028C8001A80C0E7084A527AD2B2032AC9D10A4A02
:1028D8001278012AC5D109490A6804320A60C0E79A
:1028E80000F00AFBC6E700BF0000002068070020D0
:1028F800B5814E1BB80400201C000020E80700200A
:102908005C07002008B5024803F0A0FE08BD00BF20
:102918001806002010B5044C2046FFF737F820466B
:1029280004F064FB10BD00BF0007002008B5024892
:1029380001F0C6FC08BD00BF3C0500207047000040
:10294800DFF834D0FFF7FAFF0C480D490D4A002391
:1029580002E0D458C4500433C4188C42F9D30A4A4C
:102968000A4C002301E013600432A242FBD304F0B6
:1029780087FCFFF753FB704700000220000000208F
:1029880094040020A47D0008940400201C08002062
:10299800FEE7000010B5002210213D4802F068F95A
:1029A8003C497E230B704FF47A7301223A4803F0B6
:1029B8007CFB394803F0E4FE0328FAD03549B623F6
:1029C8000B704FF47A730122334803F06EFB3248E0
:1029D80003F0D6FE0328FAD0012001F0A3F92C4C0D
:1029E80001221021204602F043F90022102120463E
:1029F80002F03EF927497D230B704FF47A730122C8
:102A0800254803F052FB244803F0BAFE0328FAD005
:102A1800204904230B704FF47A7301221E4803F0F7
:102A280044FB1D4803F0ACFE0328FAD0012001F056
:102A380079F901221021164802F01AF90022012121
:102A4800164802F015F9134914230B704FF47A73E2
:102A58000122114803F029FB0F4803F091FE0328D7
:102A6800FAD00C49B6230B704FF47A7301220A4846
:102A780003F01BFB084803F083FE0328FAD01E204E
:102A880001F050F901221146044802F0F1F810BD96
:102A980000000240990700201806002000040240A8
:102AA80070B5002210215B4802F0E2F85A499223DF
:102AB8000B704FF47A730122584803F0F6FA57481E
:102AC80003F05EFE0328FAD04FF47A7301225449CA
:102AD800524803F0F6FC514803F052FE0428FAD09D
:102AE800002411E04FF47A7301224D494B4803F05A
:102AF800E8FC4A4803F044FE0428FAD0484B1A7808
:102B0800484B1A55013424B2052CEBDD0122102163
:102B1800404802F0ADF8434C63781B021BB22078A2
:102B2800414A16681843FDF799FE3146FDF7EAFE5B
:102B38003E4D2860E3781B021BB2A0781843FDF7CE
:102B48008DFE3146FDF7DEFE686063791B021BB21D
:102B580020791843FDF782FE3146FDF7D3FEA860C1
:102B680000220121324802F083F82B4980230B70A0
:102B78004FF47A730122294803F097FA274803F0A3
:102B8800FFFD0328FAD0002411E04FF47A730122E4
:102B98002349224803F095FC204803F0F1FD04285E
:102BA800FAD01F4B1A781F4B1A55013424B2072C40
:102BB800EBDD012211461E4802F05AF8194B1B782A
:102BC8000F2B00D070BD174CE3781B021BB2A07806
:102BD800184A16681843FDF741FE3146FDF792FE84
:102BE800154D286063791B021BB220791843FDF745
:102BF80035FE3146FDF786FE6860E3791B021BB29D
:102C0800A0791843FDF72AFE3146FDF77BFEA86040
:102C1800D8E700BF000002409907002018060020EE
:102C2800980700208407002024000020780700204F
:102C380000040240280000208C0700202DE9F047FE
:102C48000446884617461E46D0F80090C168484694
:102C5800FDF758FE0546D4F804A0A1685046FDF7D4
:102C680051FE01462846FDF745FD054649464846BA
:102C7800FDF748FE814651465046FDF743FE0146A2
:102C88004846FDF737FD0146FDF734FD4FF07E510C
:102C9800FDF72EFD814629462846FDF72BFD4946BE
:102CA80004F01CFCC8F80000E1686068FDF72AFE23
:102CB8000546A1682068FDF725FE01462846FDF770
:102CC80017FD4FF04041FDF71DFE04F0E7FB3860AB
:102CD800256861682846FDF715FE8046E76839468D
:102CE800A068FDF70FFE01464046FDF703FD0446C8
:102CF80029462846FDF706FE054639463846FDF7BB
:102D080001FE01462846FDF7F5FC0146FDF7F2FCF9
:102D18004FF07E51FDF7ECFC054621462046FDF7B5
:102D2800E9FC294604F0DAFB3060BDE8F087F8B525
:102D380007460C461E461046FDF7DAFC054638469F
:102D4800FDF78CFD2946FDF7DDFD05460120B04065
:102D58000138FDF783FD01462846FDF787FE214629
:102D6800FDF7C8FCF8BDF8B505460F461E461046E7
:102D7800FDF7BEFC044639462846FDF7B9FC054672
:102D88000120B0400138FDF769FD01462846FDF7EE
:102D9800B9FD2146FDF76AFEFDF77AFFF8BD000090
:102DA8002DE9F04782B00C4616461D461023254AE9
:102DB8002549FFF7D8FF80461FFA80F90C23234ADC
:102DC80023492046FFF7CFFF87B24FF0000A0C23B4
:102DD800204A51463046FFF7C6FF064684B20C2308
:102DE8001D4A51462846FFF7BEFF85B20C231B4AF1
:102DF8001B490A98FFF7B7FF1A4901230B60002304
:102E08008B60CB6008230B61174A29FA03F982F813
:102E1800009082F801803B099370240A44EA071461
:102E2800D47016712B095371C0F3072343EA0515B3
:102E38009571D07101AB0D4801F0FAF802B0BDE808
:102E4800F08700BFC3F54840C3F548C00000F04113
:102E58000000F0C10000FA430000A040000020413B
:102E6800000020C1A40700209C07002014050020B2
:102E780000B583B00C4901230B6000238B60CB6045
:102E880008230B61094AFF23137053709370D370A2
:102E9800137153719371FC23D37101AB044801F092
:102EA800C7F803B05DF804FBA40700209C070020C6
:102EB8001405002000B583B00C4901230B600023E2
:102EC8008B60CB6008230B61094AFF231370537092
:102ED8009370D370137153719371FD23D37101AB48
:102EE800044801F0A5F803B05DF804FBA40700202E
:102EF8009C07002014050020F8B5384A10683849A6
:102F08000B6803EB40330B6000211160354A1588CC
:102F1800B5F5006F46D2344A1288B2F5C05F41D980
:102F2800A3F500532E4A13602D4B1C68641B2F4BCE
:102F38001C602F4A1368234413602E4A1668A61B88
:102F48002D4A166042F6E062934238DD284B1A603B
:102F58002046FDF783FC294B1968FDF7D3FC07468B
:102F6800234B1868FDF77AFC254B1968FDF7CAFC56
:102F780001463846FDF7BEFB07463046FDF76EFCB6
:102F8800204B1968FDF7BEFC01463846FDF7B2FB39
:102F9800FDF77EFEB0F5616F17DC10F5616F16DA8C
:102FA800194814E0B5F5C05FBED90F4A1288B2F5CA
:102FB800006FB9D203F50053094A1360B4E7134A06
:102FC8009342C5DA0A4B1A60C2E74FF46160104BAE
:102FD8001880084B1C60044B1D80F8BDE8070020D2
:102FE800EC070020B404002040000020C4070020A3
:102FF800C8070020D4070020C00700203C0000209C
:10300800D0070020CC070020F0F1FFFF20D1FFFF00
:10301800BC07002070B52A4B1C882A4B1B88E41A71
:10302800A5B224B2284B1C80284A13682344136095
:10303800274A1288AD1A2DB2264A158042F6302248
:1030480093422FDD214B1A602046FDF707FC224BE7
:103058001968FDF757FCFDF71BFE06461B4B186861
:10306800FDF7FCFB1D4B1968FDF74CFCFDF710FE46
:1030780006442846FDF7F2FB194B1968FDF742FC98
:1030880005463046FDF7EAFB2946FDF733FBFDF719
:10309800FFFD42F2107398420ADC124B984209DA9B
:1030A800104807E0104A9342CEDA084B1A60CBE783
:1030B80042F210700D4B1880054B1C8070BD00BF8C
:1030C800BC070020B6040020D8070020DC07002039
:1030D800E0070020E207002048000020440000200C
:1030E800E4070020F0D8FFFFD0D5FFFFBE0700207F
:1030F80008B50B4B1B78DBB2012B03D0094B002220
:103108001A8008BD084B188800B2FDF7A7FB0749CD
:10311800FDF7F8FBFDF7BCFD00B2024B1880F0E7A5
:10312800F80400200008002000000020CDCCCCBD11
:1031380070B5FFF7DDFF2B4B1C882B4B1B88E41A5F
:10314800A5B224B2294B1C80294A13682344136072
:10315800284A1288AD1A2DB2274A1580B3F5E16FB7
:1031680031DD234B4FF4E1621A602046FDF776FB10
:10317800224B1968FDF7C6FBFDF78AFD06461C4B76
:103188001868FDF76BFB1E4B1968FDF7BBFBFDF7D5
:103198007FFD06442846FDF761FB1A4B1968FDF7C9
:1031A800B1FB05463046FDF759FB2946FDF7A2FA63
:1031B800FDF76EFD46F2A81398420BDC124B9842BD
:1031C8000ADA114808E013F5E16FCEDA084B0F4A26
:1031D8001A60CAE746F2A81000B20D4B1880054BDA
:1031E8001C8070BD00080020B2040020F2070020F7
:1031F800F4070020F8070020FA07002050000020FC
:103208004C000020FC070020589EFFFFF8F8FFFF45
:10321800F007002010B504464FF07C51FDF772FB13
:1032280001462346094CA4EB63042046FDF76AFBDC
:1032380001462046FDF766FB01464FF07F50FDF73B
:1032480057FA01462046FDF75DFB10BDDF59375F91
:103258002DE9F04F85B004460D4600920193DDF844
:103268003890DDF83C80109F00214846FDF7DEFCD1
:1032780058B100214046FDF7D9FC30B1002138464D
:10328800FDF7D4FC002840F0F88049464846FDF791
:1032980039FB064641464046FDF734FB01463046B9
:1032A800FDF728FA064639463846FDF72BFB014656
:1032B8003046FDF71FFAFFF7ADFF064601464846C0
:1032C800FDF720FB039031464046FDF71BFB0290BB
:1032D80031463846FDF716FB8346D4F80490E76874
:1032E80039464846FDF70EFB0646D4F80080D4F868
:1032F80008A051464046FDF705FB01463046FDF75C
:10330800F7F9064641464846FDF7FCFA814651461C
:103318003846FDF7F7FA01464846FDF7EBF98146CE
:1033280041464046FDF7EEFA4FF07C51FDF7E0F9D3
:10333800804639463846FDF7E5FA01464046FDF72E
:10334800D9F9074601460298FDF7DCFA8046494656
:103358005846FDF7D7FA01464046FDF7C9F98046B9
:1033680031465846FDF7CEFA82463946DDF80CB0AC
:103378005846FDF7C7FA01465046FDF7B9F9074622
:1033880049465846FDF7BEFA814631460298FDF790
:10339800B9FA01464846FDF7ABF906469C4B186852
:1033A8000021FDF76BFC002800F02A81DFF860920D
:1033B800D9F800004146FDF7A5FA9649FDF7A2FAAB
:1033C8000146DFF854B2DBF80000FDF793F9CBF8BB
:1033D8000000D9F800003946FDF794FA8D49FDF749
:1033E80091FA0146DFF834A2DAF80000FDF782F915
:1033F800CAF80000D9F800003146FDF783FA85497C
:10340800FDF780FA0146DFF81892D9F80000FDF7B9
:1034180071F9C9F80000DBF800102846FDF76AF9D1
:103428000546DAF800100098FDF764F90090D9F81D
:1034380000100198FDF75EF90190DFF8E891D9F8DE
:1034480000004146FDF75EFA01462846FDF752F9AD
:103458000546D9F800003946FDF754FA01460098A8
:10346800FDF748F90090D9F800003146FDF74AFA0F
:1034780001460198FDF73EF901906B492846FDF792
:1034880041FA054668490098FDF73CFA0646664940
:103498000198FDF737FA0746D4F800B0D4F804A02D
:1034A800D4F808900AF1004000952946FDF72AFA59
:1034B800054649463046FDF725FA01462846FDF7F8
:1034C80017F90546D4F80C8039464046FDF71AFA34
:1034D80001462846FDF70CF95946FDF70BF901900E
:1034E800206059460098FDF70DFA054649463846CA
:1034F800FDF708FA01462846FDF7FCF8054631466F
:103508004046FDF7FFF901462846FDF7F1F8514618
:10351800FDF7F0F80290606059463046FDF7F2F981
:10352800054651463846FDF7EDF901462846FDF7B0
:10353800DFF8054600994046FDF7E4F901462846BC
:10354800FDF7D8F84946FDF7D5F80546A060594675
:103558003846FDF7D7F9074651463046FDF7D2F908
:1035680001463846FDF7C6F8064649460098FDF775
:10357800C9F901463046FDF7BBF801464046FDF75C
:10358800B9F80646E060DDF8048041464046FDF79C
:10359800B9F90746DDF8089049464846FDF7B2F9FB
:1035A80001463846FDF7A6F8074629462846FDF79E
:1035B800A9F901463846FDF79DF8074631463046D9
:1035C800FDF7A0F901463846FDF794F8FFF722FE0B
:1035D800074601464046FDF795F9206039464846BA
:1035E800FDF790F9606039462846FDF78BF9A06031
:1035F80039463046FDF786F9E06005B0BDE8F08F42
:103608000023054A1360054A1360054A136014E74E
:10361800100800206F1283390408002008080020D1
:103628000C080020540000206F1203392DE9F04FD8
:1036380095B083460791089209931E9E1F9FDDF857
:1036480080A0219DDDF88890DDF88C800021284637
:10365800FDF7ECFA58B100214846FDF7E7FA30B11A
:1036680000214046FDF7E2FA002840F0E7820021F9
:103678003046FDF7DBFA58B100213846FDF7D6FA97
:1036880030B100215046FDF7D1FA002840F00C82F5
:1036980031463046FDF736F9044639463846FDF7D7
:1036A80031F901462046FDF725F8044651465046B3
:1036B800FDF728F901462046FDF71CF8FFF7AAFD9B
:1036C800044601463046FDF71DF90B902146384661
:1036D800FDF718F90C9021465046FDF713F90D90A7
:1036E80029462846FDF70EF9044649464846FDF79F
:1036F80009F901462046FCF7FDFF044641464046CD
:10370800FDF700F901462046FCF7F4FFFFF782FDBC
:10371800044601462846FDF7F5F804902146484638
:10372800FDF7F0F8059021464046FDF7EBF80690C6
:10373800DBF8007039463846FDF7E4F80F90DBF8FF
:10374800045029463846FDF7DDF80E90DBF80840AE
:1037580021463846FDF7D6F80A90DBF80C6031466A
:103768003846FDF7CFF8814629462846FDF7CAF8BE
:10377800109021462846FDF7C5F88246314628466E
:10378800FDF7C0F8804621462046FDF7BBF8054600
:1037980031462046FDF7B6F8044631463046FDF777
:1037A800B1F8074629464FF07C50FCF7A1FF39468F
:1037B800FCF79EFF11900499FDF7A4F806464946C8
:1037C8005046FCF795FF12900599FDF79BF80146C6
:1037D8003046FCF78FFF064641460A98FCF78AFFF9
:1037E80013900699FDF78EF801463046FCF782FFE4
:1037F8000146FCF77FFF064651464846FCF77AFF2C
:103808000499FDF77FF8824610994FF07C50FCF739
:103818006FFF81463946FCF76BFF0599FDF772F893
:1038280001465046FCF766FF82460E992046FCF793
:103838005FFF0699FDF766F801465046FCF75AFF08
:103848000146FCF757FF824631463046FDF75AF8E5
:10385800064651465046FDF755F801463046FCF7F6
:1038680049FFFCF711FE03F0F1FDFCF7EDFE0646FB
:103878000A994046FCF73CFF0A900499FDF742F884
:10388800804621460E98FCF735FF04460599FDF75A
:1038980039F801464046FCF72DFF80462946484640
:1038A800FCF726FF82460699FDF72CF801464046AC
:1038B800FCF720FF0146FCF71DFF05464FF07C5141
:1038C8000F98FCF715FF3946FCF714FF814631467F
:1038D8001198FDF717F8074629460A98FDF712F8D8
:1038E80001463846FCF706FF074631461298FDF7B1
:1038F80009F8804629462046FDF704F80146404667
:10390800FCF7F8FE804631461398FCF7FBFF0646A5
:1039180029465046FCF7F6FF01463046FCF7EAFE1A
:10392800054649460C98FCF7EDFF06460D992046DA
:10393800FCF7E8FF01463046FCF7DAFE0646294662
:103948000598FCF7DFFF824641460698FCF7DAFF48
:1039580001465046FCF7CCFE01463046FCF7CAFE4D
:1039680006460D990A98FCF7CDFF824649460B9802
:10397800FCF7C8FF01465046FCF7BAFE81463946B7
:103988000698FCF7BFFF824629460498FCF7BAFF61
:1039980001465046FCF7ACFE01464846FCF7AAFE35
:1039A80005460B992046FCF7ADFF04460C990A988A
:1039B800FCF7A8FF01462046FCF79AFE044641465C
:1039C8000498FCF79FFF804639460598FCF79AFF54
:1039D80001464046FCF78CFE01462046FCF78AFE6D
:1039E8000446A04B18680021FDF748F9002800F0AC
:1039F80030819C4F38683146FCF784FF9A49FCF7C0
:103A080081FF0146DFF86492D9F80000FCF772FEE6
:103A1800C9F8000038682946FCF774FF9249FCF79A
:103A280071FF0146DFF84882D8F80000FCF762FE13
:103A3800C8F8000038682146FCF764FF8A49FCF79B
:103A480061FF01468B4F3868FCF754FE3860D9F89F
:103A580000100798FCF74EFE0790D8F80010089859
:103A6800FCF748FE089039680998FCF743FE09906E
:103A7800814F38683146FCF745FF01460798FCF747
:103A880039FE079038682946FCF73CFF014608983C
:103A9800FCF730FE089038682146FCF733FF0146F2
:103AA8000998FCF727FE099074490798FCF72AFF44
:103AB800044672490898FCF725FF05466F4909989E
:103AC800FCF720FF0746DBF80060DBF804A0DBF812
:103AD80008900AF1004004942146FCF713FF0446BD
:103AE800494605952846FCF70DFF01462046FCF798
:103AF800FFFD0446DBF80C8039464046FCF702FF20
:103B080001462046FCF7F4FD3146FCF7F3FD054677
:103B1800CBF8000031460498FCF7F4FE0446494609
:103B28003846FCF7EFFE01462046FCF7E3FD044665
:103B380005994046FCF7E6FE01462046FCF7D8FD0D
:103B48005146FCF7D7FD0690CBF80400314605989E
:103B5800FCF7D8FE044651463846FCF7D3FE01462A
:103B68002046FCF7C5FD044604994046FCF7CAFE0A
:103B780001462046FCF7BEFD4946FCF7BBFD04465E
:103B8800CBF8080031463846FCF7BCFE07465146DC
:103B98000598FCF7B7FE01463846FCF7ABFD06462C
:103BA80049460498FCF7AEFE01463046FCF7A0FDF6
:103BB80001464046FCF79EFD0646CBF80C00294618
:103BC8002846FCF79FFE0746DDF818804146404628
:103BD800FCF798FE01463846FCF78CFD074621465F
:103BE8002046FCF78FFE01463846FCF783FD074662
:103BF80031463046FCF786FE01463846FCF77AFD2A
:103C0800FFF708FB074601462846FCF77BFECBF882
:103C1800000039464046FCF775FECBF804003946EB
:103C28002046FCF76FFECBF8080039463046FCF713
:103C380069FECBF80C0015B0BDE8F08FCDF808A0F0
:103C480001970096099B089A07995846FFF700FBC9
:103C5800F1E70023054A1360054A1360054A13601B
:103C680006E700BF100800206F12833904080020FF
:103C7800080800200C080020540000206F120339A7
:103C880010B504460E4B18784FF47A73B3FBF0F373
:103C98000C4A1068B0FBF3F000F090FC68B90F2CE8
:103CA80001D901200AE0002221464FF0FF3000F040
:103CB8003FFC054B1C60002000E0012010BD00BF48
:103CC80058000020200000205C00002008B50B4BA5
:103CD8001A6842F400721A601A6842F480621A6024
:103CE8001A6842F480721A60032000F00FFC0F205B
:103CF800FFF7C6FFFEF7D6F9002008BD003C0240DA
:103D0800034A1168034B1B780B441360704700BFCC
:103D18001408002058000020014B1868704700BFA5
:103D28001408002038B50446FFF7F6FF0546B4F13D
:103D3800FF3F02D0044B1B781C44FFF7EDFF401BEC
:103D4800A042FAD338BD00BF58000020002800F078
:103D5800A18038B5044690F82030D3B122681368A2
:103D680043F001031360FFF7D7FF054623685A683D
:103D780012F0010F10D1FFF7CFFF401B0A28F5D929
:103D8800636A43F400336362052384F8203001201A
:103D980038BDFEF7A3F9E1E71A6822F002021A60BB
:103DA800FFF7BAFF054623685A6812F0020F0DD0D4
:103DB800FFF7B2FF401B0A28F5D9636A43F40033C2
:103DC8006362052384F820300120E1E7227E012A7E
:103DD8003DD01A6822F080021A60637E012B3BD026
:103DE8002268136823F040031360A37E012B39D0A7
:103DF8002268136823F020031360E37E012B37D079
:103E08002268136843F010031360237F012B35D019
:103E18002268136823F008031360637F012B33D0F3
:103E28002268136823F004031360A368E26813434D
:103E380022691343626913436268013A2168134394
:103E4800CB6100206062012384F82030A0E71A6863
:103E580042F080021A60C0E72268136843F040030A
:103E68001360C2E72268136843F020031360C4E7B5
:103E78002268136823F010031360C6E722681368EA
:103E880043F008031360C8E72268136843F004038B
:103E98001360CAE70120704790F82030013BDBB27D
:103EA800012B05D9436A43F48023436201207047FC
:103EB80010B5474BD3F8002242F00102C3F80022A4
:103EC800D3F8002222F47C52C3F80022D3F800224F
:103ED800486A42EA0022C3F800224A6902F01F0237
:103EE800012000FA02F2D3F81C026FEA020C20EA61
:103EF8000200C3F81C02CB69CBB9354BD3F80C02CE
:103F08000CEA0000C3F80C028C884869D1F80CE070
:103F180044EA0E44483043F830408C68088840EA48
:103F280004404C6904F1480E03EBCE035860CB699A
:103F3800012B1ED08B69002B35D12548D0F80432CF
:103F48000CEA0303C0F804320B699BBB2048D0F885
:103F580014320CEA0303C0F814320B6A012B30D078
:103F68001B4AD2F8003223F00103C2F800320020C5
:103F780010BD174BD3F80C021043C3F80C028C8801
:103F88004869D1F800E044EA0E44483043F830402C
:103F980088894C69D1F808E040EA0E40483403EBC0
:103FA800C4035860C6E70A48D0F804321343C0F87F
:103FB8000432C9E70648D0F814321343C0F8143263
:103FC800CBE70349D1F81C321A43C1F81C22C7E7D2
:103FD8000064004070B5044690F82050EDB2012D01
:103FE80006D0436A43F4002343620125284670BD86
:103FF800022380F820300268136823F0010313605D
:10400800FFF78AFE064623685B6813F0010F0CD0A1
:10401800FFF782FE831B0A2BF5D9636A43F400334A
:104028006362052384F82030E0E700256562DDE758
:1040380030B590F820C00468A4680CF1FF3C5FFA22
:104048008CFCBCF1010F62D814F0E05F59D0C4F3C6
:10405800016C012404FA0CF41C608B68002B3DD120
:104068000D68CB68046843EA45550CF118031B0139
:10407800E55003680C690CF1180E03EB0E135C6035
:104088000B7D012B35D0D17993791B0443EA016369
:10409800517943EA012314790168234301EB0C1198
:1040A800C1F88C31D17893781B0443EA01635178C5
:1040B80043EA0123117802680B4302EB0C12C2F8A1
:1040C800883102680CF1180C4FEA0C1C52F80C30BD
:1040D80043F0010342F80C3000201DE04C6843EA2D
:1040E800C403CC6823430CF11804240105682B5140
:1040F800BFE7036803EB0E13596841F480715960F8
:10410800C1E7436A43F400134362012004E0436AB1
:1041180043F480234362012030BD90F820C00CF1A5
:10412800FF3C5FFA8CFCBCF1010F00F2A58030B4B3
:1041380051B90468E46814F0030F10D1436A43F4DA
:104148000013436201207EE00468246914F0030F21
:1041580005D1436A43F400134362012073E0056804
:1041680001F11B0424012C5904F004049460002C70
:104178006BD1056801F11B0424012C59640D1460EE
:10418800046801F11B0C4FEA0C1C54F80C4004F0B5
:104198000204D4600468A444DCF8045015F0080F45
:1041A8005BD008241461056801F11B0C05EB0C15A4
:1041B8006D68C5F307259561046804EB0C14646801
:1041C800240C5461026802EB0112D2F8B8211A706B
:1041D800026802EB0112D2F8B821C2F307225A7022
:1041E800026802EB0112D2F8B821C2F307429A70B2
:1041F800026802EB0112D2F8B821120EDA700268D6
:1042080002EB0112D2F8BC211A71026802EB01120A
:10421800D2F8BC21C2F307225A71026802EB0112DC
:10422800D2F8BC21C2F307429A71026802EB01126C
:10423800D2F8BC21120EDA71C1B90268D36843F012
:104248002003D360002030BC7047056801F11B04CF
:1042580024012C59E408546092E701F11B0504EB92
:104268000514646804F00F0414619CE7026813697C
:1042780043F020031361E5E7436A43F48023436274
:104288000120704790F82030013BDBB2012B05D9A3
:10429800436A43F4802343620120704702685369EC
:1042A8001943516100207047704770477047704745
:1042B800704770477047704770477047704770473E
:1042C8002DE9F84F054603685C69D3F804809F68B8
:1042D800D3F80CB0D3F810A0D3F8189014F0010656
:1042E8003BD017F0010616D001229A6017F0020F92
:1042F80008D117F0040F0CD117F0080606D04FF4B8
:10430800805608E0FFF7D0FF002604E0FFF7CFFF54
:1043180001E04FF4006617F4807F0DD02B684FF44E
:1043280080729A6017F4007F40F0868017F4806FDF
:1043380000F0868046F4005617F4803F0DD02B68B5
:104348004FF480329A6017F4003F40F0838017F4EE
:10435800802F00F0838046F4004614F0080F07D041
:104368001BF0100F04D046F400762B681022DA6098
:1043780014F0040F02D01BF0080F79D114F0020FCB
:1043880004D02B68DB6813F0030F78D114F0400FCA
:1043980007D01AF0100F04D046F480662B6810225C
:1043A8001A6114F0200F02D01AF0080F6BD114F024
:1043B800100F04D02B681B6913F0030F6AD114F493
:1043C800003F02D018F0100F68D114F4803F02D0DB
:1043D80018F0080F69D114F4004F7AD018F0040FC0
:1043E80074D014F4807F04D019F0010F01D046F086
:1043F800010614F4007F04D019F0020F01D046F032
:10440800020614F4806F04D019F0040F01D046F0AE
:10441800040614F4006F59D019F0700956D0B9F198
:10442800400F65D058D8B9F1200F5ED0B9F1300FE0
:1044380042D146F0200644E02846FFF736FF7BE7E6
:1044480017F4006F02D046F4804675E72846FFF758
:104458002FFF71E72846FFF729FF7EE717F4002FA3
:1044680002D046F4803678E72846FFF722FF74E743
:104478002B680822DA602846FFF71CFF7EE72846EB
:10448800FDF71AF882E72B6808221A612846FFF719
:1044980013FF8CE72846FFF70EFF90E72B681022E2
:1044A8005A602846FFF709FF8FE72B6808225A60F1
:1044B8002846FFF703FF8EE7B9F1100F01D146F048
:1044C80008062A68936923F0700393612B68042215
:1044D8005A609EB9BDE8F88FB9F1500F0BD0B9F109
:1044E800600FEED146F48076EBE746F01006E8E779
:1044F80046F04006E5E746F08006E2E76B6A1E43B1
:104508006E622846FFF7DBFEE4E70000074AD3683F
:1045180023F4E0631B041B0C000200F4E060034377
:1045280043F0BF6343F40033D360704700ED00E00D
:1045380000B5194BDB68C3F30223C3F1070CBCF1C8
:10454800040F28BF4FF0040C03F1040EBEF1060F50
:1045580018D9033B4FF0FF3E0EFA0CFC21EA0C0180
:1045680099400EFA03F322EA0303194300280BDBF0
:104578000901C9B200F1604000F5614080F80013FC
:104588005DF804FB0023E5E700F00F000901C9B25C
:10459800024B1954F4E700BF00ED00E014ED00E011
:1045A800002807DB00F01F02400901239340024A5C
:1045B80042F82030704700BF00E100E00138B0F158
:1045C800807F0BD24FF0E0235861054AF02182F832
:1045D80023100020986107221A6170470120704754
:1045E80000ED00E030B405682C6824F480242C60C9
:1045F800046863608368402B05D00368996003688A
:10460800DA6030BC704703689A600368D960F8E7DD
:1046180010B40368D9B210390B4AA2FB014212093F
:104628000A4CA25CC2655F2908D923F47F7323F082
:10463800030304338365806D10BC704723F47F73D4
:1046480023F003038365F6E7ABAAAAAA487D00080E
:10465800836A826992B9012B0AD0022B02D00BB16E
:1046680000207047C36A13F0807F28D1002070476C
:10467800C36AB3F1C07F24D000207047B2F5005F51
:1046880009D0022B25D9032B25D1C36A13F0807FCB
:1046980023D100207047032B03D8DFE803F014046C
:1046A800140A00207047C36A13F0807F0DD10020E0
:1046B8007047C36AB3F1C07F09D00020704701205A
:1046C8007047012070470120704701207047012082
:1046D8007047012070470020704701207047000094
:1046E80070B50446FFF718FB002C5BD00546022383
:1046F80084F83530002384F834302268136823F0B6
:104708000103136023681A6812F0010F0AD0FFF73B
:1047180003FB431B052BF5D920236365032084F88D
:10472800350070BD1A68204810406168A2680A43C5
:10473800E1680A4321690A4361690A43A1690A4396
:10474800E1690A43216A0A430243616A04291ED0C7
:104758001A602668756925F00705636A1D43042BEE
:1047680007D1A36A1D43E36A1BB12046FFF770FF18
:1047780090B975612046FFF74BFFE26D3F239340E8
:10478800836000206065012384F83530C9E7E16A59
:10479800206B01430A43DBE740236365012084F86B
:1047A8003500BEE70120BCE73F8010F038B504466D
:1047B80090F8340001281BD0012084F8340094F8C4
:1047C8003500C0B2012804D0002384F83430022018
:1047D80038BD022084F83500002565652046FFF7BE
:1047E80001FF2268136843F0010313602846EFE7CE
:1047F8000220EDE770B50446866DFFF78DFA94F850
:104808003530DBB2022B06D080236365002384F8A1
:104818003430012070BD05462268136823F0160362
:1048280013602268536923F080035361236CE3B15A
:104838002268136823F0080313602268136823F0C2
:104848000103136023681B6813F0010F11D0FFF7F1
:1048580063FA431B052BF5D920236365032084F8ED
:104868003500002384F83430D4E7A36C002BDFD163
:10487800E3E7E26D3F239340B360012384F83530CA
:10488800002084F83400C5E790F83530DBB2022BFD
:1048980003D08023436501207047052380F8353015
:1048A8000268136823F001031360002070470000BA
:1048B800F0B583B0044600230193724B1D68724B18
:1048C800A3FB0535AD0A876D3E68C26D082393408A
:1048D800334210D003681A6812F0040F0BD01A681C
:1048E80022F004021A60C26D08239340BB60436D36
:1048F80043F001034365E26D01239340334209D03D
:104908002268526912F0800F04D0BB60636D43F0D7
:1049180002036365E26D04239340334209D02268A1
:10492800126812F0020F04D0BB60636D43F00403F9
:104938006365E26D10239340334224D022681268E5
:1049480012F0080F1FD0BB6023681A6812F4802F7A
:104958000DD01B6813F4002F04D1236C9BB12046A3
:10496800984710E0A36C73B1204698470BE01A688B
:1049780012F4807F03D11A6822F008021A60236CAF
:104988000BB120469847E26D20239340334255D01F
:104998002268126812F0100F50D0BB6094F83530BE
:1049A800DBB2052B0ED023681A6812F4802F33D09F
:1049B8001B6813F4002F2AD1636C002B3ED02046CD
:1049C80098473BE02268136823F0160313602268B7
:1049D800536923F080035361236CA3B122681368E1
:1049E80023F008031360E26D3F239340BB6001236B
:1049F80084F83530002384F83430236D002B3FD001
:104A0800204698473CE0A36C002BE7D1EBE7E36B2B
:104A1800A3B12046984711E01A6812F4807F09D1A3
:104A28001A6822F010021A60012384F83530002336
:104A380084F83430E36B0BB120469847636DFBB1C3
:104A4800636D13F0010F17D0052384F83530226801
:104A5800136823F001031360019B01330193AB42F8
:104A680004D823681B6813F0010FF5D1012384F8DB
:104A78003530002384F83430E36C0BB12046984776
:104A880003B0F0BD20000020B5814E1B00230F2B82
:104A980000F2E48070B582B060E085685E000324AF
:104AA800B44025EA0405CC68B4402C4384604568CA
:104AB80025EA02054C68C4F300129A402A43426072
:104AC8005AE0DC08083450F8246003F00702950027
:104AD8000F22AA4026EA020E0A69AA4042EA0E02FA
:104AE80040F824205CE0072200E0002202FA0EF2DF
:104AF8002A4302345A4D45F824205A4A94686FEAEA
:104B08000C0224EA0C054E6816F4801F01D04CEA0A
:104B18000405544CA560E46802EA04054E6816F4DE
:104B2800001F01D04CEA04054E4CE560646802EAB7
:104B380004054E6816F4003F01D04CEA0405494CC0
:104B48006560246822404D6815F4803F01D04CEA26
:104B58000402444C226001330F2B7DD801229A4075
:104B68000C6804EA020C32EA0404F4D14C6804F03C
:104B78000304013C012C90D94A6802F00302032A7D
:104B880009D0C4685D000322AA4024EA02048A68A6
:104B9800AA402243C2604A6802F00302022A90D067
:104BA80004684FEA430E032202FA0EF224EA0204D2
:104BB8004A6802F0030202FA0EF2224302604A68CF
:104BC80012F4403FC7D000220192274A546C44F4A3
:104BD80080445464526C02F480420192019A9C0809
:104BE800A51C1F4A52F8255003F003024FEA820E13
:104BF8000F2202FA0EF225EA02051C4A90423FF4FF
:104C080074AF02F5806290421AD002F58062904239
:104C180018D002F58062904216D002F58062904268
:104C280014D002F58062904212D002F58062904260
:104C380010D002F5806290423FF455AF082255E744
:104C4800012253E7022251E703224FE704224DE7EE
:104C580005224BE7062249E702B070BD704700BF46
:104C680000380140003C014000380240000002408A
:104C78000AB18161704709048161704708B5054B25
:104C88005B69034200D108BD024B5861FDF732F859
:104C9800F9E700BF003C014003685A6912F4806FCD
:104CA80001D1002070476FF480625A6100230363CA
:104CB800202280F83D2080F83E30026C42F0040249
:104CC800026480F83C30012070472DE9F041064627
:104CD8000C46174698463BE0FFF71EF8069BC01A9D
:104CE800404502D8B8F1000F32D1012D18D03368F1
:104CF8009B6924EA03039BB2B3FA83F35B099F42DF
:104D080026D100233363202286F83D2086F83E30E2
:104D1800326C42F02002326486F83C30012027E0F1
:104D280033685B6924EA03039BB2B3FA83F35B0934
:104D3800E5E733685B6924EA030C1FFA8CFCBCFACC
:104D48008CFC4FEA5C1C674511D1B8F1FF3FC3D119
:104D5800C4F30745012DECD033689B6924EA030CA2
:104D68001FFA8CFCBCFA8CFC4FEA5C1CEBE70020B9
:104D7800BDE8F0812DE9F84305460E469046994670
:104D880053E01A6842F400721A602B686FF480626C
:104D98005A6100232B63202285F83D2085F83E3098
:104DA8002A6C42F004022A6485F83C3001204AE06B
:104DB800FEF7B2FFA0EB0900404502D8B8F1000F9A
:104DC80033D1012F17D02B689B6926EA03039BB2C6
:104DD800003B18BF012343B300232B63202285F82F
:104DE8003D2085F83E302A6C42F020022A6485F87E
:104DF8003C30012027E02B685B6926EA03039BB25D
:104E0800003B18BF0123E6E72B689C6926EA0404E7
:104E1800A4B2003C18BF0124A4B12B685A6912F44B
:104E2800806FAED1B8F1FF3FC2D1C6F30747012F5B
:104E3800EAD12B685C6926EA0404A4B2003C18BFD6
:104E48000124E9E70020BDE8F88370B504460D4663
:104E5800164623685B6913F0800F21D12046FFF7BF
:104E68001BFFF8B9B5F1FF3FF3D0FEF755FF801BE4
:104E7800A84201D8002DECD123685B6913F0800F9C
:104E8800E7D100232363202284F83D2084F83E30B4
:104E9800226C42F02002226484F83C30012000E0B9
:104EA800002070BD0120FCE72DE9F04385B00446E1
:104EB8000D4691461F46DDF830800D9E036819683F
:104EC80041F4807119600096434600224FF00111A9
:104ED800FFF7FBFE60B9236805F0FE051D61334648
:104EE800424626492046FFF745FF68B1012008E001
:104EF80023681B6813F4807F02D04FF40073236487
:104F0800032005B0BDE8F0830023039323685A69A2
:104F180003929B690393039B324641462046FFF761
:104F280094FF30B9012F0FD123685FFA89F61E610B
:104F3800E7E7236C042B01D00120E2E7226813681D
:104F480043F400731360F7E723684FEA19221A61E4
:104F5800324641462046FFF778FF20B923685FFABA
:104F680089F61E61CDE7236C042B01D00120C8E728
:104F78002268136843F400731360F7E70200010026
:104F88002DE9F04784B004460D46164699460C9F15
:104F9800DDF834800268136843F4806313600368A3
:104FA800196841F480711960CDF800803B460022F1
:104FB8004FF00111FFF789FE70B95FFA85FA23688F
:104FC80005F0FE051D6143463A4641492046FFF774
:104FD800D1FE68B1012008E023681B6813F4807FC4
:104FE80002D04FF400732364032004B0BDE8F087B7
:104FF8000023039323685A6903929B690393039BD5
:10500800424639462046FFF720FF80B9B9F1010F23
:1050180018D12368F6B21E61424639462046FFF78A
:1050280014FF68B3236C042B24D00120DDE7236C24
:10503800042B01D00120D8E72268136843F40073D9
:105048001360F7E72368320A1A6142463946204658
:10505800FFF7FBFE18B92368F6B21E61DCE7236C84
:10506800042B01D00120C0E72268136843F40073C1
:105078001360F7E72268136843F400731360D4E7FA
:105088002268136843F480731360CDF800803B46B0
:1050980000224FF001112046FFF717FE68B9226879
:1050A8004AF00103136143463A4609492046FFF78F
:1050B80061FE002899D0012097E723681B6813F444
:1050C800807F02D04FF40073236403208DE700BF74
:1050D8000200010070B504460D46164623685B6958
:1050E80013F0040F21D12046FFF7D6FDF8B9B5F12A
:1050F800FF3FF3D0FEF710FE801BA84201D8002D19
:10510800ECD123685B6913F0040FE7D10023236314
:10511800202284F83D2084F83E30226C42F02002A0
:10512800226484F83C30012000E0002070BD01209A
:10513800FCE770B504460D46164614E06FF0100201
:105148005A6100232363202284F83D2084F83E30EE
:10515800226C226484F83C30012025E023685B69D6
:1051680013F0400F10D02368586910F0400F1AD17F
:10517800586910F0100FE1D1FEF7CEFD801BA84250
:10518800ECD8002DEFD1E9E700232363202284F82F
:105198003D2084F83E30226C42F02002226484F8DC
:1051A8003C30012000E0002070BD0000002800F025
:1051B800CC8070B5044690F83D30002B77D024237E
:1051C80084F83D302268136823F0010313602268D5
:1051D800136843F4004313602268136823F4004300
:1051E800136000F0F3FD62685A4B9A4264D85A4B38
:1051F80098428CBF00230123002B40F0A880574918
:10520800A1FB00318B0C25686A6822F03F0242EA54
:1052180091426A6021680A6A22F03F0266684D4D31
:10522800AE424FD8013313430B622168CA6922F496
:105238004F4222F0FF026668464B9E424CD8431EFE
:105248007600B3FBF6F3013340F6FC70034278D0E6
:10525800C3F30B031343CB6121680B6823F0C0032E
:10526800E269206A024313430B6021688B6823F4C8
:10527800034323F0FF032269E068024313438B6072
:105288002168CB6823F0FF036269A06902431343D6
:10529800CB602268136843F0010313600020206488
:1052A800202384F83D30206384F83E0070BD80F8E8
:1052B8003C30FCF7A3FF82E7294B98428CBF0023C0
:1052C800012399E74FF4967505FB03F3254DA5FBDC
:1052D80003539B090133A6E7A368BBB9451E06EB38
:1052E800460CB5FBFCF50135C5F30B05B5FA85F59C
:1052F8006D0945BBC3B9013806EB4603B0FBF3F3B0
:105308000133C3F30B0343F40043A3E7451E06EB45
:10531800860C0CEB8C0CB5FBFCF50135C5F30B05C5
:10532800B5FA85F56D09E4E7013806EB860303EB6A
:105338008303B0FBF3F30133C3F30B0343F440439C
:1053480088E7042386E7012384E7012070470120CA
:10535800ACE700BFA08601007F841E0083DE1B43EC
:10536800FF083D00D34D62102DE9F04383B0044699
:105378000F46904699460C9EFEF7CEFC054694F8DB
:105388003D00C0B2202803D0022003B0BDE8F0835E
:105398000095192301224B492046FFF796FC002867
:1053A80040F0898094F83C30012B00F0868001237E
:1053B80084F83C3023681A6812F0010F03D11A6888
:1053C80042F001021A602268136823F40063136034
:1053D800212384F83D30402384F83E3000232364A1
:1053E8000A9B6362BDF82C306385638D2385364B39
:1053F800E362019500964B46424639462046FFF740
:1054080053FD00285BD1238D002B35D02A46314629
:105418002046FFF71AFD20BB626A236812781A61DA
:10542800626A531C6362218D013989B22185638DBB
:105438009BB2013B9BB263852368586910F0040F47
:10544800E1D00029DFD052781A61636A01336362C0
:10545800238D013B2385638D9BB2013B9BB2638502
:10546800D1E7236C042B01D001208EE72268136852
:1054780043F400731360F7E72A4631462046FFF7E6
:1054880029FE50B1236C042B01D001207DE722684E
:10549800136843F400731360F7E72268136843F452
:1054A80000731360202384F83D30002384F83E30D5
:1054B80084F83C3069E7022067E7022065E70120AD
:1054C80063E700BF020010000000FFFF2DE9F04372
:1054D80087B004460F4690469946109EFEF71CFC7E
:1054E800054694F83D00C0B2202804D0022738466B
:1054F80007B0BDE8F08300951923012288492046AA
:10550800FFF7E3FB002840F04D8194F83C30012B75
:1055180000F04A81012384F83C3023681A6812F0AD
:10552800010F03D11A6842F001021A602268136859
:1055380023F400631360222384F83D30402384F869
:105548003E30002323640E9B6362BDF83C306385C4
:10555800638D2385734BE362019500964B46424663
:1055680039462046FFF70CFD0746002840F01E810B
:10557800238D5BB9029323685A6902929A69029251
:10558800029A1A6842F400721A6075E0012B0AD078
:10559800022B1AD00023059323685A6905929B6948
:1055A8000593059B68E02268136823F48063136001
:1055B8000023039323685A6903929A690392039A12
:1055C8001A6842F400721A6056E02268136823F4DD
:1055D800806313602268136843F400631360002338
:1055E800049323685A6904929B690493049B43E0DB
:1055F8002A4631462046FFF79CFD002840F0D88017
:1056080023681A69636A1A70636A01336362238DB7
:10561800013B2385638D9BB2013B9BB263852BE0E5
:1056280000953346002240492046FFF74EFB0028EC
:1056380040F0C0802268136843F400731360236845
:105648001A69636A1A70626A531C6362238D013B8C
:105658002385638D9BB2013B9BB2638523681B69DD
:105668005370636A01336362238D013B2385638D25
:105678009BB2013B9BB26385238D002B00F0898090
:10568800032B53D8012BB3D0022BC9D00095334636
:10569800002225492046FFF718FB002840F08C809F
:1056A8002268136823F48063136023681A69636AA5
:1056B8001A70636A01336362238D013B2385638D0E
:1056C8009BB2013B9BB26385009533460022164985
:1056D8002046FFF7FAFA002870D12268136843F4CD
:1056E8000073136023681A69636A1A70626A531C2C
:1056F8006362238D013B2385638D9BB2013B9BB283
:10570800638523681B695370636A01336362238D61
:10571800013B2385638D9BB2013B9BB26385ABE75D
:10572800020010000000FFFF040001002A46314675
:105738002046FFF7FEFC002842D123681A69636AF5
:105748001A70636A01336362228D013A92B222852C
:10575800638D9BB2013B9BB263852368596911F045
:10576800040F89D0032A0FD023681A69636A1A7054
:10577800636A01336362238D013B2385638D9BB28A
:10578800013B9BB2638577E71A6822F480621A604E
:10579800EAE7202384F83D30002384F83E3084F87B
:1057A8003C30A4E60227A2E60227A0E601279EE6EF
:1057B80001279CE601279AE6012798E6012796E645
:1057C800012794E6002800F0E08170B582B0044615
:1057D800036813F0010F3BD09F4B9B6803F00C0349
:1057E800042B2CD09C4B9B6803F00C03082B21D076
:1057F8006368B3F5803F4FD0B3F5A02F52D0964BD6
:105808001A6822F480321A601A6822F480221A6018
:105818006368002B50D0FEF77FFA05468E4B1B6855
:1058280013F4003F14D1FEF777FA401B6428F5D92A
:105838000320B1E1884B5B6813F4800FD8D0864B06
:105848001B6813F4003F03D06368002B00F09F81AE
:10585800236813F0020F54D07F4B9B6813F00C0F92
:105868003ED07D4B9B6803F00C03082B33D0E368D4
:10587800002B68D0794B01221A60FEF74DFA0546D5
:10588800754B1B6813F0020F54D1FEF745FA401B05
:105898000228F5D903207FE16F4A136843F4803367
:1058A8001360B5E76C4B1A6842F480221A601A68D4
:1058B80042F480321A60ABE7FEF72EFA0546664BD3
:1058C8001B6813F4003FC3D0FEF726FA401B642878
:1058D800F5D9032060E1604B5B6813F4800FC6D1F3
:1058E8005D4B1B6813F0020F03D0E368012B40F0F7
:1058F8005081594A136823F0F803216943EAC10328
:105908001360236813F0080F42D063696BB3534BDD
:105918000122C3F8802EFEF7FFF905464E4B5B6F58
:1059280013F0020F34D1FEF7F7F9401B0228F5D91E
:10593800032031E1484A136823F0F803216943EA58
:10594800C1031360DDE7454B00221A60FEF7E4F956
:105958000546414B1B6813F0020FD2D0FEF7DCF965
:10596800401B0228F5D9032016E13C4B0022C3F85E
:10597800802EFEF7D1F90546374B5B6F13F0020F07
:1059880006D0FEF7C9F9401B0228F5D9032003E128
:10599800236813F0040F77D02F4B1B6C13F0805F34
:1059A80033D1002301932C4B1A6C42F080521A64B5
:1059B8001B6C03F080530193019B0125284B1B6846
:1059C80013F4807F23D0A368012B34D0052B38D063
:1059D800214B1A6F22F001021A671A6F22F0040293
:1059E8001A67A368002B3DD0FEF796F906461A4BB6
:1059F8001B6F13F0020F46D1FEF78EF9801B41F2A0
:105A080088339842F3D90320C6E00025D6E7144A24
:105A1800136843F480731360FEF77EF90646104B53
:105A28001B6813F4807FCED1FEF776F9801B02281D
:105A3800F5D90320B0E0084A136F43F00103136758
:105A4800CFE7054B1A6F42F004021A671A6F42F04B
:105A580001021A67C5E700BF00380240000047424C
:105A680000700040FEF758F90646524B1B6F13F0C2
:105A7800020F08D0FEF750F9801B41F28833984294
:105A8800F3D9032088E0EDB9A369002B00F08380E7
:105A9800484A926802F00C02082A51D0022B17D00B
:105AA800454B00221A66FEF737F90446414B1B683E
:105AB80013F0007F42D0FEF72FF9001B0228F5D91A
:105AC800032069E03B4A136C23F080531364DBE73F
