:020000040800F2
:1000000000000220994C0008F1440008F344000865
:10001000F5440008F7440008F94400080000000017
:10002000000000000000000000000000FB44000889
:10003000FD44000800000000FF44000801450008DE
:10004000E94C0008E94C0008E94C0008E94C0008BC
:10005000E94C0008E94C0008E94C0008E94C0008AC
:10006000E94C0008034500080D450008E94C00086C
:1000700019450008E94C0008E94C0008E94C000863
:10008000E94C0008E94C0008E94C0008E94C00087C
:1000900029450008E94C0008E94C000839450008EA
:1000A000E94C000851450008E94C0008E94C0008FB
:1000B00069450008E94C0008E94C0008E94C0008D3
:1000C000E94C0008E94C0008E94C0008E94C00083C
:1000D000E94C0008E94C0008E94C000879450008A3
:1000E000E94C0008E94C0008E94C0008E94C00081C
:1000F000E94C0008E94C0008E94C0008E94C00080C
:10010000E94C0008E94C0008E94C0008E94C0008FB
:10011000E94C0008E94C0008E94C0008E94C0008EB
:10012000E94C0008E94C0008E94C0008E94C0008DB
:10013000E94C0008E94C0008E94C0008E94C0008CB
:1001400091450008E94C0008E94C0008E94C00081A
:10015000E94C0008E94C0008E94C0008E94C0008AB
:10016000E94C0008E94C0008E94C0008E94C00089B
:10017000E94C0008E94C0008E94C000800000000C8
:08018000E94C0008E94C0008FD
:1001880010B5054C237833B9044B13B10448AFF3C9
:1001980000800123237010BD280900200000000002
:1001A800649E000808B5034B1BB103490348AFF32D
:1001B800008008BD000000002C090020649E000893
:1001C80081F0004102E000BF83F0004330B54FEA00
:1001D80041044FEA430594EA050F08BF90EA020F6D
:1001E8001FBF54EA000C55EA020C7FEA645C7FEA00
:1001F800655C00F0E2804FEA5454D4EB5555B8BF23
:100208006D420CDD2C4480EA020281EA030382EA93
:10021800000083EA010180EA020281EA0303362D25
:1002280088BF30BD11F0004F4FEA01314FF4801CF8
:100238004CEA113102D0404261EB410113F0004F0A
:100248004FEA03334CEA133302D0524263EB4303C1
:1002580094EA050F00F0A780A4F10104D5F1200E5F
:100268000DDB02FA0EFC22FA05F2801841F10001BA
:1002780003FA0EF2801843FA05F359410EE0A5F18E
:1002880020050EF1200E012A03FA0EFC28BF4CF0BF
:10029800020C43FA05F3C01851EBE37101F0004575
:1002A80007D54FF0000EDCF1000C7EEB00006EEB82
:1002B8000101B1F5801F1BD3B1F5001F0CD349080C
:1002C8005FEA30004FEA3C0C04F101044FEA445263
:1002D80012F5800F80F09A80BCF1004F08BF5FEAEA
:1002E800500C50F1000041EB045141EA050130BDCA
:1002F8005FEA4C0C404141EB0101013C28BFB1F5DC
:10030800801FE9D291F0000F04BF01460020B1FA26
:1003180081F308BF2033A3F10B03B3F120020CDAF9
:100328000C3208DD02F1140CC2F10C0201FA0CF0D7
:1003380021FA02F10CE002F11402D8BFC2F1200C3C
:1003480001FA02F120FA0CFCDCBF41EA0C019040F2
:10035800E41AA2BF01EB0451294330BD6FEA04043B
:100368001F3C1CDA0C340EDC04F11404C4F1200226
:1003780020FA04F001FA02F340EA030021FA04F338
:1003880045EA030130BDC4F10C04C4F1200220FA8F
:1003980002F001FA04F340EA0300294630BD21FACD
:1003A80004F0294630BD94F0000F83F4801306BF93
:1003B80081F480110134013D4EE77FEA645C18BF87
:1003C8007FEA655C29D094EA050F08BF90EA020F1E
:1003D80005D054EA000C04BF1946104630BD91EA16
:1003E800030F1EBF0021002030BD5FEA545C05D119
:1003F8004000494128BF41F0004130BD14F5800458
:100408003CBF01F5801130BD01F0004545F0FE41CB
:1004180041F470014FF0000030BD7FEA645C1ABF00
:10042800194610467FEA655C1CBF0B46024650EA37
:10043800013406BF52EA033591EA030F41F4002163
:1004480030BD00BF90F0000F04BF0021704730B5E9
:100458004FF4806404F132044FF000054FF00001BE
:1004680050E700BF90F0000F04BF0021704730B57F
:100478004FF4806404F1320410F0004548BF404254
:100488004FF000013EE700BF42004FEAE2014FEAA9
:1004980031014FEA02701FBF12F07F4393F07F4F84
:1004A80081F06051704732F07F4208BF704793F087
:1004B8007F4F04BF41F40021704730B54FF460749A
:1004C80001F0004521F000411CE700BF50EA01029D
:1004D80008BF704730B54FF000050AE050EA010246
:1004E80008BF704730B511F0004502D5404261EBB6
:1004F80041014FF4806404F132045FEA915C3FF4F7
:10050800D8AE4FF003025FEADC0C18BF03325FEA93
:10051800DC0C18BF033202EBDC02C2F1200300FA44
:1005280003FC20FA02F001FA03FE40EA0E0021FA69
:1005380002F11444BDE600BF70B54FF0FF0C4CF457
:10054800E06C1CEA11541DBF1CEA135594EA0C0F09
:1005580095EA0C0F00F0DEF82C4481EA030621EA44
:100568004C5123EA4C5350EA013518BF52EA03357F
:1005780041F4801143F4801338D0A0FB02CE4FF031
:100588000005E1FB02E506F00042E0FB03E54FF061
:100598000006E1FB03569CF0000F18BF4EF0010E59
:1005A800A4F1FF04B6F5007F64F5407404D25FEA55
:1005B8004E0E6D4146EB060642EAC62141EA555108
:1005C8004FEAC52040EA5E504FEACE2EB4F1FD0C4A
:1005D80088BFBCF5E06F1ED8BEF1004F08BF5FEAC8
:1005E800500E50F1000041EB045170BD06F000467A
:1005F80046EA010140EA020081EA0301B4EB5C0427
:10060800C2BFD4EB0C0541EA045170BD41F480111E
:100618004FF0000E013C00F3AB8014F1360FDEBF43
:10062800002001F0004170BDC4F10004203C35DA1F
:100638000C341BDC04F11404C4F1200500FA05F3A2
:1006480020FA04F001FA05F240EA020001F0004243
:1006580021F0004110EBD37021FA04F642EB0601B9
:100668005EEA430E08BF20EAD37070BDC4F10C04E3
:10067800C4F1200500FA04F320FA05F001FA04F2A7
:1006880040EA020001F0004110EBD37041F1000193
:100698005EEA430E08BF20EAD37070BDC4F120059E
:1006A80000FA05F24EEA020E20FA04F301FA05F206
:1006B80043EA020321FA04F001F0004121FA04F2AE
:1006C80020EA020000EBD3705EEA430E08BF20EA7E
:1006D800D37070BD94F0000F0FD101F000464000B8
:1006E80041EB010111F4801F08BF013CF7D041EA3A
:1006F800060195F0000F18BF704703F0004652003E
:1007080043EB030313F4801F08BF013DF7D043EA0E
:100718000603704794EA0C0F0CEA135518BF95EAC4
:100728000C0F0CD050EA410618BF52EA4306D1D14B
:1007380081EA030101F000414FF0000070BD50EA6A
:10074800410606BF1046194652EA430619D094EAF4
:100758000C0F02D150EA013613D195EA0C0F05D1DE
:1007680052EA03361CBF104619460AD181EA030132
:1007780001F0004141F0FE4141F470014FF00000EA
:1007880070BD41F0FE4141F4780170BD70B54FF085
:10079800FF0C4CF4E06C1CEA11541DBF1CEA135505
:1007A80094EA0C0F95EA0C0F00F0A7F8A4EB0504E7
:1007B80081EA030E52EA03354FEA013100F08880DE
:1007C8004FEA03334FF0805545EA131343EA1263A7
:1007D8004FEA022245EA111545EA10654FEA00265C
:1007E8000EF000419D4208BF964244F1FD0404F515
:1007F800407402D25B084FEA3202B61A65EB030571
:100808005B084FEA32024FF480104FF4002CB6EB2D
:10081800020E75EB030E22BFB61A754640EA0C00AD
:100828005B084FEA3202B6EB020E75EB030E22BFED
:10083800B61A754640EA5C005B084FEA3202B6EB2E
:10084800020E75EB030E22BFB61A754640EA9C00ED
:100858005B084FEA3202B6EB020E75EB030E22BFBD
:10086800B61A754640EADC0055EA060E18D04FEA7B
:10087800051545EA16754FEA06164FEAC30343EA1B
:1008880052734FEAC2025FEA1C1CC0D111F4801FE8
:100898000BD141EA00014FF000004FF0004CB6E7E1
:1008A80011F4801F04BF01430020B4F1FD0C88BF80
:1008B800BCF5E06F3FF6AFAEB5EB030C04BFB6EB8B
:1008C800020C5FEA500C50F1000041EB045170BD7E
:1008D8000EF0004E4EEA113114EB5C04C2BFD4EBAB
:1008E8000C0541EA045170BD41F480114FF0000E2F
:1008F800013C90E645EA060E8DE60CEA135594EAAB
:100908000C0F08BF95EA0C0F3FF43BAF94EA0C0FAD
:100918000AD150EA01347FF434AF95EA0C0F7FF422
:1009280025AF104619462CE795EA0C0F06D152EA76
:1009380003353FF4FDAE1046194622E750EA41065A
:1009480018BF52EA43067FF4C5AE50EA41047FF46B
:100958000DAF52EA43057FF4EBAE12E74FF0FF3CD0
:1009680006E000BF4FF0010C02E000BF4FF0010CA1
:100978004DF804CD4FEA410C7FEA6C5C4FEA430C1A
:1009880018BF7FEA6C5C1BD001B050EA410C0CBF69
:1009980052EA430C91EA030F02BF90EA020F0020CB
:1009A800704710F1000F91EA030F58BF994208BF32
:1009B80090422CBFD8176FEAE37040F001007047EF
:1009C8004FEA410C7FEA6C5C02D150EA013C07D146
:1009D8004FEA430C7FEA6C5CD6D152EA033CD3D091
:1009E8005DF8040B704700BF8446104662468C468B
:1009F8001946634600E000BF01B5FFF7B7FF0028BE
:100A080048BF10F1000F01BD4DF808EDFFF7F4FFE6
:100A18000CBF012000205DF808FB00BF4DF808ED71
:100A2800FFF7EAFF34BF012000205DF808FB00BF94
:100A38004DF808EDFFF7E0FF94BF012000205DF8B6
:100A480008FB00BF4DF808EDFFF7CEFF94BF01206B
:100A580000205DF808FB00BF4DF808EDFFF7C4FF64
:100A680034BF012000205DF808FB00BF4FEA4102B7
:100A7800B2F1E04324BFB3F5001CDCF1FE5C0DD9F4
:100A880001F0004C4FEAC0024CEA5070B2F1004F3E
:100A980040EB830008BF20F00100704711F0804F41
:100AA80021D113F13872BCBF01F00040704741F406
:100AB80080114FEA5252C2F11802C2F1200C10FA0A
:100AC8000CF320FA02F018BF40F001004FEAC123EE
:100AD8004FEAD32303FA0CFC40EA0C0023FA02F392
:100AE8004FEA4303CCE77FEA625307D150EA013368
:100AF8001EBF4FF0FE4040F44000704701F0004038
:100B080040F0FE4040F40000704700BF53B94AB9B6
:100B1800002908BF00281CBF4FF0FF314FF0FF30FD
:100B280000F074B9ADF1080C6DE904CE00F006F8D8
:100B3800DDF804E0DDE9022304B070472DE9F04751
:100B4800089D04468E46002B4DD18A42944669D9A9
:100B5800B2FA82F252B101FA02F3C2F1200120FA8C
:100B680001F10CFA02FC41EA030E94404FEA1C48DA
:100B7800210CBEFBF8F61FFA8CF708FB16E341EAD6
:100B8800034306FB07F199420AD91CEB030306F15C
:100B9800FF3080F01F81994240F21C81023E63447D
:100BA8005B1AA4B2B3FBF8F008FB103344EA034421
:100BB80000FB07F7A7420AD91CEB040400F1FF3336
:100BC80080F00A81A74240F207816444023840EA73
:100BD8000640E41B00261DB1D4400023C5E90043AC
:100BE8003146BDE8F0878B4209D9002D00F0EF802F
:100BF8000026C5E9000130463146BDE8F087B3FA62
:100C080083F6002E4AD18B4202D3824200F2F98049
:100C1800841A61EB030301209E46002DE0D0C5E94C
:100C2800004EDDE702B9FFDEB2FA82F2002A40F098
:100C38009280A1EB0C014FEA1C471FFA8CFE01269B
:100C4800200CB1FBF7F307FB131140EA01410EFB3F
:100C580003F0884208D91CEB010103F1FF3802D2E6
:100C6800884200F2CB804346091AA4B2B1FBF7F0E0
:100C780007FB101144EA01440EFB00FEA64508D903
:100C88001CEB040400F1FF3102D2A64500F2BB8040
:100C98000846A4EB0E0440EA03409CE7C6F120078F
:100CA800B34022FA07FC4CEA030C20FA07F401FAD5
:100CB80006F31C43F9404FEA1C4900FA06F3B1FB5E
:100CC800F9F8200C1FFA8CFE09FB181140EA0141C3
:100CD80008FB0EF0884202FA06F20BD91CEB010160
:100CE80008F1FF3A80F08880884240F28580A8F1B8
:100CF80002086144091AA4B2B1FBF9F009FB10110A
:100D080044EA014100FB0EFE8E4508D91CEB0101A7
:100D180000F1FF346CD28E456AD90238614440EA4A
:100D28000840A0FB0294A1EB0E01A142C846A646CA
:100D380056D353D05DB1B3EB080261EB0E0101FA53
:100D480007F722FA06F3F1401F43C5E900710026B0
:100D58003146BDE8F087C2F12003D8400CFA02FC06
:100D680021FA03F3914001434FEA1C471FFA8CFE16
:100D7800B3FBF7F007FB10360B0C43EA064300FB06
:100D88000EF69E4204FA02F408D91CEB030300F1A4
:100D9800FF382FD29E422DD9023863449B1B89B25B
:100DA800B3FBF7F607FB163341EA034106FB0EF3E4
:100DB8008B4208D91CEB010106F1FF3816D28B4291
:100DC80014D9023E6144C91A46EA004638E72E465D
:100DD800284605E70646E3E61846F8E64B45A9D255
:100DE800B9EB020864EB0C0E0138A3E74646EAE7C4
:100DF800204694E74046D1E7D0467BE7023B614472
:100E080032E7304609E76444023842E7704700BFDA
:100E1800844641EA000313F003036DD1403A41D3FD
:100E280051F8043B40F8043B51F8043B40F8043BBC
:100E380051F8043B40F8043B51F8043B40F8043BAC
:100E480051F8043B40F8043B51F8043B40F8043B9C
:100E580051F8043B40F8043B51F8043B40F8043B8C
:100E680051F8043B40F8043B51F8043B40F8043B7C
:100E780051F8043B40F8043B51F8043B40F8043B6C
:100E880051F8043B40F8043B51F8043B40F8043B5C
:100E980051F8043B40F8043B51F8043B40F8043B4C
:100EA800403ABDD2303211D351F8043B40F8043BEC
:100EB80051F8043B40F8043B51F8043B40F8043B2C
:100EC80051F8043B40F8043B103AEDD20C3205D3FC
:100ED80051F8043B40F8043B043AF9D2043208D0F4
:100EE800D2071CBF11F8013B00F8013B01D30B8866
:100EF80003806046704700BF082A13D38B078DD044
:100F080010F003038AD0C3F10403D21ADB071CBF15
:100F180011F8013B00F8013B80D331F8023B20F87F
:100F2800023B7BE7043AD9D3013A11F8013B00F8B8
:100F3800013BF9D20B7803704B7843708B78837040
:100F480060467047F6EE007A60EE277A10EE103AA7
:100F5800074AA2EB630307EE103A67EE277A67EEBB
:100F6800277AB7EE080A30EE670A27EE000A7047BC
:100F7800865A375F10B52DED048B0446D0F8EC3057
:100F880093ED009A5C4A82ED009A93ED018A5B4AE0
:100F980082ED008AD3ED028A594AC2ED008AD3ED68
:100FA800039A584BC3ED009A69EE097A28EE080AAD
:100FB80077EE807A28EEA80A77EE807A29EEA90AD9
:100FC80037EE800AFFF7BEFF4F4B83ED000A002380
:100FD8000BE0D4F8EC2002EB8302D2ED007A67EE46
:100FE800807AC2ED007A0133DBB2032BF1D9474B8B
:100FF80093ED6F7A28EE077AD4F80021F6EE007A9E
:1010080027EE277A82ED047A93ED6F7A28EE877AB5
:10101800D4F8002127EE277A82ED057A93ED6F7ACE
:1010280029EE477AD4F8002127EE277A82ED0A7A4A
:1010380093ED6F7A29EE877AD4F8002127EE277A84
:1010480082ED0B7A93ED6F7A69EEC79AD4F8002196
:1010580069EEA79AC2ED109A93ED6F7A29EE479A36
:10106800D4F8002129EE279A82ED119A93ED6F7A30
:1010780068EE878AD4F8002168EEA78AC2ED168A3E
:1010880093ED6F7A28EE478AD4F8002128EE278A54
:1010980082ED178AD4F8F82093ED747AD2ED1C6AA1
:1010A800C6EE877AC2ED1C7AD4F8F82093ED747AEC
:1010B800D2ED236AC6EE877AC2ED237AD4F8F830E7
:1010C80093ED1C7ADFED127AB4EEE77AF1EE10FABE
:1010D80001DDC3ED1C7AD4F8F83093ED237ADFED07
:1010E8000C7AB4EEE77AF1EE10FA01DDC3ED237A5B
:1010F800BDEC048B10BD00BFDC0B0020E40B00200E
:10110800EC0B0020F40B0020F80B0020D80900207D
:1011180000401C4638B504469022D0F8F81008481C
:10112800FFF776FE48252A46D4F81C110548FFF734
:101138006FFE2A46D4F80C110348FFF769FE38BD44
:10114800000000208C090020440900202DE9F84FF8
:10115800044600F1780500F180073946284604F076
:1011680089F884F8C800B4F87830A4F8A830B4F83E
:101178005A30A4F8AA3004F1580A04F1A8084246E3
:101188005146284603F0A2FF84F8C800B4F8A830F6
:10119800A4F8B030B4F88230A4F8B23004F1B00941
:1011A8004A463946404603F091FF84F8C800B4F82F
:1011B8009030A4F8A030B4F89230A4F8A23004F12A
:1011C800A0052A4604F19001484603F01FFE84F862
:1011D800C8004946284603F06BFE84F8C800D4F8D6
:1011E800EC30D3ED007AC44AC2ED007A93ED016A7F
:1011F800C24A82ED006AD3ED026AC14AC2ED006AB2
:1012080093ED037ABF4B83ED007AB4F87830A4F8F5
:10121800B8300123A4F8BA3066EE075A27EEA65A6A
:1012280075EEC55AD4F82C3175EEA55AC3ED005A9F
:1012380067EE865A26EE875A75EE855AD4F82C3111
:1012480075EEA55AC3ED015A67EEA77A26EE066A2F
:1012580077EEC67A66EEA66A77EEE67A27EE077A22
:10126800D4F82C3177EE877AC3ED027A002512E0A4
:10127800D4F82C3103EB850393ED000AB0EEC00AD5
:1012880008F0B2F905F160029F4B03EB820383ED8E
:10129800010A0135EDB2022DEAD9B4F84830A4F8B4
:1012A800C0304FF0010BA4F8C2B004F1B80504F146
:1012B800C0063246294604F1480003F08DFF84F841
:1012C800C800B4F8C030A4F8A830A4F8AAB04246C0
:1012D8003146484603F0FAFE84F8C800A4F8B8B0CE
:1012E800B4F8C030A4F8BA302946304603F0C2FF3B
:1012F80084F8C800DFF810B20BF5E07241462846C2
:1013080003F0E4FE84F8C8009BED727ADBED737A93
:10131800F6EE006A67EEA66AB4EEE67AF1EE10FA27
:1013280002D501228BF83821B4EEE77AF1EE10FAF3
:1013380045DD754B93F83831002B40D0724B93F84C
:101348003931DBB1704AD2F84031D2F84411013357
:1013580041F10001C2F84031C2F844116A4BD3F898
:101368004021D3F84431332A73F100030CD300230E
:10137800654A82F8383184F82C3046E0624B002008
:101388000021C3E95001E9E7227B604D2B8803FB6C
:1013980002F2D4F8EC10D4F8E800FFF739FD227B0C
:1013A8002B8802FB03F303FB02F2D4F8FC10D4F8F9
:1013B800F800FFF72DFD012384F82C309AE0DFEDCB
:1013C800546A67EEA66AB4EEE67AF1EE10FA0FDD1B
:1013D8004D4B93F838315BB137EEC77ADFED4D6A84
:1013E80067EEA67AC7EE276A474BC3ED676A04E043
:1013F800454B4FF07E52C3F89C21434B00200021FF
:10140800C3E95001002384F82C30B4F85830A4F80C
:10141800A830B4F88230A4F8AA304246394650467B
:1014280003F054FE84F8C80004F198073A46494688
:10143800404603F04BFE84F8C80000230EE0D4F8C1
:101448001C2102EB8302304991ED677AD2ED007AD4
:1014580067EE877AC2ED007A0133DBB2B4F89820E0
:10146800B4F89A1001FB02F29342E8DB042201E08F
:101478000132D2B2052A1DD80023022BF8D8D4F89D
:101488001C1102EB4200184401EB800102F15C0CD4
:101498001D4800EB8C00D0ED016ADFED1F7A86EE67
:1014A800A77AD1ED007A67EE877AC1ED007A013329
:1014B800DBB2E2E7B4F89830A4F8B8300123A4F816
:1014C800BA302A463146384603F000FE84F8C80090
:1014D8000D4B93F83831002B4DD1D4F8BC30002295
:1014E800DA6004F13002294604F1380003F08EFC7A
:1014F80084F8C800BDE8F88FD80B0020E00B002066
:10150800E80B0020F00B0020D8090020120E002064
:10151800CDCCCC3D6666663FDA0FC93F0133DBB2FE
:10152800052BDAD8D4F8BC10980001EB830191EDB3
:10153800007A124AD2ED6F7ADFED116A67EEA67A69
:10154800B4EEE77AF1EE10FA01DDC1ED007AD4F8D5
:10155800BC20024492ED007A0849D1ED6F7ADFEDA4
:10156800096A67EEA67AB4EEE77AF1EE10FAD5D5F5
:10157800C2ED007AD2E70423D2E700BFD8090020E1
:101588000AD7233C0AD723BC10B52DED048B04469B
:10159800D0F8EC3093ED009A39EE099A2E4A82ED94
:1015A800009A93ED018A38EE088A2C4A82ED008A67
:1015B800D3ED029A79EEA99A294AC2ED009AD3EDA1
:1015C800038A78EEA88A274BC3ED008A827B264BD4
:1015D8001B8802FB03F3027B03FB02F20021D0F815
:1015E8000C0107F0CBFDD4F80C31F1EE697AC3EDAC
:1015F800007AD4F80C31C3ED018AD4F80C31B1EE7D
:10160800497A83ED027AD4F80C3183ED038AD4F851
:101618000C3183ED068AD4F80C3183ED079AD4F89F
:101628000C31C3ED088AD4F80C31C3ED099AD4F80B
:101638000C3183ED0C9AD4F80C31B1EE488A83ED65
:101648000D8AD4F80C31C3ED0E7AD4F80C31C3ED01
:101658000F8ABDEC048B10BDBC0B0020C00B002012
:10166800C40B0020C80B0020120E002038B52F4BE9
:1016780001221A7083ED6C0AC3ED6D0A83ED6E1AB0
:101688002B4AC3F8CC21002283F8382100200021FE
:10169800C3E95001C3E95201F7EE007AF4EEE71A04
:1016A800F1EE10FA01DDF0EE671A204CC4ED741A61
:1016B80084ED642A032300220621201D01F0E2FAAA
:1016C80004F5E4730122114604F5E07003F0ECFB25
:1016D800D4F8EC304FF07E521A60D4F8EC20002396
:1016E8005360D4F8EC209360D4F8EC20D360114B0D
:1016F800C4F8D030104BC4F8D430104BC4F8D830EC
:101708000F4BC4F8DC30012384F82E3084F82F30D6
:1017180090252A460B49D4F80401FFF779FB2A469D
:101728000949D4F8FC00FFF773FB38BDD80900203D
:1017380077CC2B321D1100087D0F00089115000889
:1017480055110008849E00080000002010B52DEDFA
:10175800088BF0EE409AB0EE608AB0EE419AB0EE97
:1017680061BAF0EE42AAB0EE62AAF0EE438A894B63
:101778001B78002B00F0B880864CC4ED6F8A94ED7E
:10178800580A39EEC00A84ED5B0AD4ED590A38EEDE
:10179800608A84ED5C8A94ED5A1A39EE411A84ED18
:1017A8005D1AF6EE007A20EE279A29EE289A7A4BEF
:1017B80083ED009A28EE278A28EE288A774B83ED56
:1017C800008A21EE271A61EE288A754BC3ED008A3C
:1017D80090227449D4F80401FFF71AFBD4F80431B5
:1017E800F1EE497AC3ED017AD4F80431F1EE486A92
:1017F800C3ED026AD4F80431B1EE687A83ED037A56
:10180800D4F8043183ED069AD4F80431C3ED088A7C
:10181800D4F80431C3ED096AD4F8043183ED0C8A95
:10182800D4F8043183ED0D7AD4F8043183ED0F9A9E
:10183800D4F80431C3ED128AD4F8043183ED138A45
:10184800D4F80431C3ED147AD4F84821D4F84C31D3
:10185800134305D184ED5EBAC4ED5FAA84ED60AA96
:101868004C4B93ED5E7AD3ED647A27EE277A93EDAD
:101878006F6A77EE866A87EE260A26EE0BBA8BEE3B
:10188800267A30EE070A83ED5E0AD3ED5F5A67EEDB
:10189800A55A85EEA67A66EE2AAACAEEA65A37EEA9
:1018A800257A83ED5F7AD3ED605A67EEA55AC5EEC7
:1018B800A67A26EE0A6AC6EE265A77EEA57AC3ED10
:1018C800607A20EE000A27EE077A30EE070A67EE04
:1018D800A77A30EE270AFFF735FBB0EE408A324B85
:1018E80083ED000A00231CE09FED302AF7EE001A72
:1018F8009FED2F1ADFED2F0AB2EE040AFFF7B6FEAE
:101908003AE7244903F15E0201EB8202D2ED007A44
:101918008A6802EB830268EE277AC2ED007A013307
:10192800DBB2022BEDD91B4C94ED5B0A20EE000ACA
:10193800D4ED5C7A67EEA77A30EE270AD4ED5D7AAB
:1019480067EEA77A30EE270AFFF7FCFAB7EE007ABF
:10195800C7EE007AC4ED657AC7EE086AC4ED666A18
:101968009FED157AF4EEC77AF1EE10FA2AD5DFED7D
:10197800137AF4EEE76AF1EE10FA23DDDFED107A60
:10198800F4EEE76AF1EE10FA1CD5012284F8392149
:101998001CE000BFD8090020CC0B0020D00B002091
:1019A800D40B0020849E0008B80B00200000000023
:1019B8008096184B6F12833A9A99993ECDCC144170
:1019C800CDCC24417E4B002283F839217C4CD4EDC8
:1019D8006C7A94ED6F7AD4F8183167EE877AC3ED94
:1019E800007AD4ED6C7A94ED6F7AD4F8183167EEFA
:1019F800877AC3ED077AD4ED6C7A94ED6F7AD4F8D0
:101A0800183167EE877AC3ED0E7AD4ED6C7A94EDCF
:101A18006F7AD4F8183167EE877AC3ED157AD4ED6A
:101A28006D7A94ED6F7AD4F8183167EE877AC3ED42
:101A38001C7AD4ED6D7A94ED6F7AD4F8183167EE8C
:101A4800877AC3ED237AD4F81C21D4F8B83113600F
:101A5800D4F81C211361D4F81C31D4F8B8211A62C7
:101A6800201D01F093FC6368D3ED000AC4ED540A0D
:101A7800D3ED017AC4ED557A93ED027A84ED567A66
:101A880093ED030A84ED570A1A69C4F860215B696B
:101A9800C4F864310023C4F8683120EE800A27EEC8
:101AA800877A30EE070A60EEA00A67EEA77A70EE32
:101AB800A70A70EEA00AF7EE008A70EEE80A30EE88
:101AC800000A07F0E9FD9FED3F8A20EE080A84ED41
:101AD8006A0AD4ED540A94ED550A20EE800A94ED72
:101AE800567AD4ED577A27EE277A30EE070A60EE59
:101AF800A00A67EEA77A70EEA70A70EEA00A70EE49
:101B0800E80A30EE000A07F0C7FD20EE080A84ED67
:101B1800690AD4ED557A94ED570A67EE807A94ED08
:101B2800540A94ED567A20EE070A77EEC07AB8EE9A
:101B3800000A27EE800A07F083FD20EE080A84EDEC
:101B4800680A94ED6A7AD4ED767A77EE677ADFEDF3
:101B58001E6AF4EEE67AF1EE10FA23DDB4F9D43118
:101B6800013BA4F8D431164BB3F9D42107EE902ADF
:101B7800F8EEE77ADFED156A67EEA67A77EE277A50
:101B8800C3ED6B7A83ED767AD3F84821D3F84C11FC
:101B9800013241F10001C3F84821C3F84C11BDECF2
:101BA800088B10BDDFED0A6AF4EEE67AF1EE10FA62
:101BB800D9D5034AB2F9D4310133A2F8D431D2E7E6
:101BC800D8090020E12E6542000034430000B443E8
:101BD800000034C370B52DED068B86B004460D4663
:101BE800164690ED040A9F4BD3ED007A70EE677AA3
:101BF800F0EEE77A9FED9C7AF4EEC77AF1EE10FAF0
:101C080022DCD0ED057A994B93ED007A77EEC77A0E
:101C1800F0EEE77A9FED947AF4EEC77AF1EE10FAD7
:101C280012DCD0ED067A924B93ED007A77EEC77A04
:101C3800F0EEE77A9FED8C7AF4EEC77AF1EE10FABF
:101C480002DC0378002B6ED09FED8AAA80EE0A0A88
:101C580003F048F8B0EE409A94ED050A80EE0A0ABF
:101C680003F040F8F0EE408A94ED060A80EE0A0A86
:101C780003F038F8F0EE40AA94ED040A80EE0A0A60
:101C880003F074F8B0EE408A94ED050A80EE0A0A73
:101C980003F06CF8F0EE409A94ED060A80EE0A0A1A
:101CA80003F064F869EE2A6A28EE297A27EE007AAA
:101CB80036EE877A704B83ED007A28EE887A6F4B80
:101CC80083ED007A29EE006A6AEE885A25EEA97A31
:101CD80036EE476A6A4B83ED006A29EE297A27EEC9
:101CE800007A37EE657A674B83ED007A29EE289AF9
:101CF800654B83ED009A28EE408A66EEA96A38EEB5
:101D0800668A624B83ED008A68EEC07A604BC3ED49
:101D1800007A604BC3ED009A68EEAA8A5E4BC3ED69
:101D2800008A00232370002310E005EB8302D2ED24
:101D3800007A04EB830292ED017A67EE877A06AAAD
:101D480002EB830242ED037A0133DBB2022BECD9BA
:101D5800DDED037A484B93ED006A27EE867A9DED18
:101D6800045A464BD3ED002A65EE226A37EE267AEE
:101D7800DDED055A424B93ED003A65EE836A37EE86
:101D8800267A85ED007A3F4BD3ED006A27EEA67AD6
:101D98003D4BD3ED003A65EE234A37EE247A3B4BB0
:101DA80093ED004A65EE844A37EE247A85ED017A90
:101DB800374B93ED007A67EE877A364BD3ED004ABE
:101DC80025EE245A77EE857A334B93ED005A65EE6B
:101DD800855A77EEA57AC5ED027A002309E006EB6D
:101DE8008302116806AA02EB830242F8181C013329
:101DF800DBB2022BF3D99DED002A26EE026ADDED57
:101E0800015A62EEA52A36EE226ADDED027A23EE49
:101E1800273A36EE036A86ED006A66EE826A63EE5A
:101E2800A53A76EEA36A24EE274A76EE846AC6EDD2
:101E3800016A27EE027A64EEA54A37EE247A25EE87
:101E4800275A37EE057A86ED027A2269054B1A6021
:101E58006269064B1A60A269054B1A6006B0BDECB0
:101E6800068B70BD8C0D00206F12833A840D002004
:101E7800880D0020E12E6542580D00205C0D0020E1
:101E8800600D0020640D0020680D00206C0D0020FE
:101E9800700D0020740D0020780D002008B52DED80
:101EA800028B204BF7EE001AC3ED011AC3ED021A9C
:101EB800C3ED031A9FED1C8A83ED048A83ED058A1E
:101EC80083ED068A01221A70B0EE482A9FED171A90
:101ED800DFED170AB2EE040AFFF7C8FB002211462D
:101EE800F0EE484AB0EE484AF0EE483AB0EE483ACA
:101EF800F0EE482AB3EE042ADFED0E1AB0EE481AC7
:101F0800DFED0D0A9FED0D0A0D4801F07EFD002161
:101F18000C4806F0A1FA0C4B0C4A1A64BDEC028B73
:101F280008BD00BFFC0B0020000000008096184B85
:101F38006F12833A00007A44000096430000FA4486
:101F4800A00C002058100020180C002096430B3CD1
:101F580092ED026A66EE067AF6EE006A76EEE77AA7
:101F680092ED037A67EE075A77EEE57AD0ED005ADC
:101F780067EEA57AD2ED014A66EE245A92ED005A30
:101F880027EE054A75EEC45A90ED014A65EE845A6B
:101F980077EEA57A27EE247A26EE056A37EE067ADA
:101FA80090ED026A27EE067A77EE877A77EEA77ABF
:101FB800C1ED007AD2ED015AD2ED027A25EEA77A68
:101FC800D2ED004A92ED035A24EE856A37EE067A7E
:101FD80090ED006A27EE067A25EEA56A36EEC66A07
:101FE80025EE054A36EE446A90ED014A26EE046A6B
:101FF80037EE067A67EE857A65EEA45A77EEE57ACB
:1020080090ED026A67EE867A37EE277A37EE077A1E
:1020180081ED017AD2ED015A92ED037A65EE877A65
:1020280092ED005A92ED026A65EE064A77EEE47A7E
:10203800D0ED004A67EEA47A27EE067A25EE855A97
:1020480037EE057A90ED015A27EE057A77EE877A12
:1020580065EEA55A76EEE56A26EE066A76EEC66A5B
:1020680090ED027A66EE876A77EEA67A77EEA77A1F
:10207800C1ED027A704792ED026A66EE067AF6EED4
:10208800006A76EEE77A92ED037A67EE075A77EE02
:10209800E57AD0ED005A67EEA57AD2ED014A66EEF0
:1020A800245A92ED005A27EE054A75EE845A90EDAF
:1020B800014A65EE845A77EEA57A27EE247A26EE51
:1020C800056A37EE467A90ED026A27EE067A77EED1
:1020D800877A77EEA77AC1ED007AD2ED015AD2ED70
:1020E800027A25EEA77AD2ED004A92ED035A24EE41
:1020F800856A37EE467A90ED006A27EE067A25EE75
:10210800A56A36EEC66A25EE054A36EE446A90EDB3
:10211800014A26EE046A37EE067A67EE857A65EE9E
:10212800A45A77EEA57A90ED026A67EE867A37EEC2
:10213800277A37EE077A81ED017AD2ED015A92EDCE
:10214800037A65EE877A92ED005A92ED026A65EE9F
:10215800064A77EEA47AD0ED004A67EEA47A27EE15
:10216800067A25EE855A37EE457A90ED015A27EE24
:10217800057A77EE877A65EEA55A76EEE56A26EE59
:10218800066A76EEC66A90ED027A66EE876A77EEA0
:10219800A67A77EEA77AC1ED027A704710B5114C8E
:1021A800114BD3ED000A114B93ED070A204601F0BD
:1021B80058FC94ED0D0A01F075F900EE100A9FED38
:1021C8000C1ADFED0C0AB8EEC00A01F05BF9BCEEA0
:1021D800C00A10EE103A9AB20021074800F096FBA8
:1021E80010BD00BFA00C0020900000204C11002062
:1021F8000000804F000000005810002070B52DED41
:10220800028B86B00023039304935F4B05935F48CA
:1022180000F0E2FB5E4E86ED000A5E4BD3ED007ADD
:1022280037EE800A83ED000A5B4D284603F084FCF4
:102238002B685A4CE3616B682362AB686362EB6896
:1022480023612B6963616B69A36104F11C0204F1CA
:1022580010015348FFF7BEFCD4ED090A94ED070AB4
:1022680007F01AFADFED4F8A20EE680A9FED4E8AD2
:10227800C0EE087AC4ED1A7AD4ED090A94ED080A7A
:1022880007F00AFA20EE280AC0EE087AC4ED1B7A95
:1022980096ED003AD4ED092A94ED082AD4ED071AF0
:1022A80094ED061AD4ED050A94ED040AFFF74EFAE8
:1022B8003E4B0FCB84E80F00224604F144013C4812
:1022C800FFF746FE224604F150013A48FFF740FE68
:1022D800224604F15C013848FFF73AFE2246694677
:1022E80003A8FFF7C8FE002327E02C4A991D02EB3C
:1022F800810191ED017A06A901EB830151ED067A7E
:1023080037EE677A2249D1ED007A27EE277AD2EDA7
:10231800106A77EEA67A87EE276A03F10A0102EBC4
:10232800810292ED007A66EE876A86EEA77A76EEEB
:10233800077AC2ED007A0133DBB2022BD5D9174CEC
:10234800224604F1340104F12800FFF701FE1B4B7B
:10235800D3F8A821A267D3F8A4216267D3F8A021F3
:102368002267D3F8AC31E367154B1B6813F0010FF4
:1023780007D0134A13680133136006B0BDEC028B13
:1023880070BDFFF70BFFF4E7C3F51C41980C002064
:10239800800D0020900D00204C110020180C00200A
:1023A800FC0B002000003443DB0F4940280B0020C1
:1023B800149F0008209F00082C9F0008D8090020BF
:1023C8007C0D002010B58AB00122089200230693E4
:1023D80007920093019302930393059304930E4C81
:1023E8006946204604F012F8204604F0ABF80221B2
:1023F800204604F0FFF90E2309930593074C69461C
:10240800204604F003F8204604F09CF802212046F8
:1024180004F0F0F90AB010BD2C0E0020540E002074
:1024280070B58AB0044601AB03AA002104F02DF967
:102438003D4B9C4204D03D4B9C425DD00AB070BDE0
:10244800039A40F205239A421DD0039A40F20623CC
:102458009A42F0D19DF804209DF8053043EA022302
:10246800334A13809DF806209DF8073043EA02237B
:10247800304A13809DF808209DF8093043EA02236A
:102488002D4A1380D7E79DF80520120212B29DF855
:1024980006009DF807109DF808301E0946EA011647
:1024A8001D0205F470659DF809301D431021DFED0C
:1024B800230A9FED230A104303F036FC214B83EDDA
:1024C800000A0C21F3EE0E0ABBEE0E0A304603F0AA
:1024D8002BFC1D4B83ED000A0C21F2EE040ABAEE28
:1024E800040A284603F020FC184B83ED000A184A1A
:1024F800136801331360A8E7039A40F206239A424F
:102508009CD19DF804209DF8053043EA02231BB2B4
:10251800104A13809DF806209DF8073043EA0223ED
:102528001BB20D4A138089E72C0E0020540E0020A0
:10253800980D00209A0D00209C0D0020C3F54840FE
:10254800C3F548C0A40D0020A80D0020AC0D002044
:10255800A00D0020940D0020960D002070B582B0CB
:102568002D4B4FF404721A6000229A60DA60082139
:1025780019612A4BB3F800E01FFA8EFE0EF5806E43
:10258800588880B200F580609C88A4B204F5806504
:10259800D9881FFA81FC0CF58061CEF30A0E204E13
:1025A80006EAC0204EEA000EC5F380204EEA845E9B
:1025B80040F6FE7C0CEA410C4CEA000C197A09033F
:1025C80001F440514CEA010C5B7A9B0303F440434D
:1025D8004CEA030C134B1B781B0403F480334CEABE
:1025E800030C0FE0D300C3F12000A3F120012EFA61
:1025F80003F30CFA00F003432CFA01F10B430A49E8
:102608008B540132072AEDDD01AB074A024907481E
:1026180003F0C6FF02B070BDB80D00209400002082
:1026280000F83F007C0E0020B00D0020540E002062
:1026380000B585B0184A40F2FF1313600023936079
:10264800D360082111610193029303F07DFD134BC0
:102658001B78DBB2012B01D0002311E0104A13884C
:1026680043F307238DF8063013888DF80730F3E716
:1026780003F110026A4412F80C1C0A4AD1540133BF
:10268800072BF5DD03AB074A0349074803F088FF2A
:1026980005B05DF804FB00BFB80D00207C0E0020DB
:1026A80000120020B00D0020540E002000B585B0A7
:1026B80003F0B0FC174A40F2FF1313600023936045
:1026C800D3600821116101930293134B1B78DBB28D
:1026D800012B01D0002311E0104BB3F9002093F92E
:1026E80001308DF806308DF80720F3E703F110026A
:1026F8006A4412F80C1C0A4AD1540133072BF5DD41
:1027080003AB074A0349074803F04AFF05B05DF8E1
:1027180004FB00BFB80D00207C0E0020CE11002065
:10272800B00D00202C0E002038B5044690F8420069
:10273800C0B2202815D1B1B10AB9012038BDA162B3
:10274800A28500256564206813460A46011DE06BD2
:1027580004F0D2FA2268536943F0400353612846D3
:10276800ECE70220EAE70120E8E7000000B583B0C3
:1027780000230193084803681A6801925A68019275
:10278800019ADA6842F01002DA6032220349FFF750
:10279800CBFF03B05DF804FB00110020840E00207D
:1027A80010B5374A13680133136091F800C04B78AD
:1027B8004CEA032CCCF30A0CA0F800C0ACF5806CF2
:1027C8000FFA8CFCA0F800C04A788B78D20842EA4D
:1027D8004312C2F30A024280A2F5806212B242801A
:1027E8008B78CC789B0943EA84030C7943EA8423E9
:1027F800C3F30A038380A3F580631BB2838091F837
:1028080004E04C794FEA5E0E4EEAC41ECEF30A0E7F
:10281800A0F806E0AEF5806E0FFA8EFEA0F806E08E
:102828004C79A40904724979C1F301114172BCF1D0
:10283800000FB8BFCCF1000C1FFA8CFCBCF5257F4B
:1028480017D8002AB8BF524292B2B2F5257F10D8E5
:10285800002BB8BF5B429BB2B3F5257F09D8BEF108
:10286800000FB8BFCEF1000E1FFA8EFEBEF5257F11
:1028780005D90023036043608360C360036110BD12
:10288800800E0020406880B27047000010B582B00A
:102898000023019303681A6801925B680193019B06
:1028A800104B984201D002B010BD0446C36B1A68A1
:1028B800136823F001031360C36B1868FFF7E2FF86
:1028C80020280AD0E36B1B6832225A60E36B1A682F
:1028D800136843F001031360E5E703490348FFF772
:1028E8005FFFEFE700110020840E00209400002015
:1028F80008B503681A6812F0100F03D0DB6813F0EC
:10290800100F00D108BDFFF7C1FFFBE70368D86AC5
:10291800824201D9DA6A92B20C290FD8DFE801F0B5
:10292800070E0E0E090E0E0E0B0E0E0E0D005A633C
:1029380070479A637047DA6370471A6470470000FB
:1029480082B0084B5B680193019A074B1B689A4257
:1029580003D2064A136801331360019A024B1A60C6
:1029680002B07047001000E0000E0020040E0020A6
:10297800104AD2F8FC3043F08073C2F8FC300E4B9A
:10298800002159601A6842F001021A600B4B03FBE0
:1029980000F00B4B18600B4BA3FB00239B090A4A62
:1029A80013600A4BA3FB0030800C094B1860094BDD
:1029B8001960704700ED00E0001000E040420F0091
:1029C800E80D0020D34D6210EC0D002083DE1B4380
:1029D800F00D0020040E002000B52DED028B83B011
:1029E8000D4B5B680193019B02689B1A07EE903AB6
:1029F800F8EE677A094B93ED007AB8EE477A87EEDE
:102A0800878A019B0360FFF79BFFB0EE480A03B07B
:102A1800BDEC028B5DF804FB001000E0E80D00201F
:102A28002DE9F04182B0274B5B680193FFF788FFDF
:102A3800254B1C6800266508E3071B1B65F100058C
:102A4800DB186D411C1945F10005019BE41845F19F
:102A580000071E4B1C605F601D4B1D682A463346ED
:102A680020463946FEF752F81A4A10605160A5FB15
:102A7800003205FB0125E41A67EB0505164B1C60BF
:102A88005D60DFF86480C8F80000144B1F683A46A0
:102A9800334620462946FEF739F880B2A8F80400E4
:102AA80007FB00F0201A65F100010D4B1860596012
:102AB8000C4B1A683346FEF729F8A8F8060002B04E
:102AC800BDE8F081001000E0040E0020F80D0020A1
:102AD800E80D0020D00D0020D80D0020EC0D0020BE
:102AE800E00D0020F00D0020080E002008B5FFF7CB
:102AF80097FF0E4B9A8800EE102AB8EEC00ADFED59
:102B08000C7A60EE277A93ED007AB8EE470A30EE39
:102B1800270ADB8807EE903AF8EEE77A9FED057A08
:102B280067EE877A30EE270A08BD00BF080E00203E
:102B38006F12833ABD3786350A4B5A68094B5B6872
:102B48009B1A07EE903AB8EE677A074BD3ED007AF6
:102B5800F8EE677A67EE807AB4EEE77AF1EE10FA6B
:102B6800ECD47047001000E0E80D002070B5044672
:102B780000250574827B424E338803FB02F24168CC
:102B8800D0F8F400FEF744F9A27B338803FB02F285
:102B98002946606806F0F2FAA27B338802FB03F349
:102BA80003FB02F22946D4F8180106F0E7FA227B63
:102BB800338802FB03F3A27B03FB02F22946D4F815
:102BC8000C0106F0DBFA294601E00131C9B2A37B0A
:102BD8008B422AD9D4F8F4304FEA810C03EB8102F6
:102BE800D2ED007AF5EE407AF1EE10FAEDD0227CC3
:102BF80003EB8203C3ED007A626A237CD154A06997
:102C0800D4F80C2194F80CE0257C63695B5C05FB27
:102C18000E3303F18043013B02EB830360440268F7
:102C28001A60237C01332374CFE700230FE0E069A7
:102C3800616A11F803C0D4F8181102FB033201EBE2
:102C4800820200EB8C00016811600133DBB2227C48
:102C58009A42ECD892B2A4F87820237BA4F87A3070
:102C6800A4F88030A4F88220A4F89020A4F8922038
:102C7800A4F89830A4F89A20A4F8482070BD00BFA2
:102C8800120E00202DE9F04704460D4691461E46D7
:102C9800DFF8B8830423A8F80030EB4B08221A8029
:102CA800017380F80D90867300270774304605F08D
:102CB800ADFF60613246394606F060FAB8F800A008
:102CC80006FB0AFA504605F0A1FFA06152463946B4
:102CD80006F054FAB8F800A006FB0AFA504605F0C8
:102CE80095FFE0615246394606F048FAB8F800A068
:102CF80005FB0AFA504605F089FF2062524639461C
:102D080006F03CFA304605F081FF606232463946EB
:102D180006F034FAB8F8000005FB00F005F076FF7D
:102D28002060B8F8002005FB02F2394606F026FAC2
:102D3800B8F800A006FB0AFA504605F067FF606085
:102D48005246394606F01AFAB8F800A009FB0AFA02
:102D5800504605F05BFFA0605246394606F00EFA71
:102D6800B8F800A005FB0AFA504605F04FFFC4F872
:102D7800E8005246394606F001FAD4F8E830012254
:102D8800217B04F1300002F08FF8B8F8008005FBD1
:102D980008F8404605F03AFFC4F8EC0042463946C8
:102DA80006F0ECF9D4F8EC300122217B04F138006C
:102DB80002F07AF8B9F1000F40F04A81DFF88C820E
:102DC800B8F8007006FB07F7384605F01FFFC4F88F
:102DD800F4003A46002106F0D1F9D4F8F430012283
:102DE800A17B04F1480002F05FF8B8F8007005FB19
:102DF80007F705FB07F7384605F008FFC4F8F800A1
:102E08003A46002106F0BAF9217BD4F8F8300A4690
:102E180004F1500002F048F8B8F8007005FB07F715
:102E280005FB07F7384605F0F1FEC4F8FC003A4602
:102E3800002106F0A3F9217BD4F8FC300A4604F1FE
:102E4800580002F031F8B8F8007005FB07F705FBE9
:102E580007F7384605F0DAFE8246C4F8000138461E
:102E680005F0D4FEC4F804013A460021504606F0A5
:102E780085F9B8F8002005FB02F205FB02F20021F3
:102E8800D4F8040106F07AF9217BD4F800310A4617
:102E980004F1600002F008F8217BD4F804310A46F6
:102EA80004F1680002F000F8B9F1000F40F0E68084
:102EB800664FB7F800A00AFB06F909FB05F9484672
:102EC80005F0A4FE8046C4F80C010AFB05F006FBD9
:102ED80000F005F09BFEC4F810014A460021404668
:102EE80006F04CF93A8805FB02F206FB02F20021D3
:102EF800D4F8100106F042F9D4F80C31227BA17BFA
:102F080004F1780001F0D0FFD4F81031A27B217BC6
:102F180004F1800001F0C8FFB7F8008005FB08F84D
:102F280008FB05F8404605F071FEC4F81401424656
:102F3800002106F023F9217BD4F814310A4604F164
:102F4800880001F0B1FFB7F8008006FB08F808FB1D
:102F580006F8404605F05AFEC4F81801424600211A
:102F680006F00CF9A17BD4F818310A4604F1900058
:102F780001F09AFF398801FB05F505FB06F6304696
:102F880005F044FEC4F81C013246002106F0F6F8AC
:102F9800D4F81C31A27B217B04F1980001F084FF56
:102FA800267B3F8806FB07F707FB06F5284605F052
:102FB8002DFE8046C4F82001284605F027FEC4F8F7
:102FC8002401284605F022FEC4F82801384605F0F9
:102FD8001DFEC4F82C01384605F018FEC4F830016F
:102FE800B1B243460A4604F1A00001F05DFF217B1F
:102FF800D4F824310A4604F1A80001F055FF217BDA
:10300800D4F828310A4604F1B00001F04DFFD4F895
:103018002C310122217B04F1B80001F045FFD4F8DE
:1030280030310122217B04F1C00001F03DFF002373
:1030380084F8283084F8293084F82A3084F82B3032
:1030480084F82C30BDE8F087100E0020120E002006
:10305800164B1F8809FB07F7384605F0D7FDC4F85B
:10306800F0003A46002106F089F8D4F8F030012241
:10307800617B04F1400001F017FF9FE6B8F80020DB
:1030880005FB02F202FB09F9484605F0BFFDC4F84A
:1030980008014A46002106F071F8D4F80831627B2D
:1030A800217B04F1700001F0FFFE01E7120E002001
:1030B80038B50446C37B63B1FFF758FD627B0E4BFE
:1030C8001B8803FB02F2A168D4F8F000FDF7A0FE0C
:1030D80038BD827B084D2B8803FB02F24168D0F88B
:1030E800F400FDF795FEA27B2B8803FB02F200217A
:1030F800606806F043F8E1E7120E002090F82830E7
:10310800B3BB70B50446437B43B3037BA0F8B83028
:103118000126A0F8BA6000F1B8052A4600F130018E
:10312800603001F0D3FF84F8C800237BA4F8C030D6
:10313800A4F8C26004F1C006324604F1400104F16B
:10314800700001F0C3FF84F8C80004F1380231466A
:10315800284601F05BFE84F8C80070BD00F1380213
:1031680000F13001603001F0B1FF84F8C800F4E7E5
:103178007047F8B590F8293003B1F8BD044600F15E
:10318800600600F168073946304602F073F884F8A3
:10319800C80004F158052A4604F15001304601F0F0
:1031A80095FF84F8C800B4F85830A4F8A830B4F8EB
:1031B8006A30A4F8AA3004F1A806324639462846EF
:1031C80001F084FF84F8C8002A4604F188013046DB
:1031D80001F01CFE84F8C800CFE72DE9F84390F809
:1031E8002A300BB1BDE8F883044600F1780600F1F7
:1031F80080073946304602F03DF884F8C800B4F834
:103208007830A4F8A830B4F85A30A4F8AA3004F1F9
:10321800580804F1A8052A464146304601F056FFF1
:1032280084F8C800B4F8A830A4F8B030B4F88230F4
:10323800A4F8B23004F1B00632463946284601F007
:1032480045FF84F8C800B4F89030A4F8A030B4F86A
:103258009230A4F8A23004F1A0094A4604F1900182
:10326800304601F0D3FD84F8C8003146484601F0E5
:103278001FFE84F8C800B4F85830A4F8A830B4F891
:103288008230A4F8AA302A463946404601F01EFF8B
:1032980084F8C80004F198023146284601F016FF68
:1032A80084F8C8009EE790F82B3003B170472DE9E9
:1032B800F0410446B0F87830A0F8B8300126A0F8FC
:1032C800BA6000F1380700F1B8052A463946783067
:1032D80001F0FCFE84F8C800B4F84830A4F8C03007
:1032E800A4F8C26004F1C0084246294604F1480027
:1032F80001F072FF84F8C800B4F89830A4F8B83028
:10330800A4F8BA602A46414604F1980001F0DEFEAE
:1033180084F8C80004F130022946384601F076FDE9
:1033280084F8C800BDE8F081F8B590F82C3003B1F6
:10333800F8BD0446B0F89830A0F8A830B0F87A2064
:10334800A0F8AA20A0F8B030B0F85A30A0F8B230EF
:1033580000F1A8073A4600F17801983001F0B6FE6E
:1033680084F8C80004F1580504F1B006324629462D
:10337800384601F0ABFE84F8C80004F1500231462B
:10338800284601F029FF84F8C800D1E738B504467B
:10339800FFF78EFED4F8CC300BB120469847204674
:1033A800FFF7ACFED4F8D0300BB120469847204642
:1033B800FFF7DFFED4F8D4300BB120469847237CC2
:1033C8000BB9E37BCBB92046FFF707FFD4F8D83019
:1033D8000BB1204698472046FFF765FFD4F8DC304C
:1033E8000BB1204698472046FFF79EFFD4F8E030FF
:1033F8000BB120469847002319E0227B204D2B88EB
:1034080003FB02F2D4F8EC10D4F8E800FDF700FD55
:10341800227B2B8802FB03F303FB02F2D4F8FC1097
:10342800D4F8F800FDF7F4FCE0E70133DBB2227BC7
:103438009A4214D9D4F8F81002FB033201EB820245
:1034480092ED007A216A01EB8301D1ED007AB4EEA6
:10345800E77AF1EE10FAE8D5C2ED007AE5E7084B15
:103468001B8803FB02F2D4F8E8102068FDF7D0FCB3
:10347800D4F8E4300BB120469847206838BD00BF27
:10348800120E0020B4EEE00AF1EE10FA07D4B4EE02
:10349800C10AF1EE10FA04DDB0EE410A7047B0EE51
:1034A800600A7047FDEEC07A0C4BC3ED007AB8EEA7
:1034B800E77A30EE470A0A4B83ED000AB6EE007A47
:1034C800B4EEC70AF1EE10FA04DD17EE903A0133B4
:1034D800024A1360014B1868704700BF180E00209D
:1034E800140E0020F8B504460180002646608D00C1
:1034F800284605F08BFB0746A060284605F086FBAA
:10350800E0600023236163612A463146384605F0AE
:1035180035FE2A463146E06805F030FEE66126624F
:103528006662A662F8BD0000836893ED017A5D4B80
:1035380083ED007A002313E08268591C02EB810CAA
:10354800DCED007A02EB830277EEC77AC2ED007AEF
:10355800C26802EB830302EB810212681A608BB225
:103568000288511E8B42E7DB816802F18043023BEF
:1035780001EB8303D3ED007A6FF0404C624401EB1A
:10358800820237EE800A82ED000AC368028862442C
:1035980003EB8203C3ED000A4368B0F800C063453B
:1035A80001D2013343600023C36103624362836233
:1035B8008388ACEB03039BB21A462DE0816801EBCC
:1035C8008201D1ED007A67EEA77A90ED077A77EE5F
:1035D800277AC0ED077A91ED007AD0ED087A77EE78
:1035E800877AC0ED087AD1ED007AC16801EB8201D3
:1035F80091ED007A27EE877AD0ED097A77EE877A0F
:10360800C0ED097A91ED007AD0ED0A7A77EE877AE3
:10361800C0ED0A7A013292B29445CFD890ED097A7A
:1036280007EE90CAB8EEE76A27EE067AD0ED086A88
:10363800D0ED0A7A66EEA77A37EE677AD0ED077A88
:1036480066EE277A66EEA66A77EEE67A87EE270AAE
:1036580080ED040A002282611BE0826802EB83028B
:10366800D2ED007A60EE277A90ED057A77EE877AC8
:10367800C26802EB830292ED007A77EEC77AF0EE29
:10368800E77A90ED067A77EE277AC0ED067A01336D
:103698009BB29C45E1D890ED067AC7EE067AC0ED5C
:1036A800067A70471C0E0020D0F89830C3B1D0EDD0
:1036B800027A93ED017A77EE877A90ED067AD0ED6B
:1036C800076A37EE267AF6EE006A27EE267A67EE64
:1036D800877A90ED257A67EE877AC0ED0C7A704785
:1036E800D0ED027A90ED067AD0ED076A37EE267AA9
:1036F800F6EE006A27EE267A67EE877A90ED257A4D
:1037080067EE877AC0ED0C7A7047D0ED067A90EDB7
:103718000A7A27EE877AB5EEC07AF1EE10FA26DD3E
:10372800F5EEC07AF1EE10FA1CDD90ED157AB4EEE4
:10373800E77AF1EE10FA1ADAD0ED146A37EE266A53
:10374800B4EEE76AF1EE10FA0FDB76EEE77A77EE81
:10375800277A87EEA67AD0ED0C7A67EE877AC0EDE5
:103768000C7A7047F1EE677ADFE70023036370474E
:10377800D0ED0A6A90ED0C7A36EE877A1F4B83ED0E
:10378800007AD0ED097A76EEA77A90ED0B6A77EE9B
:10379800867A1B4BC3ED007AF5EEC07AF1EE10FA8B
:1037A80028DD90ED106AB4EEE76AF1EE10FA0AD55A
:1037B800D0ED067A66EEA76AF5EEC06AF1EE10FA69
:1037C80001DD00230363D0ED117AB4EEE77AF1EE60
:1037D80010FA03DD00230363C0ED0A7AF1EE677A7D
:1037E800B4EEE77AF1EE10FA03D500230363C0EDD7
:1037F8000A7A7047F1EE677AD3E700BF200E0020FF
:10380800240E002090ED0B6AD0ED257A26EE276A6B
:1038180090ED177A77EE877AC6EE276A90ED0F6AF1
:1038280027EE067A87EE276A76EE867AC0ED0B7A5F
:10383800704790ED0D6AD0ED257A26EE276A90ED57
:10384800167A77EE877AC6EE276A90ED0E6A27EE2B
:10385800067A87EE276A76EE867AC0ED0D7A70478B
:1038680090ED0D7AD0ED107AB4EEE77AF1EE10FA19
:1038780001DDC0ED0D7A90ED0D7AF1EE677AB4EEC8
:10388800E77AF1EE10FA01D5C0ED0D7A704790EDA8
:10389800097AD0ED107AB4EEE77AF1EE10FA01DD8C
:1038A800C0ED097A90ED097AF1EE677AB4EEE77A1D
:1038B800F1EE10FA01D5C0ED097A704790ED0D7A56
:1038C800D0ED107ADFED206A67EEA67AB4EEE77ADB
:1038D800F1EE10FA31D4D0ED007AB0EEE77ADFEDF0
:1038E8001B6AB4EEE67AF1EE10FA26D4D0ED046A3B
:1038F80077EEE67AF0EEE77AC7EE876ADFED147ABC
:10390800F4EEE76AF1EE10FA18DDD0F8A030D0F83E
:10391800A420013342F10002C0F8A030C0F8A4206E
:10392800D0F8A010D0F8A43040F2F512914273F10B
:10393800000302D3012380F8A83070470022002337
:10394800C0E92823ECE700BF6F12833A17B7D138D4
:103958003333733F10B52DED028B0446D0F8983001
:10396800D3B1B0F86020022A3BD8D0ED037A93EDAA
:10397800027A77EE877A90ED057AD0ED046A37EE11
:10398800667A67EE877AD0ED256A87EEA67A80EDAB
:103998000B7ABDEC028B10BDB0F86030022B10D84A
:1039A800D0ED037A90ED057AD0ED046A37EE667AA9
:1039B80067EE877AD0ED256A87EEA67A80ED0B7AD6
:1039C800E7E790ED038AD0ED040AF1EE600A90ED86
:1039D800250A6430FFF7A8FD28EE008A84ED0B8ADB
:1039E800D7E790ED038AD3ED027A38EE278AD0ED37
:1039F800040AF1EE600A90ED250A6430FFF794FDA1
:103A080028EE008A84ED0B8AC3E770B50446164693
:103A180080ED121AC0ED110A80ED100A002505602C
:103A2800C0ED011A80ED022AC0ED032A056380ED7E
:103A3800143AC0ED153A80ED164AC0ED174AA0F8C1
:103A480060106430FFF74EFD0023C4F8903084F80E
:103A58009C6000200021C4E9280184F8A83065632F
:103A680070BD10B52DED028B0446F0EE408AB0EE25
:103A7800608A90F99C30002BC0F2A08004F190007D
:103A8800FEF7AAFF84ED250AC4ED048A84ED008AB6
:103A980038EE688A84ED068AD4F8B0300BB1204637
:103AA8009847D4ED060AF5EEC00AF1EE10FA40F395
:103AB8008880F0EE607A94ED127AB4EEE77AF1EE4F
:103AC80010FA6CD5D4F89830002B7DD0D4ED017A5B
:103AD80093ED007A77EE877A60EEA77AC4ED097ADB
:103AE800D4ED027A93ED017A77EE877A60EEA77AC1
:103AF80094ED250A67EE807AC4ED0C7AB4F860205C
:103B0800022A00F28D80D4ED037A93ED027A77EEE3
:103B1800877A94ED077A70EEC70A67EEA00AC0EEBE
:103B2800807AC4ED0B7AD4F8B4300BB120469847AC
:103B380094F89C3013F0040F40F0818094F89C3086
:103B480013F0200F7FD194F89C3013F0020F7ED130
:103B580094F89C3013F0400F7DD194F89C3013F00A
:103B6800010F7CD1D4ED0C7A94ED0A7A77EE877A3E
:103B7800C4ED0A7A94ED097A77EE877A94ED0B7A98
:103B880077EE877AC4ED0D7A94F89C3013F0100F15
:103B980069D12046FFF764FE2046FFF778FE2369C7
:103BA800636194ED0D0A84ED0E0AE36AE363A36989
:103BB800E361236B2362BDEC028B10BDFFF77EFE31
:103BC8005CE7F1EE607A76E7D4ED017A60EEA77AE9
:103BD800C4ED097AD4ED027A60EEA77A94ED250A4D
:103BE80067EE807AC4ED0C7AB4F86030022B0CD8FA
:103BF800D4ED037A94ED077A70EEC70A67EEA00A4F
:103C0800C0EE807AC4ED0B7A8DE794ED038A04F157
:103C18006400FFF789FC28EE008A84ED0B8A82E7AE
:103C280094ED038AD3ED027A38EE278A04F1640012
:103C3800FFF77AFC28EE008A84ED0B8A73E72046AA
:103C4800FFF732FD7AE72046FFF75FFD7BE7204666
:103C5800FFF780FE7CE72046FFF7D4FD7DE720468E
:103C6800FFF786FD7EE72046FFF7E3FD91E70000BA
:103C780008B50D480D4B03600323436000238360A0
:103C8800C3604FF4102202614FF4001242610376C0
:103C980043768376C3760377437702F011FB00B946
:103CA80008BD00F059FAFBE72C0E00200064004024
:103CB80008B50D480D4B0360032343600023836060
:103CC800C3604FF4102202614FF400124261037680
:103CD80043768376C3760377437702F0F1FA00B927
:103CE80008BD00F039FAFBE7540E002000680040D8
:103CF80010B58AB000230593069307930893099398
:103D080003683D4A934204D03C4A934234D00AB0F7
:103D180010BD3B4A136801331360012B1FD00024E8
:103D28000194384B1A6B42F008021A631B6B03F0BC
:103D380008030193019B032305930222069208932B
:103D48000923099305A9304803F046F9224621467C
:103D5800142002F0A5FE142002F0DAFED7E70023B3
:103D68000093284B1A6C42F000721A641B6C03F023
:103D780000730093009BD2E700230293214B1A6C37
:103D880042F080621A641B6C03F080630293029B0A
:103D98001B4A136801331360012B20D000240494BC
:103DA800184B1A6B42F002021A631B6B03F00203F2
:103DB8000493049B6023059302230693032308932B
:103DC8000923099305A9114803F006F9224621465B
:103DD800402002F065FE402002F09AFE97E700239B
:103DE8000393084B1A6C42F000721A641B6C03F0C0
:103DF80000730393039BD1E7006400400068004010
:103E0800280E002000380240000C02400004024046
:103E180010B582B000240094164B1A6B42F40012BD
:103E28001A631A6B02F400120092009A01941A6B3A
:103E380042F480021A631B6B03F480030193019B15
:103E4800224621460C2002F02BFE0C2002F060FED8
:103E5800224605213A2002F023FE3A2002F058FEBD
:103E6800224605213B2002F01BFE3B2002F050FEBB
:103E780002B010BD003802402DE9F04F8FB0002489
:103E880009940A940B940C940D940194934B1A6B17
:103E980042F002021A631A6B02F002020192019ABE
:103EA80002941A6B42F040021A631A6B02F0400245
:103EB8000292029A03941A6B42F001021A631A6B77
:103EC80002F001020392039A04941A6B42F008026A
:103ED8001A631A6B02F008020492049A05941A6B8A
:103EE80042F004021A631A6B02F004020592059A62
:103EF80006941A6B42F480721A631A6B02F4807289
:103F08000692069A07941A6B42F080021A631A6B9B
:103F180002F080020792079A08941A6B42F0200276
:103F28001A631B6B03F020030893089BDFF8C0910A
:103F380022464FF48071484603F040F9DFF8B48117
:103F480001224021404603F039F922464FF4E0515E
:103F5800634803F033F9634F01221021384603F018
:103F68002DF9614E012241F20101304603F026F994
:103F78004FF48443099302250A950B944FF0030AE2
:103F8800CDF830A04FF0080BCDF834B009A9404661
:103F980003F022F8802309930A950B94CDF830A0FA
:103FA80007230D9309A9304603F016F8C023099397
:103FB8004FF488130A930B9409A94C4803F00CF8A2
:103FC8004FF4007309930A950B94CDF830A007239A
:103FD8000D9309A9384602F0FFFF4FF48073099347
:103FE8004FF0010ACDF828A00B940C9409A9484673
:103FF80002F0F2FF40230993CDF828A0CDF82CA0B9
:10400800CDF830A009A9404602F0E6FF4FF4E0538E
:104018000993CDF828A00B940C9409A9304802F014
:10402800DBFFCDF824B04FF4041BCDF828B0CDF851
:104038002CA009A9404602F0CFFFCDF824A00A948D
:10404800CDF82CA009A9384602F0C6FF1023099321
:10405800CDF828A0CDF82CA00C9509A9384602F077
:10406800BBFF30230993CDF828B0CDF82CA009A9BF
:10407800484602F0B1FF4FF480530993CDF828A0C9
:10408800CDF82CA0CDF830A009A9304602F0A4FF45
:10409800CDF824A0CDF828A0CDF82CA00C9509A91E
:1040A800304602F099FF22460521092002F0F8FC6B
:1040B800092002F02DFD224605210A2002F0F0FC1D
:1040C8000A2002F025FD22460521172002F0E8FC0F
:1040D800172002F01DFD0FB0BDE8F08F0038024038
:1040E800001C024000000240000402400020024080
:1040F800000802400018024010B50A4C01224FF493
:104108008051204603F05AF801224FF400612046FE
:1041180003F054F801224FF48061204603F04EF872
:1041280010BD00BF001C024010B50A4C00224FF41D
:104138008051204603F042F800224FF400612046E7
:1041480003F03CF800224FF48061204603F036F873
:1041580010BD00BF001C024072B6FEE700B595B066
:104168003022002108A805F009F8002303930493DE
:104178000593069307930193204A116C41F08051EF
:104188001164126C02F080520192019A02931C4B46
:104198001A6842F480421A601B6803F48043029351
:1041A800029B012308934FF48033099302230E9353
:1041B8004FF480020F9206221092A82211921293B5
:1041C8000423139308A803F00FF898B90F23039357
:1041D80002230493002305934FF4A05306934FF44E
:1041E80080530793052103A803F04CFA20B915B0B2
:1041F8005DF804FBFFF7B0FFFFF7AEFF00380240A1
:104208000070004008B51F4A936823F003039360C9
:1042180002F016F8FFF7A2FFFFF72EFEFFF7F8FDF2
:1042280000F0B6FC00F036F800F0D6FBFFF720FDF2
:10423800FFF73EFD00F072FCFEF798FAFEF7C2F8B1
:1042480001F010FE104803F009FEA820FEF790FBCD
:1042580001210E4801F03AFC0028F9D1FDF71EFEB5
:10426800FDF7CCFF0A4B1B78DBB2012B06D0084BBD
:104278001B78002BF4D1FFF757FFF1E7FFF73CFF5E
:10428800F5E700BF0038024010100020580F00204A
:104298007C0E002008B50F480F4B03604FF4827363
:1042A800436000238360C3600222026101224261ED
:1042B8004FF4007282611022C2610362436283621A
:1042C8000A23C36203F07CFB00B908BDFFF744FF73
:1042D800FBE700BF580F0020003001402DE9F043F4
:1042E80089B0002303930493059306930793026808
:1042F8003F4B9A4202D009B0BDE8F083044600253E
:10430800009503F584335A6C42F480525A645A6C0F
:1043180002F480520092009A01951A6B42F0020250
:104328001A631A6B02F002020192019A02951A6B43
:1043380042F001021A631B6B03F001030293029B14
:10434800182303934FF00209CDF810904FF001089D
:10435800CDF81480032706970526079603A9254854
:1043680002F03AFE80230393CDF81090CDF8148024
:104378000697079603A9204802F02EFE1F48204BF7
:1043880003604FF0C06343608560C5604FF480638D
:10439800036145618561C5614FF44033036245623D
:1043A80002F044FCE8B9154BE3649C631548164BCE
:1043B80003604FF0C0634360402383600023C36001
:1043C8004FF48062026143618361C3614FF400323C
:1043D8000262436202F02AFC30B90A4BA3649C6370
:1043E80089E7FFF7B9FEDEE7FFF7B6FEF5E700BF9E
:1043F800003001400004024000000240980E0020F6
:1044080040640240F80E00205864024082B0002147
:1044180000910B4B5A6C42F480425A645A6C02F475
:1044280080420092009A01911A6C42F080521A64FC
:104438001B6C03F080530193019B02B0704700BFCF
:104448000038024030B589B0044600230193224B5E
:104458001A6C42F001021A641B6C03F00103019309
:10446800019B02A903A803F0E3F9069BD3B903F063
:10447800BFF903461948A0FB03239B0C013B1848CE
:104488004FF08042026040F2E732C260436000238E
:1044980003618360836103F045FE054630B1284619
:1044A80009B030BD03F0A4F94300E3E70C4803F07A
:1044B800D5FC05460028F2D11C2002F029FB0F2C60
:1044C80001D90125EBE7002221461C2002F0E8FA79
:1044D800044B1C60E3E700BF0038024083DE1B4347
:1044E800B00F0020E0000020FEE7FEE7FEE7FEE751
:1044F800FEE7704770477047704708B5082002F01C
:1045080065FE08BD08B5102002F060FE08BD000079
:1045180008B5024802F072FC08BD00BFA0100020D8
:1045280008B5024802F084F908BD00BF2C0E00202F
:1045380008B5202002F04AFE402002F047FE802005
:1045480002F044FE08BD000008B5034803F0CFFCA4
:10455800024803F0CCFC08BD1010002058100020C1
:1045680008B5024803F0C3FC08BD00BFB00F002027
:1045780010B5044C2046FEF7BBF9204604F0D8F9E4
:1045880010BD00BF0011002008B5024802F050F924
:1045980008BD00BF540E0020F8B504460268AE4BB3
:1045A8009A4205D02368B3F1804F00F0D881F8BD56
:1045B800AA4A136801331360A94A82FB0312D1186F
:1045C800DA17C2EBA112462101FB1232012A64D08C
:1045D800002B03F00103B8BF5B42012B72D09F4B45
:1045E8001A68A04981FB0231D317C3EBA10303EB7F
:1045F8008303A2EB4303012B67D0984B1A689949B0
:1046080081FB0231D317C3EB610303EB8303D31A96
:10461800012B00F05581914B1B68002B03F001031F
:10462800B8BF5B42012B00F06A818F4B1B78DBB26D
:10463800012BB7D18D4B5B7ADBB2032B00F068817D
:10464800864B1B688A4981FB0321DA17C2EB61128A
:104658004FF4967101FB1232012A00F06D815A4223
:1046680003F0030302F0030258BF5342012B00F08A
:104678007381FEF71BF87F4BB3F90030B3F5FA5F8F
:1046880090DD7D4B1B78012B8CD17C4A1368043B51
:104698001360794B00221A7084E7794AB2F9001046
:1046A800784A1268914207D06F4A01211170754A01
:1046B8001168734A11808BE700226B490A707149AF
:1046C8000A60F4E7FDF74AFF89E76F4B1B68B3F50B
:1046D800967F65DB6C4B1B68B3F5967F74D0624B95
:1046E8001B7853B9694B00221A80694BD3ED007AC5
:1046F800F8EEE77A674BC3ED007A5B4B1B78DBB2C9
:10470800012B72D0584B1B78DBB2012B7FF475AFAD
:10471800614BB3F90030012B7FF46FAF5B4BB3F9FA
:104728000030012B7FF469AF504B588800B2FBF77B
:1047380099FE43A3D3E90023FBF7FEFE06460F4686
:10474800564D2868FBF7A0FE32463B46FBF73EFD78
:10475800FCF78CF92860FBF797FE3BA3D3E900230D
:10476800FCF77AF908B14E4A2A604C4B1868FBF7F7
:104778008BFE37A3D3E90023FCF750F910B1474B60
:10478800484A1A60DFED480AB0EE602AF6EE001AD1
:104798009FED461A414B93ED000A01F0EDFA2CE724
:1047A800B7EE080A3D4B83ED000ADFED3F0AB0EE95
:1047B800602ADFED3F1AB2EE001A01F0DDFA324A44
:1047C80013680133136085E73A4AD2ED007A9FED0A
:1047D8003A7A77EE877A314AC2ED007A2E4A012179
:1047E80011800B44284A136079E72B4BB3F900304A
:1047F800012B87D1254BB3F90030002B82D101F072
:1048080031FB234BD3ED007AF8EEE77A214B93ED99
:10481800007AF4EE477AF1EE10FA3FF473AF254BC5
:10482800D3ED007A9FED257A77EE877A1B4BC3ED9F
:10483800007A164B01221A8064E700BFAFF30080AC
:10484800691D554D1075EF3E3D0AD7A3703D0040D8
:104858001F85EB51B81EF13F0000014008100020F1
:10486800EBA00EEA676666667C0E002094000020C6
:10487800B5814E1B9C0D0020B0000020F8110020CF
:1048880002100020800E0020FC0F0020FA0F0020EC
:10489800A00D0020AC000020F80F0020A800002088
:1048A80085EB0140C3F5883F000000000000484246
:1048B8009A99993EA40D0020C3F5C840560EC940E8
:1048C800284B1B78DBB2012B0FD0264B1B78002B13
:1048D8007FF4A1AE244B1B78012B7FF49CAE01F032
:1048E800E3FA214B00221A7095E61F4B1B78002B28
:1048F800EBD101F0B7FA1C4B01221A70E5E7194B0E
:104908001B78DBB2012B7FF490AEFDF791FE8CE6AD
:10491800164B1B78002B7FF493AE154A138801338E
:104928009BB21380462B7FF68BAE104B01221A7078
:104938000F4B00221A8083E60E4A527AD2B2032A1B
:104948007FF48DAE094A1278012A7FF488AE0A49AD
:104958000A6804320A6082E601F0C8FA89E601F0C2
:1049680089FC24E67C0E002004100020B000002002
:104978000010002094000020F811002010B5034614
:104988000C4A0D490D48006840B10C4800680344C2
:10499800521A934206D8094A136010BD0748084CBA
:1049A8000460F2E704F008F90C2303604FF0FF30CD
:1049B800F3E700BF00000220000400000C100020F4
:1049C80058120020034AD2F8883043F47003C2F822
:1049D8008830704700ED00E000B587B000230293EF
:1049E800039304930593009301931548154A0260B5
:1049F80040F28F62426083606322C2600361436158
:104A0800836103F08FFB90B94FF48053029302A99E
:104A18000B4803F092FC68B90023009301936946A0
:104A2800074803F09BFD40B907B05DF804FBFFF7AA
:104A380093FBE9E7FFF790FBEEE7FFF78DFBF3E762
:104A4800101000200000014000B583B00368184A28
:104A5800934205D0174A934216D003B05DF804FB81
:104A680000210091144B5A6C42F001025A645B6CAD
:104A780003F001030093009B0A46192002F010F886
:104A8800192002F045F8E8E7002101910A4B5A6C19
:104A980042F400325A645B6C03F400330193019BC7
:104AA8000A46192001F0FCFF192002F031F8D4E77A
:104AB80000000140004401400038024000B587B0C2
:104AC8000023019302930393049305930268104B08
:104AD8009A4202D007B05DF804FB002300930D4B07
:104AE8001A6B42F020021A631B6B03F02003009339
:104AF800009B402301930223029301220392049313
:104B08000323059301A9044802F066FAE2E700BF0F
:104B180000440140003802400014024000B589B04A
:104B28000023019302930393049305930693079339
:104B38001548164A026053224260836040F2CF72E1
:104B4800C2600361836103F0EDFAA0B90E4803F077
:104B580015FB98B9602301930022029203920592F3
:104B680001A9094803F06EFB58B90748FFF7A6FFEB
:104B780009B05DF804FBFFF7EFFAE7E7FFF7ECFA97
:104B8800E8E7FFF7E9FAF0E7581000200044014091
:104B980008B50B480B4B03600B4B43600023836045
:104BA800C3604FF480620261042242618361C36181
:104BB80003F002FE00B908BDFFF7CEFAFBE700BF1D
:104BC8000011002000480040A086010030B589B0DF
:104BD8000023039304930593069307930268284BD5
:104BE8009A4201D009B030BD04460025019503F56D
:104BF800F8331A6C42F480221A641A6C02F4802288
:104C08000192019A02951A6B42F004021A631B6B17
:104C180003F004030293029B4FF4406303930223BF
:104C28000493032306930723079303A9154802F067
:104C3800D3F91548154B03604FF000634360856056
:104C4800C5604FF480630361456185614FF48073EB
:104C5800C3614FF440330362456201F0E7FF58B97E
:104C6800094BE3639C6300221146272001F018FFDB
:104C7800272001F04DFFB5E7FFF76EFAF0E700BF18
:104C88000048004000080240A010002028600240B0
:104C9800DFF834D0FFF796FE0C480D490D4A002383
:104CA80002E0D458C4500433C4188C42F9D30A4AD9
:104CB8000A4C002301E013600432A242FBD303F044
:104CC80081FFFFF79FFA70470000022000000020D4
:104CD80024090020D8A7000828090020581200201D
:104CE800FEE70000DFED1E7A20EE270AF5EE007AD7
:104CF80030EE270AFDEEC07AB5EEC00AF1EE10FAE2
:104D080028D4F8EEE77A70EE677A9FED160A67EE18
:104D1800807ABCEEE77A17EE103AC3F3080307EE81
:104D2800103AB8EE470A77EEC07A0F4A02EB8301D1
:104D3800D1ED006A013302EB830393ED007AB7EEFD
:104D4800000A30EE670A20EE260A67EE877A30EE10
:104D5800270A704717EE903A013B07EE903AD0E7E2
:104D680083F9223E00000044509F0008B5EEC00AB7
:104D7800F1EE10FA33D4DFED217A60EE277ABDEE3A
:104D8800E77AB5EEC00AF1EE10FA30D4B8EEC77A79
:104D980077EEC77A9FED1A0A67EE807ABCEEE77A5B
:104DA80017EE103AC3F3080307EE103AB8EE470AB5
:104DB80077EEC07A134A02EB8301D1ED006A013322
:104DC80002EB830393ED007AB7EE000A30EE670A30
:104DD80020EE260A67EE877A30EE270A7047DFED65
:104DE8000A7AB4EEE70AF1EE10FAC4DBF6E717EE3A
:104DF800103A013B07EE103AC8E700BF83F9223E9C
:104E080000000044509F0008CD024CB470B44368C1
:104E18004C685568066809688E423FD11268964208
:104E28003FD10288418801FB02F2910823E0D3EDCB
:104E3800006A94ED007AD3ED017A76EE876A94EDF4
:104E4800016A93ED027A77EE867A94ED026AC5EDEF
:104E5800006AC5ED017AD3ED037AD4ED036A37EE23
:104E6800067A77EEA67A85ED027AC5ED037A1033D5
:104E78001034103501390029D9D102F0030208E0B5
:104E8800F3EC017AB4EC017A77EE877AE5EC017AF3
:104E9800013A002AF4D1002070BC70476FF002007C
:104EA800FAE76FF00200F7E701804280436070473D
:104EB8002DE9F04F83B002460190D0F804B048685D
:104EC8000090B2F800E0B2F802C0E64540F0E68093
:104ED8000B884A88934240F0E4809E4540F0E48085
:104EE8007546034612E0002143F8041B013A002AE4
:104EF800F9D14FF07E5243F8042B013D2A4603E0D6
:104F0800002143F8041B013A002AF9D115B1AEEB90
:104F18000502ECE7E146DFED6C6A93E0F1EE677AB3
:104F2800F4EEC77AF1EE10FA13DC02EB8C020133CF
:104F3800734511D2D2ED007AF5EEC07AF1EE10FA8F
:104F4800ECDDF4EEC77AF1EE10FAEEDDB0EE677A3A
:104F5800EBE7B0EE677AE8E7B5EE407AF1EE10FAE3
:104F680000F0A580F5EEC06AF1EE10FA13DDF0EE60
:104F7800667AB4EE677AF1EE10FA0FD1F5EE406A70
:104F8800F1EE10FA00F09880D8ED006AACEB050657
:104F98003246434611E0F1EE667AEAE7AEEB0503E6
:104FA800013B00E0013B002BFCD1E7E793ED007AE1
:104FB800C7EE267AE3EC017A013A002AF6D1604678
:104FC800534606E093ED007AC7EE267AE3EC017AC1
:104FD80001380028F6D17446009A5B4625E003EBB9
:104FE800860302EB8C021CE0D3ED007AB1EC017A67
:104FF80027EE267A77EEC77AE3EC017A013F002F95
:10500800F2D1674651460AE0D2ED007AB1EC017A56
:1050180027EE267A77EEC77AE2EC017A013F002F75
:10502800F2D103EB8503013C013034B1A842D6D05C
:10503800D3ED006A37464146E1E70BF1040B09F16D
:10504800FF390135B9F1000F0DD00CFB05FA0BEB58
:105058008A08009B03EB8A0AD8ED006A2B46424671
:105068009FED197A64E7F5EE406AF1EE10FA26D161
:10507800019B596801E009F101090CFB0EF34B454E
:1050880008D901EB8902D2ED007AF5EE407AF1EE0B
:1050980010FAF0D04B4514D000200AE06FF002005F
:1050A80007E06FF0020004E06FF0020001E06FF02B
:1050B800040003B0BDE8F08F6FF00400F9E70020AA
:1050C800F7E76FF00400F4E7000000002DE9F0476F
:1050D800044613464568D2F8049007884888B4F80F
:1050E80002E00A8872456BD10E461A88BA426AD124
:1050F8005B8883426AD14FF0000857E0D3ED006A1D
:1051080003EB800392ED006A92ED017A66EE866AFF
:1051180076EEA77AD3ED006A03EB800327EE267AB2
:1051280077EE276A93ED007A03EB800392ED026A2B
:10513800D2ED037A27EE067A37EE267AD3ED006AA7
:1051480003EB800367EEA67A77EE877A103201398F
:1051580089B20029D2D10EF003010BE0B2EC017A3A
:10516800D3ED006A27EE267A77EE877A03EB800381
:10517800013989B20029F1D1EAEC017A0CF1010C6C
:105188001FFA8CFC736803EB8C03013CA4B22CB1AE
:105198004FEA9E012A46DFED0F7ADAE780441FFACC
:1051A80088F805EB8E05013FBFB237B109EB880AD5
:1051B800736804464FF0000CEAE70020BDE8F0876A
:1051C8006FF00200FAE76FF00200F7E76FF00200F5
:1051D800F4E700BF0000000070B443684C685568ED
:1051E800066809688E423FD1126896423FD102880C
:1051F800418801FB02F2910823E0D3ED006A94EDA7
:10520800007AD3ED017A76EEC76A94ED016A93EDE0
:10521800027A77EEC67A94ED026AC5ED006AC5EDAA
:10522800017AD3ED037AD4ED036A37EE467A77EE46
:10523800E67A85ED027AC5ED037A1033103410351D
:1052480001390029D9D102F0030208E0F3EC017A10
:10525800B4EC017A77EEC77AE5EC017A013A002AD4
:10526800F4D1002070BC70476FF00200FAE76FF0CD
:105278000200F7E730B542684D68B0F800C0B0F8F2
:1052880002E04B8863453BD10B8873453BD16446AC
:1052980000202EE0D2ED007AC3ED007A03EB8C03F8
:1052A800D2ED017AC3ED007A03EB8C03D2ED027ADA
:1052B800C3ED007A03EB8C03D2ED037AC3ED007AD9
:1052C80003EB8C03013989B210320029E2D10EF0C8
:1052D800030107E0F2EC017AC3ED007A03EB8C03DB
:1052E800013989B20029F5D1013080B2013CA4B25C
:1052F80024B14FEA9E0105EB8003E6E7002030BDAC
:105308006FF00200FBE76FF00200F8E708B5002233
:105318001021024801F052FF08BD00BF0000024002
:1053280008B501221021024801F048FF08BD00BF5E
:105338000000024008B500220121024801F03EFFAA
:1053480008BD00BF0004024008B50122114602480A
:1053580001F034FF08BD00BF0004024000B587B06B
:105368008DF80F004FF47A73009301230DF11702A3
:105378000DF10F010448006802F081FB9DF8170049
:1053880007B05DF804FB00BF4811002038B50D4692
:10539800144640F08000FFF7E1FF06E05520FFF7D4
:1053A800DDFF05F8010B013CE4B2002CF6D138BD55
:1053B80010B50C46FFF7D2FF2046FFF7CFFF10BD10
:1053C80010B50C4640F08000FFF7C8FF5520FFF7E6
:1053D800C5FF207010BD000030B52DED048B89B0DD
:1053E8000446C54B93E803000690ADF81C10090C61
:1053F8008DF81E1000238DF81F30FDF777FBBF4B8B
:1054080083ED000AFDF772FBBC4BD3ED007A30EE5A
:10541800670AF2EE047AB4EEE70AF1EE10FA0CDC51
:105428009FEDB70AFDF788FB002323636362A3623D
:10543800E362B0EE689A0025DAE0B24B6362B24BE1
:10544800A362E362B14B2363B14BA36194ED0C7A81
:10545800DFEDB06AC6EE877AC4ED087A09B0BDEC14
:10546800048B30BD9DF81B301B021BB29DF81A201F
:10547800134307EE103AA84BD3ED006AB8EEC77A8B
:1054880027EE267A84ED037AD4ED097A37EE877A07
:1054980084ED097A9DF81D301B021BB29DF81C2073
:1054A800134307EE103AB8EEC77A27EE267A84ED52
:1054B800047AD4ED0A7A37EE877A84ED0A7A9DF871
:1054C8001F301B021BB29DF81E20134307EE903AB3
:1054D800F8EEE77A67EEA67AC4ED057A94ED0B7AD2
:1054E80077EE277AC4ED0B7AE6E00023022B0DD87D
:1054F8009A1C04EB8202516808AA02EB830242F864
:10550800141C42F8201C0133DBB2EFE7B0EE688AC6
:1055180078EEC86A814BC3ED006A00233BE0013393
:10552800DBB2022B24D819469A1C04EB8202D2ED76
:10553800017A08AA02EB830212ED057AF4EEC77A23
:10554800F1EE10FA04DD08AA02EB830242ED057AB7
:1055580008AA02EB810212ED087AF4EEC77AF1EE9E
:1055680010FADCD508AA02EB810141ED087AD6E7EA
:10557800F0EE498ACCE708AA02EB830252ED057ADD
:1055880012ED087A77EEC77A654A02EB8302C2ED1C
:10559800007A0133DBB2022BEDD9F6EE007AF4EE95
:1055A800E76AF1EE10FA00F39C805D4B93ED007A08
:1055B800DFED5C7AB4EEE77AF1EE10FA00F3918051
:1055C80093ED017AB4EEE77AF1EE10FA00F38980F0
:1055D80093ED027AB4EEE77AF1EE10FA00F38180E7
:1055E8009FED510AFDF7A8FA0135ADB2B0EE689A01
:1055F80041F26F739D4272D8FFF788FE9220FFF741
:10560800ADFE062206A91220FFF7C0FEFFF788FEAE
:105618009DF819301B021BB29DF81820134300EEA9
:10562800103AB8EEC00A414AD2ED007A20EE270AB5
:1056380084ED000A9DF81B301B021BB29DF81A105E
:105648000B4307EE103AD2ED006AB8EEC77A27EEA0
:10565800267A84ED017A9DF81D301B021BB29DF855
:105668001C20134307EE903AF8EEE77A67EEA67A25
:10567800C4ED027A20EE000A27EE077A30EE070A18
:1056880067EEA77A30EE270A04F008F8F0EE408AB1
:10569800D4ED0C7A77EE807AC4ED0C7AFFF74AFEE7
:1056A800082206A90020FFF771FEFFF74DFE9DF8BE
:1056B80018300F2B3FF4D6AE002D3FF416AFB4EEE2
:1056C800E89AF1EE10FA01D5B0EE689AB4EEE88ADD
:1056D800F1EE10FA01DDB0EE688A002321E7F0EE62
:1056E800498AD4ED0C6A9FED127AC6EE877AC4ED2A
:1056F8000C7A00232CE000BF7C9E0008A411002037
:105708000AD7A33BAC38223BB016CE393F161B4113
:1057180000002042C3F51C41BC000020901100206D
:10572800941100209A99193E6F12033AB80000208C
:105738000080BB4503F1080204EB8202D2ED016A46
:105748001FED057AC6EE877AC2ED017A0133DBB226
:10575800022BEFD9FFF7DAFDA220FFF7FFFD0222A7
:1057680006A92220FFF712FEFFF7DAFD9DF81820A0
:105778009DF819305B0943EAC203B3F5806F01DB7A
:10578800A3F5006307EE903AF8EEE77AB4EE007AF4
:1057980067EE877AB3EE077A77EE877AC4ED067AF2
:1057A8002D4A1388013313802C4B93ED007AF6EEC3
:1057B800007AB4EEE77AF1EE10FA3FF723AED4EDB3
:1057C8000C7A9FED277A77EEC77AF0EEE77AB6EE95
:1057D800007AF4EEC77AF1EE10FA3FF713AE214BD8
:1057E80093ED007ADFED207AB4EEE77AF1EE10FA65
:1057F8003FF708AE93ED017AB4EEE77AF1EE10FACE
:105808003FF700AE93ED027AB4EEE77AF1EE10FAC4
:105818003FF7F8ADD4ED097AF0EEE77A9FED137A09
:10582800F4EEC77AF1EE10FA3FF7ECADD4ED0A7A50
:10583800F0EEE77AF4EEC77AF1EE10FA3FF7E2AD50
:10584800D4ED0B7AF0EEE77AF4EEC77AF1EE10FABF
:105858003FF7D8ADFAE500BF8C1100209011002069
:10586800CDCC1C41941100209A99193E0AD7233CAB
:1058780070B5FFF74BFD8020FFF770FD5520FFF74F
:105888006DFD5520FFF76AFD464C2070FFF748FD77
:10589800012000F001FDFFF739FD8020FFF75EFDD4
:1058A8005520FFF75BFD5520FFF758FD2070FFF7E7
:1058B80037FD012000F0F0FCFFF728FDB6217E201F
:1058C800FFF776FDFFF72CFD502000F0E5FCFFF711
:1058D8001DFD8020FFF742FD5520FFF73FFD5520B5
:1058E800FFF73CFD2070FFF71BFD012000F0D4FC02
:1058F800FFF70CFD8020FFF731FD5520FFF72EFD47
:105908005520FFF72BFD2070FFF70AFD012000F05E
:10591800C3FC23781E2B42D1234B00221A7002E0CD
:105928000133214A1370204B1B78052B35D8FFF71C
:10593800EDFC1D4D2B781D4C03EB4303E218517809
:10594800E05CFFF735FDFFF7EBFC012000F0A4FC5D
:10595800FFF7DCFC2B7803EB4303E05C40F08000AE
:10596800FFF7FCFC5520FFF7F9FC5520FFF7F6FC84
:105978000C4E3070FFF7D4FC012000F08DFC2B7822
:1059880003EB43021444617832789142C8D0A2787C
:105998000749087802430A70C2E7002070BDFF205B
:1059A800FCE700BFA0110020A811002054A70008A0
:1059B8008E11002070B5FFF7BDFC3F4C214600203A
:1059C800FFF7FEFCFFF7C0FC012000F065FCFFF7C5
:1059D800B1FC21460020FFF7F3FCFFF7B5FC0120DE
:1059E80000F05AFCFFF7A6FCB6211420FFF7E0FCF4
:1059F800FFF7AAFC502000F04FFCFFF79BFC214664
:105A08000020FFF7DDFCFFF79FFC012000F044FCBD
:105A1800FFF790FC21460020FFF7D2FCFFF794FC2B
:105A2800012000F039FC23780F2B42D1234B0022B0
:105A38001A7003E0214A1378013313701F4B1B7847
:105A4800052B34D8FFF776FC1C4D2B781C4C03EB48
:105A58004303E2185178E05CFFF7AAFCFFF774FCF7
:105A6800012000F019FCFFF765FC134E2B7803EBBF
:105A780043033146E05CFFF7A3FCFFF765FC012018
:105A880000F00AFC2B7803EB430214446178327867
:105A98009142CFD0013BDBB22B7003EB4303094AA1
:105AA80013449B78084A11780B431370C2E700200F
:105AB80070BDFF20FCE700BFA0110020A811002046
:105AC80068A7000854A700088E11002038B50D46B5
